:020000040800F2
:1000000098240020A1010008673D00080D2A00087F
:10001000653D0008D50800089D4700080000000065
:10002000000000000000000000000000E33E0008A7
:10003000AD09000800000000E13E0008E53E0008B0
:10004000BB010008BB010008BB010008BB010008A0
:10005000BB010008BB010008BB010008BB01000890
:10006000BB010008BB010008BB010008BB01000880
:10007000BB010008BB010008BB010008BB01000870
:10008000D9080008E5080008BB010008BB0100080A
:10009000BB010008BB010008BB010008BB01000850
:1000A000BB010008BB010008BB010008BB01000840
:1000B000BB010008BB010008BB010008BB01000830
:1000C000BB010008BB010008BB010008BB01000820
:1000D000BB010008BB01000891470008BB010008F4
:1000E000BB010008BB010008BB010008BB01000800
:1000F000BB010008BB010008BB010008BB010008F0
:10010000BB010008BB010008BB010008BB010008DF
:10011000BB010008BB010008114000081D40000899
:10012000BB010008BB010008F1080008BB01000882
:10013000BB010008BB010008BB010008BB010008AF
:10014000BB010008BB010008BB010008BB0100089F
:10015000BB010008BB010008FD080008BB01000846
:10016000BB010008BB010008BB010008BB0100087F
:10017000BB010008BB010008BB0100080000000033
:10018000BB010008BB010008DFF810D000F0DEFA68
:1001900000480047F94D0008AFF300809824002084
:1001A0000648804706480047FEE7FEE7FEE7FEE711
:1001B000FEE7FEE7FEE7FEE7FEE7FEE70140000898
:1001C000890100082DE9F05F0546002092469B4614
:1001D00088460646814640241BE02846414647465D
:1001E000224600F0A9F953465A46C01A914110D34D
:1001F00011461846224600F090F92D1A67EB0108C7
:100200004F4622460120002100F087F917EB000934
:100210004E41201EA4F10104DFDC484631462A4647
:100220004346BDE8F09F40EA01039B0703D009E085
:1002300008C9121F08C0042AFAD203E011F8013BD2
:1002400000F8013B521EF9D27047D2B201E000F82B
:10025000012B491EFBD270470022F6E710B513466A
:100260000A4604461946FFF7F0FF204610BD30B598
:1002700005462A460B4612F8010B13F8014B08B14C
:10028000A042F8D01CB1002802D06D1CF1E728462E
:1002900030BDCAB2401E10F8011F8A4202D00029A8
:1002A000F9D100207047421C10F8011B0029FBD136
:1002B000801A704730B505460020034600E05B1CFD
:1002C000934205D2EC5CC85C201A01D1002CF6D117
:1002D00030BD2DE9F04791460F4680460446002682
:1002E00014F8015B2DB100F049F90068405DC007CA
:1002F000F6D12B2D02D02D2D18D0641E4A4639463A
:10030000204600F03FF927B13968A14201D1C7F872
:10031000008071054FF002040BD54042002803DD38
:1003200004F062FA0460A007BDE8F08746F4806636
:10033000E4E70028F8DA04F057FA04606FF00040B0
:10034000F2E72DE9FE4F804681EA0300C00F0C461C
:10035000009021F0004123F00045B8EB0200A941D4
:1003600005D24046214690461C460B46024623F0E5
:100370000040104347D0270DC7F30A00C3F30A51CA
:100380000290401A019040286BDAC3F3130040F446
:10039000801B0098924620B10023D2EB030A63EB46
:1003A0000B0B01985946C0F14002504600F0B5F8D9
:1003B00006460D4650465946019A00F0CDF810EB1E
:1003C00008006141002487EA115284EAE7731A4366
:1003D00040D0009A62B3019A012A4FEA075215DC15
:1003E000001B61EB02014FF0004202EA0752CDE927
:1003F0000042001C41F5801132462B4600F057F9AF
:1004000003B0BDE8F08F40462146F9E7001B61EBE1
:100410000201001C41F5801300185B412018A2F571
:10042000001747EB030140EAD570B6196D4111E0A2
:100430006D084FEA360645EAC0754FEA0752001BC1
:1004400061EB0201001C41F5801149084FEA3000C0
:100450000019514132462B4603B0BDE8F04F00F081
:1004600017B90098012240000023D0EB020263EB91
:10047000E073009821464FEAE074B8EB000061EBAE
:100480000401E9E783F000435BE781F0004158E7AE
:1004900000F0004230F000400AD0C10D01F560715B
:1004A000C0F3160042EA0151C208400711437047E9
:1004B00000200146704701F0004330B421F00041B4
:1004C00050EA010206D00A0DA2F56072C1F31301D1
:1004D000002A02DC30BC00207047440F44EAC1040B
:1004E000C100E01830BC00EBC25000F09AB830B543
:1004F0000B46014600202022012409E021FA02F5E2
:100500009D4205D303FA02F5491B04FA02F528447B
:10051000151EA2F10102F1DC30BD202A04DB203AD5
:1005200000FA02F1002070479140C2F1200320FA46
:1005300003F3194390407047202A04DB203A21FA44
:1005400002F00021704721FA02F3D040C2F12002EC
:100550009140084319467047202A06DBCB17203A02
:1005600041FA02F043EAE07306E041FA02F3D040B8
:10057000C2F1200291400843194670470048704775
:10058000AC8A00082DE9F05F824600780027154606
:100590008B460AF10104B946302801D09DB113E021
:1005A00014F8010B0127782803D0582801D045B151
:1005B0000AE00DB1102D07D10027102514F8010B0A
:1005C00002E0082500E00A250026B0460EE005FB03
:1005D000080005FB06F1012701EB10461FFA80F821
:1005E000B6F5803F00D3B94614F8010B294600F058
:1005F000BFF80028EBDABBF1000F05D00FB1641E85
:1006000000E05446CBF80040B9F1000F06D004F0EA
:10061000EBF802210160C81EBDE8F09F48EA0640E1
:10062000FAE70029A8BF7047401C490008BF20F026
:100630000100704710B4B0FA80FC00FA0CF050EAE8
:10064000010404BF10BC704749B1CCF1200421FA69
:1006500004F411FA0CF118BF012121430843A3EB64
:100660000C01CB1D4FEA00614FEA102042BF002071
:1006700010BC704700EBC35010440029A4BF10BC4D
:100680007047401C490008BF20F0010010BC7047B3
:1006900010B5141E73F1000408DA401C41F100018A
:1006A00092185B411A4301D120F0010010BD2DE9E1
:1006B000F04D92469B4611B1B1FA81F202E0B0FAD8
:1006C00080F220329046FFF728FF04460F4640EAAA
:1006D0000A0041EA0B0153465A46084313D011461B
:1006E00053EA010019D0C8F140025046FFF724FF39
:1006F00005460E46504659464246FFF70EFF084350
:1007000005D0012004E020463946BDE8F08D0020E8
:10071000054346EAE0762C4337430A986305E40A2A
:10072000A0EB08000022FD0A44EA47540A3002D533
:1007300000200146E9E7010510196941DDE9084596
:1007400000196941BDE8F04DA2E70000064C074DD5
:1007500006E0E06840F0010394E807009847103491
:10076000AC42F6D3FFF714FDB08A0008D08A000827
:100770003A2800D2303820F02002412A01D3A2F1D9
:100780003700884201D34FF0FF30704700B52DEDA0
:10079000028BA1B004F0A0FC04F028FB02F0E4F905
:1007A00002F020FA0020A02380220146009002F0EF
:1007B000BCF9B6EE001A9FED408AB7EE000A0021A0
:1007C000F0EE480A3D4804F01EFC9FED3D1AF0EEA5
:1007D000480A9FED3C0A00213B4804F014FC3D22EE
:1007E0003A490FA8FFF71FFD384810F83D1F8DF854
:1007F000791041788DF87A1081788DF87B10C17866
:100800008DF87C1001798DF87D1041798DF87E107E
:1008100081798DF87F10C1798DF88010017A8DF87B
:100820008110407A8DF8820040F246500E903822B6
:1008300013A96846FFF7F7FC0DF13C0C9CE80F008C
:1008400004F02EFC3D2222490FA8FFF7ECFC2048C3
:1008500010F83D1F8DF8791041788DF87A10817865
:100860008DF87B10C1788DF87C1001798DF87D10A2
:1008700041798DF87E1081798DF87F10C1798DF8DE
:100880008010017A8DF88110407A8DF8820040F254
:10089000A4600E90382213A96846FFF7C4FC0DF13E
:1008A0003C0C9CE80F0004F0FBFB21B0BDEC028B7C
:1008B0005DF804EB04F05EB8CDCCCC3D3C060020E6
:1008C000CDCCCC3ECDCC4C3F700600204002002069
:1008D00088020020FEE70000014800F095B9000002
:1008E00040050020014800F08FB90000A00500205D
:1008F000014800F089B9000080040020014800F0A0
:1009000083B90000E004002001681823CAB2103A3D
:10091000B2FBF3F2054B6FF30901032A9B5CC3653D
:1009200000D9091D8165084670470000EC50000899
:1009300010B5014600208B698A6A4FF0C07453B12C
:10094000B3F5005F15D072B1012A0CD0022A0AD08B
:10095000032A09D104E01AB1012A06D0022A03D1E0
:10096000C96AC90100D5012010BDC96AA142FAD0E7
:1009700010BD002AF7D0012AF2D0022AF3D0032AB0
:10098000F3D010BD30B50468256825F480252560B6
:10099000046863608368402B036803D09960006833
:1009A000C26030BD9A600068C16030BD704772B6E9
:1009B000FEE700002DE9F04F4FF4F0756C1EDDF8F6
:1009C00024A0002801DA002002E0A84200DB204633
:1009D000002A01DA002202E0AA4200DB22460029B6
:1009E00000DA0021002B00DA00234FF000099042CA
:1009F00007DD0446104622460C46194623464FF0B2
:100A00000109904210D1994201DA0A4600E01A46E3
:100A100006DA194604E000BF4AF8202002F101027C
:100A20008A42F9DDBDE8F08F171A5C1A00D56442DE
:100A3000994201DA012501E04FF0FF35AE463D1B3A
:100A40000E46C4F1000B1AE0B9F1000F08D08E4237
:100A500004D0A6EB010CA3EB0C0C02E08C4600E0EA
:100A6000B4464AF820C09042DCD04FEA450CDC4541
:100A700001DD2D1B401CBC4501DA3D44764490420B
:100A8000E2DDCFE72DE9F84F4FF4A0756C1EDDF8DD
:100A900028A0002901DA002102E0A94200DB21465A
:100AA000002B01DA002302E0AB4200DB23460028E2
:100AB00000DA0020002A00DA00220027994206DD31
:100AC0000C46194623460446104622460127994201
:100AD00010D1904201DA034600E0134606DA1046D0
:100AE00004E000BF4AF8213003F101038342F9DD3D
:100AF000BDE8F88F151A00D56D425C1A904201DAF4
:100B0000012601E04FF0FF3600962E1B8146C4F10E
:100B1000000E1AE047B1814504D0A9EB000CA2EB0E
:100B20000C0C02E0844600E0CC464AF821C0994211
:100B3000DED04FEA460BF34503DDDDF80080361BBF
:100B4000C144AB4501DA2E44491C9942E2DDCFE7AE
:100B50002DE9F0410446876D00F0DCFA064694F872
:100B600035000025022806D08020606584F83450C6
:100B70000120BDE8F0812068016821F016010160C4
:100B80002068416921F080014161206C08B9A06CA6
:100B900020B12068016821F0080101602068016827
:100BA00021F0010101600CE000F0B4FA801B05287F
:100BB00007D920206065032084F8350084F834507C
:100BC000D7E720680068C007EED194F85C103F209A
:100BD0008840B860012084F8350084F83450002043
:100BE000C7E790F83510022903D080214165012024
:100BF0007047052180F835100068016821F0010177
:100C000001600020704700002DE9F84304464FF0D2
:100C10000009CDF8009063484FF41651A56D0068A7
:100C2000B0FBF1F72E6894F85C10082000FA01F18F
:100C300031420FD021680A6852070BD50A6822F0AA
:100C400004020A6094F85C108840A860606D40F06F
:100C50000100606594F85C104FF0010808FA01F09B
:100C6000304208D021684969090604D5A860606D42
:100C700040F00200606594F85C1004208840304227
:100C800008D021680968890704D5A860606D40F024
:100C90000400606594F85C1010208840304218D041
:100CA00021680968090714D5A8602068016849030C
:100CB00004D50068000308D5A16C07E00168C905E8
:100CC00003D4016821F008010160216C09B12046BC
:100CD000884794F85C1020208840304231D0216849
:100CE0000968C9062DD5A86094F835000528206844
:100CF000016806D0490347D5006800031DD4616C24
:100D00001CE021F0160101602068416921F080019A
:100D10004161206C08B9A06C20B12068016821F005
:100D20000801016094F85C103F208840A86084F8B6
:100D3000358084F83490216D1FE0E16B09B12046C5
:100D40008847606D00282BD0606DC00714D0052047
:100D500084F835002068016821F0010101600098E5
:100D6000401C0090B84203D820680068C007F6D144
:100D700084F8358084F83490E16C002910D001B0FB
:100D80002046BDE8F04308470168C905D5D401688D
:100D900021F01001016084F8358084F83490CCE7AC
:100DA000BDE8F883180000202DE9F041044600F06A
:100DB000B1F906465CB1022084F83500002584F8BC
:100DC00034502068016821F0010101600DE001202C
:100DD000BDE8F08100F09EF9801B052805D9202090
:100DE0006065032084F83500F2E720680068C007DA
:100DF000F0D12268116820480140D4E9010318436A
:100E0000D4E903363343184363691843A36918438D
:100E1000E3691843236A18430843616A042903D12C
:100E2000D4E90B1319430843106020684069666ACF
:100E300020F0070130460E43012704280CD1A06A98
:100E40000643E06A40B12046FFF772FD20B1402022
:100E5000606584F83570BAE7206846612046FFF780
:100E600053FD94F85C203F2191408160656584F8D2
:100E700035700020ACE700003F8010F02DE9F04114
:100E80000446866D90F83400002501280DD001201D
:100E900084F8340094F835700020012F07D084F8CE
:100EA000340002252846BDE8F0810220FBE7022736
:100EB00084F8357060652046FFF764FD94F85C1097
:100EC0003F208840B0602068016841F01601016051
:100ED000206C20B12068016841F0080101602068A1
:100EE000016841F001010160DCE7000070B50446D3
:100EF00000F010F90546601C02D004480078044454
:100F000000F008F9401BA042FAD370BD0C0000208D
:100F10002DE9F84FDFF8BCA10022012503264FF090
:100F20000F090AF1040BAAF1040E00BF0B6805FAC1
:100F300002F42340A34270D10F7907F00307012F79
:100F400001D0022F16D187684FEA420806FA08FC42
:100F500027EA0C07D1F80CC00CFA08FC4CEA070C85
:100F6000C0F808C04768A7430C79C4F30014944044
:100F70003C4344600C79E443A4070AD0C4684FEAB8
:100F8000420C06FA0CF7BC438F6807FA0CF72743AC
:100F9000C7600C7904F00304022C12D1D40800EBD2
:100FA000840CDCF820405707FF0E09FA07F824EA02
:100FB0000804D1F8108008FA07F848EA0408CCF8C9
:100FC000208004684FEA420C06FA0CF7BC430F7904
:100FD00007F0030707FA0CF7274307604C6814F47F
:100FE000403F70D03C4C276847F480472760246816
:100FF00022F0030704F480440094384C07EB040CFF
:10100000DCF8084897074FEA177809FA08F7BC4355
:10101000334FB84202D1002724E054E0314FB842A8
:1010200001D101271EE0304FB84201D1022719E05B
:101030002E4FB84201D1032714E02D4FB84201D101
:1010400004270FE02B4FB84201D105270AE02A4FB1
:10105000B84201D1062705E0284FB84201D1072741
:1010600000E0082707FA08F72743CCF80878DAF8F1
:1010700000405746D1F804C09C435FEACC2C00D511
:101080001C433C60DBF800405F46D1F804C09C4341
:101090005FEA8C2C00D51C433C60DEF800407746AC
:1010A000D1F804C09C435FEA8C3C00D51C433C60F3
:1010B000084F083F3C68D1F804C09C435FEACC3C31
:1010C00000D51C433C60521C102AFFF42FAFBDE832
:1010D000F88F0000083C01404438024000300140D5
:1010E000000002400004024000080240000C0240E0
:1010F000001002400014024000180240001C024090
:101100000069084000D0012070470AB18161704732
:101110000904FBE701488068704700000C000020CC
:101120000248816802781144816070470C000020F9
:101130000B4810B5016841F400710160016841F489
:1011400080610160016841F480710160032000F05A
:101150006FF80F2000F006F800F024F8002010BD12
:10116000003C024070B50D4D04464FF47A7128786A
:10117000B1FBF0F00A490968B1FBF0F000F00CFB9C
:1011800048B9102C07D200222146501E00F030F83A
:1011900000206C6070BD012070BD00000C000020BC
:1011A000180000200A4808B5016841F48041016038
:1011B000006800F4804000900548001F016841F07D
:1011C00080510160006800F08050009008BD000070
:1011D00044380240002809DB00F01F020121914041
:1011E0004009800000F1E020C0F8001170470000C5
:1011F000F0B40E4B1B680C46C3F30223C3F1070582
:10120000042D00D90425191D072901D2002300E06F
:10121000DB1E012606FA05F1491E214099409E4039
:10122000761E16403143F0BC03F0CEBA0CED00E060
:10123000064900F0070208684FF6FF03184040EA2D
:101240000220034A10430860704700000CED00E0E4
:101250000000FA052DE9F0470E46050065D0DFF8DD
:101260001481D8F80000F7B200F00700B04207D2AE
:1012700088F80070D8F8000000F00700B04254D1A0
:1012800028683D4C810712D5400703D5206840F4FB
:10129000E05020602878000703D5206840F46040C3
:1012A00020602068A96820F0F000084320602878BA
:1012B000C0072DD0304968680839012812D00228AB
:1012C00013D0032811D00968890700292DDA216875
:1012D00021F0030101432160FFF71CFF814641F229
:1012E000883A0EE009688903EFE709688901ECE7AD
:1012F000FFF710FFA0EB0901514502D90320BDE81B
:10130000F0872068696800F00C00B0EB810FEFD126
:10131000D8F80010404601F00701B14207D9077024
:10132000006800F00700B04201D00120E7E728780C
:10133000400705D52068E96820F4E05008432060A4
:101340002878000706D52068296920F4604040EA23
:10135000C100206000F038F82168084AC1F3031189
:10136000515CC8400649086006480068FFF7FAFE6D
:101370000020C4E7003C024008380240F450000856
:101380001800002010000020044805490068096882
:10139000044AC1F38221515CC84070471800002004
:1013A00008380240045100080448054900680968EB
:1013B000044AC1F34231515CC84070471800002014
:1013C0000838024004510008154810B5006810F0B4
:1013D0000C02144813D01449042A0FD0082A0ED145
:1013E0000F4C241F2268236802F03F025B0207D5DE
:1013F0002068C0F38810A0FB010106E0084610BD7C
:101400002168C1F38811A1FB00010023FEF7DAFE79
:101410002168C1F30141491C4900B0FBF1F010BD46
:10142000083802400024F40040787D012DE9F84F8F
:1014300004006ED02078DFF84C93C007A9F10405B2
:101440004AD009F104000168C1F38101012908D0E3
:101450000068C0F3810002280AD1D9F800004002D8
:1014600006D52868800337D560680028E1D033E0CE
:101470006068B0F5803F10D0B0F5A02F286810D07C
:1014800020F480302860286820F48020286060687C
:10149000A8B1FFF73FFE06460DE0286840F4803013
:1014A000F4E740F480202860F7E700BFFFF732FE42
:1014B000801B642873D828688003F7D50CE0FFF7F9
:1014C00029FE064605E000BFFFF724FE801B6428C6
:1014D000F0D828688003F7D42078DFF8AC82800742
:1014E0004FF0000A3ED5A748001D016811F00C0F0F
:1014F00008D00068C0F3810002280BD1D9F80000A1
:10150000400207D42868800716D5E068012800D17A
:1015100012E033E1E068B8B10120C8F80000FFF73D
:10152000F9FD064605E000BFFFF7F4FD801B022829
:10153000C0D828688007F7D52868216920F0F8000E
:1015400040EAC10028600DE0C8F800A0FFF7E2FD06
:10155000064604E0FFF7DEFD801B02281FD828683E
:101560008007F7D42078000722D5864F8748616925
:10157000703771B101210160FFF7CCFD064604E030
:10158000FFF7C8FD801B022809D838688007F7D507
:101590000EE0C0F800A0FFF7BDFD064605E082E0C2
:1015A000FFF7B8FD801B02287DD838688007F7D484
:1015B0002078400768D5DFF8CCB100270BF13C0B51
:1015C000DBF80000C0000BD4DBF8001041F08051C4
:1015D000CBF80010DBF80000012700F080500090ED
:1015E0006B4E3068C00510D4306840F480703060B5
:1015F000FFF790FD009005E0FFF78CFD0099401A81
:10160000022850D83068C005F6D55E4EA0686C360A
:1016100001280FD00528306810D020F0010030607C
:10162000306820F004003060A068B8B1FFF772FDA8
:1016300000900FE0306840F00100F4E740F0040053
:101640003060F7E7FFF766FD0099411A41F28830F4
:10165000814266D830688007F4D50EE0FFF75AFD66
:10166000009007E0FFF756FD0099411A41F28830DB
:10167000814256D830688007F4D42FB1DBF80010CF
:1016800021F08051CBF80010A069C8B33D49091D75
:101690000968C1F3810102294AD00228504607D0C7
:1016A000C8F8600000E03CE0FFF734FD04463BE092
:1016B0004746C8F86000FFF72DFD064605E000BF6D
:1016C000FFF728FD801B02282BD828688001F7D45B
:1016D000D4E907010843A16A2E4A490802EB0141F7
:1016E000626A41EA8211084394F82C1040EA0161D1
:1016F000C9F8001001203866FFF70CFD044606E02B
:101700003EE000BFFFF706FD001B022809D828684D
:101710008001F7D534E000BFFFF7FCFC001B022876
:1017200002D90320BDE8F88F28688001F4D427E0AF
:101730000128F7D0D9F80000E26900F48001914255
:101740001CD1226A00F03F01914217D147F6C071C7
:10175000626A0140B1EB821F10D1A26A4FF0FF33E1
:1017600000F4403103EB5202B1EB024F06D194F882
:101770002C1000F07060B0EB016F01D00120D1E7B8
:101780000020CFE70438024000004742800E474265
:10179000007000400000FFFF10B5401EB0F1807FD8
:1017A00001D3012010BD4FF0E02460610F216017CC
:1017B00003F00AF80020A06107202061002010BD7E
:1017C0007047704710B590F83C20012A22D00122C2
:1017D00080F83C20CA688C6822F4407222434C682E
:1017E00022F4806222430C6822F4006222430C69D6
:1017F00022F4805222434C6922F400522243C969E8
:10180000002322F480420A4301684A6480F83C3095
:10181000002010BD022010BD70B590F83C20012AB8
:1018200032D0012480F83C40022280F83D20036839
:101830005A689D6822F070060A6832435A60134B5A
:1018400002689A4214D0B2F1804F11D0104B9A42E4
:101850000ED0104B9A420BD00F4B9A4208D00F4B30
:101860009A4205D00E4B9A4202D00E4B9A4204D1B6
:10187000496825F080031943916080F83D400021BC
:1018800080F83C10084670BD022070BD0000014089
:101890000004004000080040000C0040000401402B
:1018A000004001400018004010B5040003D094F837
:1018B0003D0010B107E0012010BD002084F83C007D
:1018C000204600F01FF8022084F83D00211D20680A
:1018D00002F0AAFB012084F8460084F83E0084F858
:1018E0003F0084F8400084F8410084F8420084F806
:1018F000430084F8440084F8450084F83D0000204B
:1019000010BD000008B53149026831488A420ED145
:10191000016841F0100101600068002200F0100031
:10192000009011463620FFF763FC362010E029496D
:101930008A4211D1016841F0200101600068002253
:1019400000F02000009011463720FFF751FC3720AF
:10195000BDE80840FFF73EBC1D491F4B091D9A42D8
:1019600007D1086840F002000860086800F0020033
:1019700009E01A4B9A4208D1086840F40030086028
:10198000086800F40030009008BD154B9A4207D15A
:10199000086840F480200860086800F48020F2E7BE
:1019A00010498A4207D1016841F080010160006856
:1019B00000F08000E7E70C498A42E5D1016841F474
:1019C00080710160006800F48070DCE70010004066
:1019D000403802400014004000040140004401402F
:1019E00000480140001C00400020004090F83D10DD
:1019F000012901D001207047022180F83D100168C3
:101A0000CA6842F00102CA6000681149884214D0D5
:101A1000B0F1804F11D00F4988420ED00E49884254
:101A20000BD00E49884208D00D49884205D00D4997
:101A3000884202D00C49884204D1816801F0070134
:101A4000062903D0016841F00101016000207047C0
:101A5000000001400004004000080040000C00406D
:101A600000040140004001400018004070B50446E9
:101A700090F83C000025012817D0012684F83C602E
:101A8000022084F83D002068826822F0770222F468
:101A90007F4282600868502838D00DDC20284FD063
:101AA00005DC90B3102811D14AE0022070BD302827
:101AB00046D040280AD13BE060282FD070280DD0B6
:101AC000B0F5805F03D0B0F5005F12D0012584F837
:101AD0003D60002084F83C00284670BDCB68D1E909
:101AE0000121206802F019FB2068816841F077012C
:101AF00009E0CB68D1E90121206802F00EFB2068E3
:101B0000816841F480418160E1E719E0CA68496871
:101B1000206802F0D7FB5021206806E0CA684968B7
:101B2000206802F0E0FB6021206802F000FBCEE7B5
:101B3000CA684968206802F0C5FB40212068F4E7C4
:101B4000226801461046F0E72DE9F0410D460400F9
:101B500003D094F83D0018B108E00120BDE8F08101
:101B6000002084F83C00204600F040F8022084F871
:101B70003D002068816844F2070291438160211D85
:101B8000206802F051FA226890689169166A2B6801
:101B9000AF69034340F20330814341EA0721A8685B
:101BA000EF6908434FF6FC418843E96840EA0720A3
:101BB000014328692F6A000140EA07300843696839
:101BC0006D6926F0AA0646EA051529439360226846
:101BD000906154F8460B0162012004F81F09E0757A
:101BE0002076E0762077A0750020B7E730B587B083
:101BF000044614216846FEF72FFB24683E4A002164
:101C00003E480223012594421BD13C4A14321468F9
:101C100044F001041460126802F0010205920268A7
:101C200042F010020260006800F0100005904FF4CE
:101C300020600090CDE90131CDE9031569463048B7
:101C400038E02E4A1032B4F1804F1BD02D4DAC42FB
:101C500034D1146844F002041460126802F00202E5
:101C60000592026842F002020260006800F0020081
:101C7000059030200090CDE90131CDE9031369468C
:101C8000214817E0146844F001041460126802F05F
:101C900001020592026842F001020260006800F051
:101CA0000100059003200090CDE90131CDE9031535
:101CB00069461648FFF72CF907B030BD144DAC4209
:101CC000FAD1146844F004041460126802F00402AB
:101CD0000592026842F008020260006800F0080005
:101CE00005904FF440500090CDE90131CDE9031348
:101CF00069460848DEE70000000001403038024035
:101D000000100240000400400004024000000240B5
:101D100000080040000C024070472DE9F0410446E5
:101D20000068C66805694FF00007A90713D5B10719
:101D300011D5F91E01610120207720688069800794
:101D4000204602D0FFF7E8FF04E000F01AF9204631
:101D500000F0DAF92777680716D5700714D52168DF
:101D60006FF004000861022020772068806910F479
:101D7000407F204602D0FFF7CFFF04E000F001F9DA
:101D8000204600F0C1F92777280715D5300713D56D
:101D900021686FF008000861042020772068C0697E
:101DA0008007204602D0FFF7B7FF04E000F0E9F813
:101DB000204600F0A9F92777E80616D5F00614D5D5
:101DC00021686FF010000861082020772068C06942
:101DD00010F4407F204602D0FFF79EFF04E000F0A1
:101DE000D0F8204600F090F92777E80708D0F007F0
:101DF00006D021686FF001000861204600F0EAF982
:101E0000280608D5300606D521686FF080000861E5
:101E10002046FFF7D5FC680608D5700606D5216870
:101E20006FF040000861204600F0F2F9A8060AD5DC
:101E3000B00608D521686FF0200008612046BDE893
:101E4000F041FFF7BEBCBDE8F081000070B586B080
:101E5000044614216846FEF7FFF924682B48002247
:101E60002B490223032584420FD1086840F0040067
:101E700008600868694600F0040005904FF470702F
:101E80000090CDE9013223480DE0234E2348B442AF
:101E90000FD10C6844F002040C60096801F00201E3
:101EA000059181152DE0CDE90325FFF731F806B046
:101EB00070BD1B4EB44209D10C6844F002040C60A2
:101EC000096801F00201059171151AE0154E092506
:101ED0001548B44209D10C6844F001040C6009684B
:101EE00001F00101059140210BE0104EB442DED11A
:101EF0000C6844F001040C60096801F001010591CF
:101F000080210091CDE901326946CCE7000401400F
:101F10003038024000080240004401400004024002
:101F200000480140001C004000000240002000402A
:101F300070B5044690F83C00002501280FD0012020
:101F400084F83C006AB1042A0FD0082A11D00C2A68
:101F500013D00125002084F83C00284670BD0220E3
:101F600070BD206802F0ECF8F4E7206802F018F980
:101F7000F0E7206802F04AF9ECE7206802F07AF90D
:101F8000E8E7704710B5040003D094F83D0010B1A5
:101F900007E0012010BD002084F83C00204600F03E
:101FA0001EF8022084F83D00211D206802F03CF854
:101FB000012084F8460084F83E0084F83F0084F84D
:101FC000400084F8410084F8420084F8430084F81B
:101FD000440084F8450084F83D00002010BD70479F
:101FE00070B5044690F83C0000260D4601280FD03D
:101FF000012084F83C006AB1042A1DD0082A2FD0A1
:102000000C2A3FD00126002084F83C00304670BDE9
:10201000022070BD206802F093F82068816941F0C9
:10202000080181612068816921F0040181612068D3
:1020300081692A69114311E0206802F0B1F8206833
:10204000816941F4006181612068816921F48061C6
:102050008161206881692A6941EA02218161D2E7B0
:10206000206802F0D3F82068C16941F00801C1611D
:102070002068C16921F00401C1612068C1692A6931
:10208000114311E0206802F0F5F82068C16941F4BD
:102090000061C1612068C16921F48061C16120686B
:1020A000C1692A6941EA0221C161ACE710B50400A7
:1020B00003D094F83D0010B107E0012010BD0020CE
:1020C00084F83C00204600F01EF8022084F83D0011
:1020D000211D206801F0A8FF012084F8460084F843
:1020E0003E0084F83F0084F8400084F8410084F802
:1020F000420084F8430084F8440084F8450084F8E2
:102100003D00002010BD70477047000010B5044628
:10211000022249B104290ED0082913D094F84100B5
:10212000012816D0012010BD94F83E000128F9D1F5
:1021300084F83E200FE094F83F000128F2D184F8A3
:102140003F2008E094F840000128EBD184F84020BB
:1021500001E084F841200122206801F0D1FF1649F6
:102160002068164A884201D0904203D1436C43F460
:10217000004343642068884213D0B0F1804F10D0F0
:102180000F4988420DD00F4988420AD00E49884233
:1021900007D0904205D00D49884202D00C498842B0
:1021A00004D1816801F00701062903D0016841F0DC
:1021B00001010160002010BD000001400004014049
:1021C0000004004000080040000C004000400140B6
:1021D0000018004010B5044600680A49884208D13A
:1021E0000948018C29B1408C18B101F0BDFD01F006
:1021F00019FE06492068884203D1BDE8104002F06C
:10220000A5BD10BD00100040A40600200014004031
:10221000704738B5044690F84200202801D00220CB
:1022200038BD61B15AB101202063002060632046AF
:1022300002F02CFA0028F3D1216B012901D00120F2
:1022400038BD21680A684968009121680C3151E85D
:10225000002F42F0100241E80023002BF5D138BDD9
:10226000F0B5554E8FB0B04271D100296FD053A157
:102270005A48FDF7FCFF002810D1032258A1574807
:10228000FEF718F8554D574FA5F1280438B1032231
:1022900055A12846FEF70EF8002859D07AE0ED1C2B
:1022A00023212846FDF7F5FF002873D068460095E6
:1022B00002F0AEFE2082684602F0AAFE6082684606
:1022C00002F0A6FE2081684602F0A2FE6081684608
:1022D00002F09EFE2080684602F09AFE608068460A
:1022E00002F096FE2083684602F092FE6083684604
:1022F00002F08EFEA083684602F08AFEE083684604
:1023000002F086FEA082684602F082FEE082684605
:1023100002F07EFEA081684602F07AFEE081684607
:1023200002F076FEA080684602F072FEE080684609
:1023300002F06EFEA084684602F06AFEE08400208F
:102340002084608402F08EFB0120387022E030E0AF
:10235000ED1C23212846FDF79CFFD8B10DA80D9553
:1023600002F056FE20840DA802F052FE608403465F
:1023700002203870228C02B963B11CA1684602F0B9
:102380000FFA6846FDF78FFF82B2642369460A4858
:1023900000F0AEFAC8211148FDF75EFFC8220F49D0
:1023A0000548FFF736FFF06B0068016821F008016F
:1023B00001600FB0F0BD0000F0030020214D4F443C
:1023C000455F4348414E4745445F544F5F47524540
:1023D000454E5F4C4153455221000000CC06002081
:1023E00040524F0038000020404744005243565F9F
:1023F0004C415345523A25642C25640D0A000000D7
:1024000070470000F8B5016804460868CA684B695F
:1024100010F00F0F4FF0000559D003F0010602F441
:102420009077374365D0C10705D0D10503D5616CDE
:1024300041F001016164410705D5D90703D0616C02
:1024400041F002016164810705D5D90703D0616CB1
:1024500041F004016164010707D502F02001314316
:1024600003D0616C41F008016164616C00293AD0CD
:10247000800604D5900602D5204602F020F8206898
:102480004069616CC0F38010090700D460B3204636
:1024900001F0E0FF20684069400621D52068143033
:1024A00050E8001F21F0400140E80012002AF5D159
:1024B000E06BA8B16E490165E06BFEF792FB002866
:1024C00011D0E06B016D01B0BDE8F0400847830614
:1024D0000FD593060DD52046BDE8F84001F0EFBFBB
:1024E0002046FFF78DFFF8BD2046FFF789FF6564A2
:1024F000F8BD266B2023012E7DD1C6067BD5D606DE
:1025000079D508684868009048694FF0020640068F
:1025100041D5E16B086840680004000CE8D0A28D4A
:102520008242E5D9E085C869B0F5807F2DD020686A
:102530000C3050E8001F21F4807140E80012002A9E
:10254000F5D12068143050E8001F21F0010140E867
:102550000012002AF5D12068143050E8001F21F045
:10256000400140E80012002AF5D184F8423025638A
:1025700020680C3050E8001F21F0100140E80012E4
:10258000002AF5D1E06BFEF7E3FA6663A08DE18DDA
:10259000401A81B22AE0A08DE18D401A81B2E08D0F
:1025A0000028A5D00029A3D022680C3252E8000FE1
:1025B00020F4907042E80007002FF5D12068143015
:1025C00050E8002F22F0010240E80027002FF5D14B
:1025D00084F84230256320680C3050E8002F22F048
:1025E000100240E80023002BF5D166632046FFF778
:1025F00037FEF8BDFFE705062BD5150629D594F85B
:1026000041002128F5D1A068B0F5805F01D1206993
:10261000B0B1206A411C2162216800784860E08CDA
:10262000401E0004000CE084E3D12068C16821F062
:102630008001C1602068C16841F04001C160D8E7F5
:10264000206A0088C0F308004860206A801C20626D
:10265000E5E74006CDD55006CBD5CA68204622F026
:102660004002CA6084F8413000F0CEF9C1E70000B2
:102670000B43000870B5040004D094F84100002515
:1026800010B106E0012070BD84F84050204600F0F3
:1026900023F8242084F841002068C16821F4005107
:1026A000C160204601F06CFF2068016921F490416F
:1026B00001612068416921F02A0141612068C168F7
:1026C00041F40051C1606564202084F8410084F821
:1026D00042006563002070BD2DE9F04F87B00446CD
:1026E00014216846FDF7B8FD7548744E2768744993
:1026F00010380222032300254FF4406CB74217D153
:102700000C6844F400240C60096801F40021059170
:10271000016841F0040101600068CDF800C000F0DC
:10272000040005900820CDE9033069466548C0E003
:10273000DFF894810726DFF894E14FF0400B4FF06B
:1027400000694FF4806A474549D15D49091D0F680A
:1027500047F010070F60096801F01001059101684A
:1027600041F0010101600068694600F00100059038
:102770004FF4C0608DE82500CDE903367046FEF7C2
:10278000C7FB544E5248C8463060C6E90195C6E9B9
:10279000035A7561B561F561356257463046756219
:1027A000FEF702FB08B1FEF702F9E663B463494E97
:1027B000474860367830C6E903577561B561F56101
:1027C0003562756286E801093046FEF7EDFA08B118
:1027D000FEF7EDF8A663B46307B0BDE8F08FDFF84D
:1027E000F88047454CD10F6847F400370F600968FF
:1027F00001F400310591016841F0010101600068B8
:10280000694600F0010005900C208DE82500CDE917
:1028100003367046FEF77CFB2E4E3048C0364F46DE
:102820003060C6E90195C6E9035A7561B561F56185
:102830003562D04630467562FEF7B6FA08B1FEF74B
:10284000B6F8E663B463264E2448C6E903587561BA
:10285000B561F56135621830756286E881083046E9
:10286000FEF7A2FA08B1FEF7A2F8A663002211460D
:102870002620B463FEF7BCFC2620FEF7ABFCABE7DA
:10288000184CA742A8D10C6844F480240C60096855
:1028900001F480210591016841F0020101600068A6
:1028A000CDF800C000F00200CDE904600E48694692
:1028B0000393CDE90125FEF72BFB8DE7004C00408B
:1028C0004038024000080240001001400000024071
:1028D00040640240800400200044004088600240C0
:1028E000A0050020004800400004024070477047E7
:1028F0002DE9F843044690F84100984616460D46E7
:10290000202802D00220BDE8F88385B17EB10020E6
:102910006064212084F84100FEF7FCFBA684814618
:10292000E684A0682027B0F5805F02D003E0012094
:10293000E9E7206910B12E4600250EE000260CE0E4
:102940008021204601F0EAFEA8B9C6B116F8010BB5
:1029500021684860E08C401EE084E08C4B464FF0DC
:102960000002CDF800800028EAD14FF04001204657
:1029700001F0D4FE40B184F841700320C3E735F87C
:10298000020BC0F30800E3E784F841700020BAE7C7
:1029900070B5044690F84100202801D0022070BD97
:1029A00049B342B32162A284E284002060642123FF
:1029B00084F84130A56B114BEB63A56B104B2B6476
:1029C000A56B104BEB64A36B1865256813462A1D95
:1029D000A06BFEF753FA21686FF040000860206892
:1029E000143050E8001F41F0800140E80012002A36
:1029F000F5D1002070BD012070BD00000944000821
:102A00004B4400081B43000870477047FEE72DE960
:102A1000F0411C4615460E460746802800D37F2706
:102A2000802D00D37F25A02E00D39F26A02C00D37D
:102A30009F242A2000F09EFB002000F099FBF8B2B2
:102A400000F096FB002000F093FBE8B200F090FB52
:102A50002B2000F08FFB002000F08AFBF0B200F08A
:102A600087FB002000F084FBE0B200F081FBBDE8B2
:102A7000F0412C2000F07EBB2DE9FE4F161ACDE967
:102A800000104FF000085D1A47464FF0FF30002E4F
:102A900002DD4FF0010102E003D14FF000018B464F
:102AA00002E08346C6F10006002D02DD4FF0010072
:102AB00002E003D14FF00000824602E08246C5F1F9
:102AC0000005AE4201DD344600E02C46601C4FF0AC
:102AD0000009029019E000980C9A81B2019880B226
:102AE00000F018F8B0442F44A04504DD0198A8EB8D
:102AF000040858440190A74203DD00983F1B50444E
:102B0000009009F101001FFA80F902998945E2DB82
:102B1000BDE8FE8F10B514460B460246FFF777FF5F
:102B20002046BDE8104000F019BB2DE9F047804673
:102B30001F46581E83B21646501E82B20C464046AF
:102B4000DDF82090FFF763FF0AE0454604E04846C1
:102B500000F004FB6D1CADB2B542F8D3641CA4B206
:102B6000BC42F2D3BDE8F08710B586B014216846A8
:102B7000FDF772FB1948016841F00401016001682A
:102B800001F004010591016841F00801016000684D
:102B9000134C00F0080005900122BE212046FEF7EC
:102BA000B4FABE200121CDE900010220CDE90210D6
:102BB00069462046FEF7ACF9012210212046FEF7B7
:102BC000A4FA012220212046FEF79FFA012280214B
:102BD0002046FEF79AFA06B010BD000030380240D9
:102BE000000C024038B5FFF7BFFFC44D0122102191
:102BF0002846FEF78AFA012204212846FEF785FAC4
:102C0000002202212846FEF780FA002208212846E9
:102C1000FEF77BFA7820FEF769F9012208212846A1
:102C2000FEF773FA7820FEF761F9012000F0A2FAAE
:102C30009620FEF75BF9112000F09CFA9620FEF733
:102C400055F93A2000F096FA052000F0A7FAB120D5
:102C500000F090FA022000F0A1FA352000F09EFA70
:102C6000362000F09BFAB22000F084FA022000F037
:102C700095FA352000F092FA362000F08FFAB32052
:102C800000F078FA022000F089FA352000F086FA88
:102C9000362000F083FA022000F080FA352000F0A0
:102CA0007DFA362000F07AFAB42000F063FA0320AF
:102CB00000F074FAC02000F05DFAA22000F06EFA75
:102CC000022000F06BFA842000F068FAC12000F0C6
:102CD00051FAC52000F062FAC22000F04BFA0D2034
:102CE00000F05CFA002000F059FAC32000F042FA2C
:102CF0008D2000F053FA2A2000F050FAC42000F092
:102D000039FA8D2000F04AFAEE2000F047FAC5208B
:102D100000F030FA122000F041FAB02000F02AFA58
:102D2000002000F03BFA362000F024FAC82000F022
:102D300035FAE02000F01EFA042000F02FFA2220DD
:102D400000F02CFA072000F029FA0A2000F026FAF9
:102D50002E2000F023FA302000F020FA252000F089
:102D60001DFA2A2000F01AFA282000F017FA26206F
:102D700000F014FA2E2000F011FA3A2000F00EFABA
:102D8000002000F00BFA012000F008FA032000F008
:102D900005FA132000F002FAE12000F0EBF904201C
:102DA00000F0FCF9162000F0F9F9062000F0F6F921
:102DB0000D2000F0F3F92D2000F0F0F9262000F0AE
:102DC000EDF9232000F0EAF9272000F0E7F92720A9
:102DD00000F0E4F9252000F0E1F92D2000F0DEF903
:102DE0003B2000F0DBF9002000F0D8F9012000F0D2
:102DF000D5F9042000F0D2F9132000F0CFF92A20F1
:102E000000F0B8F9002000F0C9F9002000F0C6F980
:102E1000002000F0C3F97F2000F0C0F92B2000F063
:102E2000A9F9002000F0BAF9002000F0B7F900205D
:102E300000F0B4F99F2000F0B1F9362000F09AF9C3
:102E4000C82000F0ABF9212000F094F9292000F00F
:102E500091F91420FEF74AF82C2000F08BF94FF678
:102E6000FF740021A023802208460094FFF75DFE36
:102E70001420FEF73BF80021A0238022084600948E
:102E8000FFF753FE1420FEF731F80021A023802223
:102E900008460094FFF749FE1420FEF727F82C207F
:102EA00000F068F96420FEF721F80122022128468B
:102EB000FEF72BF92A2000F05DF9002000F06EF9F2
:102EC000002000F06BF9002000F068F97F2000F08E
:102ED00065F92B2000F04EF9002000F05FF900208A
:102EE00000F05CF9002000F059F99F2000F056F93D
:102EF000BDE838402C2000F03DB90000000C024035
:102F00002DE9FF4F81B00446DDF83C9000904FEA78
:102F100059074FF00008780700D0012000EBD700D8
:102F200000FB09FB203AD0B2039002980299484472
:102F3000401E83B2E019401E82B22046FFF767FDB3
:102F4000002553E0B9F10C0F2AD0B9F1100F2ED0A3
:102F5000B9F1180F2ED0B9F1200F49D127490398A4
:102F600001EB8010002610F805A0109800284FF003
:102F7000010000FA06F000EA0A0022D020B1204643
:102F8000049A0299FFF7C6FD641C0098A4B2201AA7
:102F9000B84225D10298009C401C80B2029023E0E8
:102FA0000398174900EB400001EB8000DAE7154970
:102FB000039803E00398144900EB400001EB001074
:102FC000D0E708B1049800E00E9800F0C7F808F1C7
:102FD0000100C0B2B0FBF7F1804607FB118050B191
:102FE000761CF6B2082EC0D36D1CADB25D45A9D3D8
:102FF00005B0BDE8F08F4FF00008F5E7406D000820
:103000000C51000880550008705B00082DE9FF4F47
:1030100083462DED020B83B0DFED210A139F154689
:1030200020EE200A7E080024A246BCEEC00A10EE64
:10303000100A1FFA80F92DE0281B401EC1B20A2099
:1030400001F084FFB9FBF0F00A21B0FBF1F201FBC3
:103050001208A81E84420ED1129A00FB06B08DE819
:10306000840480B22E22089B0699FFF749FF641C56
:103070006D1CE4B2EDB212988DE8810408F13000C5
:10308000C2B204FB06B080B2089B0699FFF738FF76
:10309000641CE4B2AC42CFD309B0BDE8F08F0000AD
:1030A0000000C8422DE9FF4F83B00026DDE911B8CA
:1030B0001D4682464FEA58073446B1462CE0281B8D
:1030C000401EC1B20A2001F041FF0599B1FBF0F0AA
:1030D0000A21B0FBF1F201FB120026B9691E8C42F5
:1030E00001DA58B101263030C2B204FB07A0CDF896
:1030F00000B0CDE9018980B2109B08E0CDF800B0A6
:1031000004FB07A0CDE90189109B80B2202204991D
:10311000FFF7F6FE641CE4B2AC42D0D307B0BDE8C2
:10312000F08F2DE9FE4F9946DDE90D6714468A467A
:103130000546DDF830800CE0CDF800804B46514666
:103140002846CDE90167FFF7DBFE05EB560085B2A7
:10315000641C2278002AEFD1BDE8FE8F10B504462A
:10316000000A00F01BF8E0B2BDE8104000F016B80D
:1031700000F014B870B5084C054600220421204622
:10318000FDF7C3FF284600F009F82046BDE870406F
:1031900001220421FDF7B9BF000C0240F8B5274E0B
:1031A0000746002210213046FDF7AFFF00252C46D0
:1031B000002220213046FDF7A8FF8DF8004004E0F2
:1031C0009DF80000401C8DF800009DF800000228CA
:1031D000F6D3380601D5012200E0002280213046D6
:1031E000FDF793FF8DF8004005E000BF9DF800005B
:1031F000401C8DF800009DF800000228F6D3012243
:1032000020213046FDF781FF8DF8004005E000BF2A
:103210009DF80000401C8DF800009DF80000022879
:10322000F6D378066D1C070EEDB2082DC0D33046DC
:10323000BDE8F84001221021FDF767BF000C0240F5
:103240002DE9FE4FFC4FFD4CDFF8F49338784FF634
:10325000FF764FF6E07B01287ED0BA4602287CD16B
:1032600000255A238022294628460095FFF75DFC59
:10327000CDF800B0D8466389228961882088FFF79D
:10328000FBFB608C01F0F2FE87B2208C01F0EEFEB9
:1032900080B242463946FFF73DFCA08C01F0E6FEC5
:1032A00087B2A08C01F0E2FE80B24BF64042394674
:1032B000FFF730FC1027CDE900573346E1A261212A
:1032C00039200295FFF72DFFE188608801F04FFB60
:1032D000CDE9006502460323612159200297FFF7DB
:1032E000E1FECDE900573346D8A27121392002957D
:1032F000FFF717FFA188208801F039FB39F820007B
:10330000CDE9006582B20323712159200297FFF7AE
:10331000C9FECDE900573346CEA290210120029587
:10332000FFF7FFFECC48CDE9006502970278012344
:1033300090211120FFF7B6FECDE900573346C7A212
:10334000902121200295FFF7ECFECDE90065029760
:1033500001239AF8002001E006E003E090213120EB
:10336000FFF7A0FEBDE8FE8F00215A238022084609
:103370000096FFF7DAFBA189208901F0F8FA4D46A3
:1033800059F8200001F072FE1FFA80F9A189208906
:1033900001F0EDFA01F06AFE1FFA80F8A18820889A
:1033A00001F0E5FA55F8200001F060FE85B2A18831
:1033B000208801F0DCFA01F059FE80B24B4642460B
:1033C0002946CDF800B0FFF757FBE18A608A01F08B
:1033D000CEFA01F04BFE85B2E18A608A01F0C7FAAD
:1033E000DFF87CA25AF8200001F040FE1FFA80F9B5
:1033F000E189608901F0BBFA01F038FE1FFA80F81C
:10340000E189608901F0B3FA5AF8200001F02EFE3C
:103410001F21009180B22B464A464146FFF72CFB04
:10342000A18B208B01F0A3FA8E4D55F8200001F0FE
:103430001DFE1FFA80FAA18B208B01F098FA01F093
:1034400015FE1FFA80F9A18A208A01F090FA55F83A
:10345000200001F00BFE1FFA80F8A18A208A01F0FB
:1034600086FA01F003FE002580B253464A464146E3
:103470000095FFF701FBE18B608B01F078FA01F01A
:10348000F5FD1FFA80FAE18B608B01F070FA764946
:1034900051F8200001F0EAFD1FFA80F9E188608808
:1034A00001F065FA01F0E2FD1FFA80F8E18860881A
:1034B00001F05DFA6C4951F8200001F0D7FD4FF49E
:1034C000FC61009180B253464A464146FFF7D4FA68
:1034D000608C01F0CBFD1FFA80F8208C01F0C6FD56
:1034E00080B25A464146FFF715FBE08C01F0BEFD65
:1034F0001FFA80F8A08C01F0B9FD80B24BF6404273
:103500004146FFF707FB1024CDE90054334657A28C
:10351000612101200295FFF704FEDFF85881CDE913
:10352000005498ED050A3346032261212120FFF75C
:103530006DFDCDE9005433464FA261214120029533
:10354000FFF7EFFDCDE9005498ED060A334603225C
:1035500061215920FFF75AFDCDE90054334647A2B7
:10356000712101200295FFF7DCFDCDE9005498EDB3
:10357000070A3346032271212120FFF747FDCDE9D9
:10358000005433463FA2712141200295FFF7C9FD47
:10359000DFF8F480CDE9005498ED050A33460322A4
:1035A00071215920FFF732FDCDE90054334637A28F
:1035B000812101200295FFF7B4FDCDE9005498ED7B
:1035C000060A3346032281212120FFF71FFDCDE9A2
:1035D000005433462FA2812141200295FFF7A1FD1F
:1035E000CDE9005498ED070A334603228121592082
:1035F000FFF70CFDCDE90054334616A290210120BF
:103600000295FFF78EFD00961348CDE9015402782C
:10361000012390211120FFF745FDCDE900543346E9
:103620000EA2902121200295FFF77BFD0096CDE9A7
:10363000015401233A788EE61C000020A4060020E5
:10364000940700204159313A000000004159323AB4
:10365000000000006D3A00001D000020703A0000DC
:1036600094160020140F0020941B00205331503A70
:10367000000000003C06002031493A005331443A32
:103680000000000032503A00700600205332493AE0
:103690000000000032443A00194808B5016841F4BE
:1036A00000110160016801F400110091016841F40A
:1036B000800101600068002200F480000090114643
:1036C0001020FDF795FD1020FDF784FD0022114626
:1036D0001120FDF78DFD1120FDF77CFD0022114624
:1036E0003A20FDF785FD3A20FDF774FD00221146D2
:1036F0004620FDF77DFDBDE808404620FDF76ABD88
:103700003038024070B586B014216846FCF7A4FD3D
:1037100027480024016841F010010160016801F0B0
:1037200010010591016841F001010160016801F09B
:1037300001010591016841F002010160016801F099
:1037400002010591016841F008010160016801F082
:1037500008010591016841F0040101600068154EFF
:1037600000F004000590002247F27C013046FDF78E
:10377000CCFC01250420CDE90005CDE902546946C1
:103780003046FDF7C5FB47F278000090CDE90154C3
:10379000694630460394FDF7BBFB4FF47040CDE91A
:1037A0000004694604480294FDF7B2FB06B070BD00
:1037B00030380240001002400004024010B588B0CA
:1037C0001C216846FCF748FD154814490024016097
:1037D000A721C0E9011444F61F61C0E90314846104
:1037E000FEF762F808B1FDF7E2F80D48FEF75EFC5F
:1037F00008B1FDF7DCF86020CDE900040294002256
:10380000694607480494FEF7EBFB08B1FDF7CFF8D3
:103810000348FEF71BFB08B010BD00000044014048
:103820004002002010B588B01C216846FCF714FD4A
:103830001548144900240160A721C0E9011444F689
:103840001F61C0E903148461FEF72EF808B1FDF78B
:10385000AEF80D48FEF72AFC08B1FDF7A8F8602085
:10386000CDE9000402940022694607480494FEF75B
:10387000B7FB08B1FDF79BF80348FEF7E7FA08B07D
:1038800010BD0000004801408802002010B588B03B
:103890001C216846FCF7E0FC15481449002401602F
:1038A000A721C0E9011444F61F61C0E90314846133
:1038B000FDF7FAFF08B1FDF77AF80D48FEF7F6FBC1
:1038C00008B1FDF774F86020CDE9000402940022ED
:1038D000694607480494FEF783FB08B1FDF767F8D3
:1038E0000348FEF7B3FA08B010BD0000001C00400A
:1038F000D002002010B588B01C216846FCF7ACFC53
:10390000144813490024C0E900144FF6FF71C0E9C0
:10391000024104618461FDF7C7FF08B1FDF747F874
:103920000C48FEF7C3FB08B1FDF741F86020CDE974
:10393000000402940022694606480494FEF750FBF6
:1039400008B1FDF734F80348FEF780FA08B010BD5F
:10395000002000401803002010B58CB024216846D8
:10396000FCF77AFC00241648099414490A94C0E92B
:1039700000144FF6FF71C0E90241046144618461A3
:103980000120CDE90004CDE902040494CDE905400D
:10399000079469460A480894FEF7D6F808B1FDF77F
:1039A00006F8099409A906480A94FDF735FF00288E
:1039B00001D0FCF7FCFF0CB010BD0000000001407E
:1039C0004800002010B58CB024216846FCF744FC68
:1039D0000024144809944FF080410A94C0E900146F
:1039E000611EC0E90241046184610120CDE9000447
:1039F000CDE902040494CDE90540079469460948DD
:103A00000894FEF7A1F808B1FCF7D1FF099409A9C1
:103A100004480A94FDF700FF002801D0FCF7C7FF17
:103A20000CB010BD9000002010B58CB02421684669
:103A3000FCF712FC00241548099413490A94C0E9C4
:103A400000144FF6FF71C0E9024104618461012056
:103A5000CDE90004CDE902040494CDE905400794C2
:103A600069460A480894FEF76FF808B1FCF79FFF13
:103A7000099409A905480A94FDF7CEFE002801D053
:103A8000FCF795FF0CB010BD00040040D8000020EA
:103A900010B58CB024216846FCF7DEFB00241548E5
:103AA000099413490A94C0E900144FF6FF71C0E964
:103AB0000241046184610120CDE90004CDE90204E2
:103AC0000494CDE90540079469460A480894FEF736
:103AD0003BF808B1FCF76BFF099409A905480A9463
:103AE000FDF79AFE002801D0FCF761FF0CB010BD75
:103AF00000080040200100201CB500240E4800945E
:103B00000C4901940160A721C0E9011444F61F612A
:103B10008461C160FDF7C8FE08B1FCF748FF00945E
:103B2000694605480194FDF777FE002801D0FCF7AF
:103B30003EFF1CBD00100040680100201CB50024A1
:103B40000E4800940C4901940160A721C0E90114BA
:103B500042F20F718461C160FDF7A6FE08B1FCF767
:103B600026FF0094694605480194FDF755FE00289C
:103B700001D0FCF71CFF1CBD00140040B001002068
:103B800010B596B000240F941094119412941394CD
:103B90001C2168461494FCF75FFB202107A8FCF762
:103BA0005BFB37483549C0E900144FF6FF71C0E9A7
:103BB0000241046144618461FDF776FE08B1FCF7BF
:103BC000F6FE4FF480500F900FA92D48FDF74EFFE1
:103BD00008B1FCF7ECFE2A48FEF768FA08B1FCF7DA
:103BE000E6FE2748FEF7CEF908B1FCF7E0FE139495
:103BF00013A923481494FDF70FFE08B1FCF7D7FE74
:103C00006020CDE9000402940394049405940022FA
:103C100069461B480694FEF7E3F908B1FCF7C7FEB6
:103C20000422694616480094FEF782F908B1FCF7B1
:103C3000BEFE082269461248FEF77AF908B1FCF781
:103C4000B6FE0C2269460E48FEF772F908B1FCF781
:103C5000AEFE0794089409944FF400500A94CDE9FD
:103C60000B4007A906480E94FDF7ACFD08B1FCF720
:103C70009EFE0348FEF7EAF816B010BD00040140AE
:103C8000F80100200C4810B50A4901604FF4E131F9
:103C90004160002181600C22C160C0E90412816191
:103CA000C161FEF7E7FC002803D0BDE81040FCF737
:103CB0007EBE10BD004C0040600300200C4810B5D3
:103CC0000A4901604FF4E1314160002181600C221A
:103CD000C160C0E904128161C161FEF7CBFC00281C
:103CE00003D0BDE81040FCF762BE10BD00100140DB
:103CF000A80300200C4810B50A4901604FF4E131D7
:103D00004160002181600C22C160C0E90412816120
:103D1000C161FEF7AFFC002803D0BDE81040FCF7FE
:103D200046BE10BD00440040F00300200C4810B512
:103D30000A4901604FF4E1314160002181600C22A9
:103D4000C160C0E904128161C161FEF793FC0028E3
:103D500003D0BDE81040FCF72ABE10BD004800406B
:103D600038040020FEE7FEE7294810B50088294CFA
:103D700000EE100A2848A2B0B8EE400A84ED000A0E
:103D8000008C00EE100A2046B8EE400A84ED010ACD
:103D900001F0E4F83D2221490FA8FCF744FA1F483E
:103DA00010F83D1F8DF8791041788DF87A108178E0
:103DB0008DF87B10C1788DF87C1001798DF87D101D
:103DC00041798DF87E1081798DF87F10C1798DF859
:103DD0008010017A8DF88110407A8DF8820094ED80
:103DE0000B0ADFED0F0A382213A930EEC00ABCEE31
:103DF000C00A10EE100A80B20E906846FCF713FA63
:103E00000FAC94E80F0001F057F922B010BD00008C
:103E10003E0000203C060020A406002040020020B6
:103E200000C0A844294810B50088294C00EE100AAB
:103E30002848A2B0B8EE400A84ED000A408C00EE9B
:103E4000100A2046B8EE400A84ED010A01F086F817
:103E50003D2221490FA8FCF7E6F91F4810F83D1F45
:103E60008DF8791041788DF87A1081788DF87B1073
:103E7000C1788DF87C1001798DF87D1041798DF82D
:103E80007E1081798DF87F10C1798DF88010017ACC
:103E90008DF88110407A8DF8820094ED0B0ADFEDE9
:103EA0000F0A382213A930EEC00ABCEEC00A10EE89
:103EB000100A80B20E906846FCF7B5F90FAC94E892
:103EC0000F0001F0F9F822B010BD00004000002002
:103ED00070060020A4060020880200200080D44440
:103EE0007047704770B5FDF71BF91C48012400228C
:103EF000018839B94188491C89B24180142911D3FC
:103F000042800480164B17491D78D5B104884CB106
:103F100045B102800C88241FA4B20C80B4F5FA7F4E
:103F200000D81A7010490978002915D08188491CD9
:103F300089B28180C8290FD38280BDE8704000F02B
:103F400089BD02800D882D1DADB20D8040F6C411D3
:103F50008D42E7D31C70E5E770BD0000040000202F
:103F600002000020000000203B00002030B593B08C
:103F700030216846FCF770F914210CA8FCF76CF9A5
:103F80001D480025016841F080510160006800F083
:103F9000805011901948016841F480410160006827
:103FA000022400F48040119001200390102004901E
:103FB000009406940820CDE90750A820CDE9090413
:103FC00004200B906846FDF731FA08B172B6FEE79F
:103FD0000CA90F2081E831004FF4A0500F904FF44E
:103FE0008050109005210CA8FDF734F9002801D06D
:103FF00072B6FEE713B030BD40380240007000409A
:104000000248016841F470010160704788ED00E0EA
:104010000148FDF782BE0000680100200148FDF75D
:104020007CBE0000B0010020F0B50268294C2A4D8A
:104030002A4E2B4F2B4B4FF0804CA04209D06045AD
:1040400007D0A84205D0B04203D0B84201D0984270
:1040500004D122F0700E4A6842EA0E02A0421BD040
:10406000604519D0A84217D0B04215D0B84213D03D
:10407000984211D01C4DA8420ED01C4DA8420BD026
:104080001B4DA84208D01B4DA84205D01A4DA8428E
:1040900002D01A4DA84203D122F44075CA682A43BF
:1040A0004D6922F080022A4302608A68C2620A686F
:1040B0008262A04201D0984201D1096901630121C5
:1040C00041610169C90703D0016921F00101016162
:1040D000F0BD000000000140000400400008004066
:1040E000000C004000040140004001400044014039
:1040F0000048014000180040001C00400020004023
:1041000010B501F01F030121046A99408C43046239
:10411000016A9A401143016210BD10B5846842EAF9
:10412000032224F47F440A432243826010BD826844
:1041300022F070020A4342F00701816070470000DC
:10414000F0B5036A026A22F00102026242688469E1
:10415000124E24F073050C682C4323F002058B6883
:104160002B430D4DA84201D0B04205D123F00807E2
:10417000CB683B4323F00403A84201D0B04205D1F1
:104180004D6922F4407215438A692A434260846172
:10419000496841630362F0BD000001400004014032
:1041A000F0B5026A036A23F010030362436884696E
:1041B0000D6824F4E64444EA05248D6822F02002C8
:1041C00042EA05120F4D104EA84201D0B04206D16E
:1041D000CF6822F0800242EA071222F04002A84291
:1041E00001D0B04207D14D6923F4406343EA85030F
:1041F0008D6943EA85034360846149688163026293
:10420000F0BD00000000014000040140F0B5026A6A
:10421000036A23F4807303624368C46922F4007262
:1042200024F073050C68124E2C438D6842EA052277
:104230000E4DA84201D0B04206D1CF6822F40062F0
:1042400042EA072222F48062A84201D0B04207D19C
:104250004D6923F4405343EA05138D6943EA05137E
:104260004360C4614968C1630262F0BD000001405F
:104270000004014030B5046A026A22F480520262EE
:104280004268C3690D6823F4E64343EA05238D6859
:1042900024F4005444EA0534084DA84202D0084DE5
:1042A000A84204D14D6922F4804242EA851242605C
:1042B000C36149680164046230BD00000000014030
:1042C0000004014010B5036A046A24F0010404628A
:1042D000846924F0F00444EA021423F00A020A4339
:1042E0008461026210BD10B5036A046A24F01004F0
:1042F0000462846923F0A00324F4704444EA023287
:1043000043EA01118261016210BD10B5806B00218A
:10431000C185C184FEF774F810BD70B5846B206848
:10432000406994F84110C0F3C0100025212904D140
:1043300018B1E584204600F0B4F82068406994F88C
:104340004210C0F38010222904D118B1E58520461F
:1043500000F080F8606C40F0100060642046FEF7CA
:104360004FF870BD10B50146806B096809684FF0C1
:104370000002C9052ED4C28501680C3151E8003F06
:1043800023F4807341E80034002CF5D10168143126
:1043900051E8003F23F0010341E80034002CF5D13F
:1043A0000168143151E8003F23F0400341E8003434
:1043B000002CF5D1202180F84210016B012909D190
:1043C00001680C3151E8003F23F0100341E800344C
:1043D000002CF5D14263016B012902D0FEF786FA69
:1043E00010BD818DFDF73CFF10BD10B5806B012124
:1043F0004163016B012902D0FEF779FA10BD818D6E
:104400004908FDF72DFF10BD10B50146806B096806
:104410000968C90516D40021C1840168143151E826
:10442000002F22F0800241E80023002BF5D1016823
:104430000C3151E8002F42F0400241E80023002BEC
:10444000F5D110BDFEF7E0FA10BD10B5806BFEF798
:10445000DCFA10BD01680C3151E8002F22F4907293
:1044600041E80023002BF5D10168143151E8002FF9
:1044700022F0010241E80023002BF5D1016B012954
:1044800009D101680C3151E8002F22F0100241E8F7
:104490000023002BF5D1202180F842100021016378
:1044A000704701680C3151E8002F22F0C00241E84A
:1044B0000023002BF5D1202180F84110704708B56A
:1044C00090F84210222901D0022008BD82684FF4E2
:1044D00080539A4201D1016921B1816A9A421BD06D
:1044E0004AB10AE00268816A5268C2F308020A808F
:1044F000816A891C08E0026972B10268526802F0A0
:104500007F020A70816A491C8162C18D491E0904BB
:10451000090CC18503D01BE002685268F1E701680D
:10452000CA6822F02002CA600168CA6822F4807258
:10453000CA6001684A6922F001024A61202180F8BC
:10454000421000214163026B012A03D0FEF7CEF92D
:10455000002008BD016301680C3151E8002F22F0F2
:10456000100241E80023002BF5D101680A68D20649
:1045700002D50A6849680091818DFDF771FEE7E771
:1045800070B5044600680169E26821F440511143A6
:1045900001612169A068E269084361691143084328
:1045A0002168CA6849F20C639A430243CA602068D2
:1045B0004169A26921F44071114341613149206888
:1045C000884202D03049884202D1FCF7EDFE01E07A
:1045D000FCF7DAFEE2690023192164253226B2F5E0
:1045E000004F626828D0A0FB0101930F9200FBF7F7
:1045F000E9FD0146B0FBF5F06FF01802504301EB06
:10460000800006EB0010B0FBF5F000F0F002B1FB0B
:10461000F5F002EB0012B1FBF5F06FF01803584310
:1046200001EB800006EB0010B0FBF5F000F00F008E
:1046300021681044886070BDA0FB010192185B41A5
:10464000FBF7C0FD0146B0FBF5F00201B1FBF5F050
:104650006FF01803584301EB800006EBC000B0FB7D
:10466000F5F000F0F80002EB4002B1FBF5F0584322
:1046700001EB800006EBC000B0FBF5F000F0070096
:10468000D6E70000001001400014014038B58162F7
:1046900004468285002013466064222284F842206A
:1046A000E56B1B4AEA63E56B1A4A2A64E56B1A4A12
:1046B000EA64E26B10650A462168E06B091DFCF7AD
:1046C000DDFB2068016840680090206948B12068DF
:1046D0000C3050E8001F41F4807140E80012002ABD
:1046E000F5D12068143050E8001F41F0010140E886
:1046F0000012002AF5D12068143050E8001F41F064
:10470000400140E80012002AF5D1002038BD000029
:1047100065430008EB4300081B4300082DE9F843FC
:10472000984617460D460446089E24E0701C22D089
:10473000FCF7F0FCA0EB0800B0421AD8CEB120681C
:10474000C168490717D5802D15D0402D13D00168B9
:10475000C94309070FD4016800254068009020462E
:10476000FFF778FE0820606484F840500120BDE81F
:10477000F8830320FBE72068006835EA000004D0D6
:104780000020B842D2D00020F1E70120F9E7000074
:104790000148FDF737BE0000F0030020FEE70000EF
:1047A0000FB4084B10B504A902AA039800F030F822
:1047B000044602A9002000F0D5F8204610BC5DF8A0
:1047C00014FB0000654900080907090E002804DBF6
:1047D00000F1E02080F80014704700F00F0000F1B5
:1047E000E02080F8141D7047004870474400002006
:1047F00002E008C8121F08C1002AFAD170477047AA
:10480000002001E001C1121F002AFBD17047000007
:104810002DE9FF4F89B09B460446002506E0252878
:104820000BD05A460B999047641C6D1C20780028C9
:10483000F5D10DB02846BDE8F08F0027B84601221B
:10484000474900E0074314F8013F203B02FA03F018
:104850000842F7D120782E2819D114F8010F47F01B
:1048600004072A280ED06FF02F022078A0F1300123
:1048700009290CD808EB880102EB410100EB010883
:10488000641CF2E70A98641C50F8048B0A902078A4
:104890000028CED0642808D0692806D075281ED0FC
:1048A0005A460B9990476D1C58E00A994FF00A0937
:1048B00001C90A91002802DA40422D2102E039059F
:1048C00004D52B218DF82010012103E0F90704D035
:1048D0002021F7E78A4608AE0DE00021FAE70A99A1
:1048E0004FF00A0901C90A91F7E74946FBF7FFFDB6
:1048F000303106F8011D0028F7D1ADEB060000F1BC
:104900002009780701D44FF00108C84502DDA8EB63
:10491000090000E000208046002706E008A85A466B
:10492000C05D0B9990476D1C7F1C5745F6DB04E07A
:1049300030205A460B9990476D1CB8F10001A8F140
:104940000108F5DC05E016F8010B5A460B99904773
:104950006D1CB9F10001A9F10109F4DC641C65E7E3
:10496000092801000A68531C0B6010707047084446
:104970004008704710B5C8210B48FBF76DFC0A488A
:1049800028212838FBF768FC08490020C822087055
:1049900005490748FDF73DFC0548C06B0068016804
:1049A00021F00801016010BDCC0600203800002075
:1049B000F0030020064810B581880088FFF7D7FF74
:1049C0000449054A888032F82000C88010BD0000E4
:1049D000A40600203A0000209407002070B50F4C78
:1049E000104DA0886188084480B200EE100AA080B3
:1049F0000B48B8EE400A80ED000AA9892889FFF724
:104A0000B6FFA188884208D8A9892889FFF7AFFF97
:104A1000A080012020700020607070BD3A0000204E
:104A20003C060020A4060020084907488A8830F880
:104A3000220080B200EE100AC8800548B8EE400A95
:104A400080ED000A70470000940700203A00002023
:104A50007006002010B5FFF7C1FFBDE81040FFF75A
:104A6000E3BF000003480449828C8A80C08CC88060
:104A700070470000A40600203A0000202DE9F05FF6
:104A80009F4C9C4EDFF874E200252DED048B4FF017
:104A9000010B96F80080984F94F8009094F804C0A9
:104AA0006379A27AE07BBEF800A0BEF80410B8F1EA
:104AB000010F16D0B8F1020F0FD1B9F1010F7BD061
:104AC000BCF1010F79D0012B78D0012A77D00128D1
:104AD00003D1E573FFF76EFF3D70BDEC048BBDE8BD
:104AE000F09FB9F1010F24D0BCF1010F38D0012B98
:104AF0003AD09FED848B9FED859BDFF81882DFF81D
:104B00001892DFF818A2DFF818B2012A42D0012863
:104B1000E3D1E5733D707078012872D0022871D01E
:104B2000032870D004286FD005286ED006286DD0D9
:104B300082E073487BA12838FFF732FE704828389E
:104B4000FBF7B1FB6E4982B228397748FDF720FFA9
:104B500025707648BDEC048BBDE8F05FFCF746BFDE
:104B6000257102203070B8E765715C4687F800B0A7
:104B70005046FFF7FCFE6E4908806E4931F8200070
:104B80006D4908807078401CC0B270700628A4D9A6
:104B90007470A2E7A572FFF765FF3D707078012879
:104BA0000ED0022815D0032815D004281ED00528C1
:104BB0001ED006282BD03FE075E085E088E095E028
:104BC000D8F80000FBF764FC53EC182BFBF7B9FB9B
:104BD0002EE04C460DE054461AE000BF51EC100B9D
:104BE000FBF7AFFBFBF767FC206025E05C460FE0BE
:104BF000524C2068FBF74CFC41EC100B53EC192B8A
:104C0000ECE70DE032E033E039E03AE042E04C4CD2
:104C10002068FBF73DFC41EC100B53EC182BDDE753
:104C2000D8F80000FBF734FC53EC182BFBF72AFCF8
:104C3000FBF741FCC8F800009AED001AD9ED000A14
:104C400098ED000A00213F4800F0DDF93C489BED5B
:104C5000000A002190ED001A3848D0ED000A3A48C9
:104C6000BDEC048BBDE8F05F00F0CDB94C4609E027
:104C7000544610E051EC100BFBF704FCB2E75C4625
:104C800009E02E4C2068FBF703FC41EC100B53ECC1
:104C9000192BEFE72A4C2068FBF7FAFB41EC100BCD
:104CA00053EC182BE6E716481EA11438FFF778FDE1
:104CB00013481438FBF7F7FA114982B214391A482D
:104CC000FDF766FE257008E7257186F800B004E759
:104CD000657187F800B05046FFF749FE1449088017
:104CE000144931F8200014490880F6E6A572FFF750
:104CF000B9FEF1E61C0000203B000020A4060020C5
:104D0000280600209A9999999999B93F7B14AE4742
:104D1000E17A843F200000202400002028000020A9
:104D20002C00002061610000F003002068010020D9
:104D30003E000020940700204000002030000020AA
:104D4000340000203C0600207006002070B5254D80
:104D50004FF480512846FCF7D3F9234C4FF400510F
:104D6000A0702846FCF7CCF9E0714FF4804128464A
:104D7000FCF7C6F920734FF400412846FCF7C0F950
:104D8000002160740A46012301EB81063019457841
:104D900025B1012D0CD0022D12D001E0857825B16E
:104DA000491CC9B20329EFD970BD4370C27070BDF0
:104DB00001EB81012144897889B90221417070BDDC
:104DC00001EB8101214489780029C17803D032297F
:104DD00004D3037103E0491CC17070BDA355427038
:104DE00070BD000000040240280600200148FCF7C6
:104DF000FDBD0000B001002008B5FCF799F9FFF7F0
:104E0000B5F8FEF77FFCFEF747FCFEF7A5FDFEF7C1
:104E1000D9FDFEF709FEFEF73BFEFEF7B1FEFEF7F9
:104E2000CDFCFEF7FFFCFEF731FDFEF747FFFEF776
:104E300061FFFEF77BFFFEF725FFFEF75BFDFEF748
:104E40007DFEFEF759FEFBF7A1FC3B4CDFF8EC8042
:104E5000DFF8EC90DFF8ECA0DFF8ECB0E1896089D6
:104E6000FFF785FD0746A1892089FFF780FD0646EB
:104E7000E1886088FFF77BFD0546A1882088FFF761
:104E800076FD3B4632462946CDF80080FBF792FD81
:104E9000E18A608AFFF76BFD0746A18A208AFFF747
:104EA00066FD0646E1896089FFF761FD0546A18937
:104EB0002089FFF75CFD3B4632462946CDF800903D
:104EC000FBF7E0FDE18A608AFFF751FD0746A18A02
:104ED000208AFFF74CFD0646E18B608BFFF747FD0C
:104EE0000546A18B208BFFF742FD3B463246294603
:104EF000CDF800A0FBF75EFDE18B608BFFF737FD7F
:104F00000746A18B208BFFF732FD0646E1886088BB
:104F1000FFF72DFD0546A1882088FFF728FD3B46B9
:104F200032462946CDF800B0FBF7ACFDFEF788F914
:104F3000FFF7A4FD92E70000A406002094070020DC
:104F400094160020140F0020941B0020024601201C
:104F500000E05043491EC9B2FBD2704790EC020AF0
:104F600030EE600A80ED020A016BD0ED030A0129E0
:104F700001D039B342E030EE601AD0ED051AF0EE00
:104F8000002A21EE212A80ED082A90ED061A61EE12
:104F9000001AB0EE401A00EEE21AC0ED0A1AD0ED87
:104FA000042A72EE211A31EE221AD0ED072A21EEE0
:104FB000221A80ED091A31EE811AD0ED0B1A31EE6A
:104FC000211A19E090ED051A61EE001AC0ED081AD9
:104FD00090ED0A1A90ED062A02EE001A30EE602AD1
:104FE00080ED0A1AD0ED072A31EE811A22EE222A2C
:104FF00080ED092A31EE021A80ED0B1AC0ED040A89
:1050000080ED030A70470163143080EC030A704797
:1050100038B50446006801E0401C2060017829B1E1
:10502000A1F130020A2A01D32D29F5D10A226946BD
:10503000FBF74FF9226800998A4204D0002802DB6E
:10504000B0F5803F08DB08782C2801D0232800D158
:10505000491C0020216038BD21600A782C2A01D02B
:10506000232A01D1491C216080B238BD002801DC0F
:1050700000207047B0F5F07F01DB8020704700EE24
:10508000100A9FED061AF8EEC00AB6EE000A00EE0E
:10509000810ABDEEC00A10EE100A70478988883E6A
:1050A0000FB4002110B502A8149CFDF72FF8029848
:1050B000446310BC5DF814FB0FB44FF448711298B0
:1050C000884203D940F69801884200D308460099E7
:1050D000486304B070470000C82202490248FDF747
:1050E00098B80000CC060020F0030020000610163F
:1050F000000610160000000000000000010203047A
:105100000607080900000000010203040000000077
:10511000000000000000000000000404040404007B
:105120000004000014140A00000000000000000049
:1051300000000A0A1F0A0A1F0A0A000000040E15CE
:1051400005060C14150E0400000012150D152E2C6A
:105150002A1200000000040A0A361515291600005C
:105160000202010000000000000000001008080416
:1051700004040404080810000204040808080808CD
:105180000404020000000004150E0E1504000000C7
:1051900000000008083E08080000000000000000B1
:1051A000000000000202010000000000003F0000BB
:1051B00000000000000000000000000000020000ED
:1051C00000201010080804040202010000000E1163
:1051D00011111111110E0000000004060404040452
:1051E000040E000000000E1111080402011F00004F
:1051F00000000E11100C1010110E00000000080C21
:105200000C0A091F081C000000001F01010F1110EB
:10521000110E000000000C12010D1311110E000000
:1052200000001E10080804040404000000000E1111
:10523000110E1111110E000000000E11111916109F
:105240000906000000000000040000000004000047
:10525000000000000004000000040400000010082A
:105260000402020408100000000000003F003F009C
:1052700000000000000002040810100804020000F2
:1052800000000E11110804040004000000001C229C
:10529000292D2D1D221C0000000004040C0A0A1EEA
:1052A0001233000000000F12120E1212120F000033
:1052B00000001E1101010101110E000000000F127B
:1052C00012121212120F000000001F120A0E0A0220
:1052D000121F000000001F120A0E0A02020700003F
:1052E00000001C1201013911120C000000003312E1
:1052F000121E12121233000000001F0404040404E2
:10530000041F000000003E080808080808080907F4
:10531000000037120A060A121237000000000702C6
:1053200002020202223F000000003B1B1B1B15155E
:105330001535000000003B1216161A1A121700004D
:1053400000000E1111111111110E000000000F12BA
:10535000120E02020207000000000E1111111117B7
:10536000190E180000000F12120E0A121237000058
:1053700000001E1101060810110F000000001F158B
:1053800004040404040E000000003312121212126E
:10539000120C000000003312120A0A0C0404000070
:1053A0000000151515150E0A0A0A000000001B0A58
:1053B0000A04040A0A1B000000001B0A0A0A04046B
:1053C000040E000000001F0908040402121F000060
:1053D0001C0404040404040404041C000002020469
:1053E00004040808081010000E0808080808080837
:1053F00008080E00040A0000000000000000000081
:1054000000000000000000000000003F0204000057
:10541000000000000000000000000000000C121C52
:10542000123C000000030202020E1212120E0000D3
:1054300000000000001C1202120C000000181010E6
:10544000101C1212123C000000000000000C121E82
:10545000021C000000182404041E0404041E0000A2
:1054600000000000003C120C021C221C000302027F
:10547000020E121212370000000404000006040499
:10548000040E000000080800000C080808080807BF
:1054900000030202021A0A060A13000000070404AD
:1054A00004040404041F000000000000000F151590
:1054B0001515000000000000000F12121237000046
:1054C00000000000000C1212120C0000000000008E
:1054D000000F1212120E020700000000001C121230
:1054E000121C103800000000001B0602020700001A
:1054F00000000000001E020C101E0000000000044E
:10550000041E0404041C000000000000001B121212
:10551000123C000000000000001B0A0A0404000006
:10552000000000000015150E0A0A0000000000002F
:10553000001B0A040A1B00000000000000331212C6
:105540000C08040300000000001E0804041E0000F4
:1055500018080808080C08080808180008080808AF
:1055600008080808080808080604040404080404D5
:1055700004040600160900000000000000000000FE
:10558000000000000000000000000000000000001B
:1055900000000008080808080808000018180000A3
:1055A00000486C2412000000000000000000000011
:1055B0000000002424247F1212127F121212000015
:1055C0000000081C2A2A0A0C1828282A2A1C080865
:1055D00000000022251515152A58545454220000A5
:1055E0000000000C1212120A76252911916E00009B
:1055F0000006060403000000000000000000000098
:10560000004020101008080808080810102040006A
:1056100000020408081010101010100808040200FE
:105620000000000008086B1C1C6B0808000000004C
:1056300000000000080808087F08080808000000AB
:105640000000000000000000000000000606040347
:105650000000000000000000FE000000000000004C
:10566000000000000000000000000000060600002E
:1056700000008040402020101008080404020200AE
:1056800000000018244242424242424224180000D4
:10569000000000080E08080808080808083E000076
:1056A0000000003C4242422020100804427E0000DC
:1056B0000000003C4242201820404042221C0000D2
:1056C000000000203028242422227E2020780000A0
:1056D0000000007E0202021A26404042221C000006
:1056E000000000382402021A264242422418000018
:1056F0000000007E22221010080808080808000098
:105700000000003C4242422418244242423C000035
:10571000000000182442424264584040241C00000B
:105720000000000000001818000000001818000019
:10573000000000000000000800000000000808044D
:10574000000000402010080402040810204000005F
:105750000000000000007F0000007F00000000004B
:10576000000000020408102040201008040200007D
:105770000000003C42424640201010001818000073
:105780000000001C225A555555552D42221C000080
:105790000000000808181414243C224242E70000CC
:1057A0000000001F2222221E22424242221F00002D
:1057B0000000007C4242010101010142221C000064
:1057C0000000001F2242424242424242221F000089
:1057D0000000003F4212121E12120242423F00001D
:1057E0000000003F4212121E1212020202070000C5
:1057F0000000003C2222010101712122221C000034
:10580000000000E7424242427E42424242E700003C
:105810000000003E0808080808080808083E0000C4
:105820000000007C10101010101010101010110F3C
:105830000000007722120A0E0A12122222770000BC
:10584000000000070202020202020202427F000080
:1058500000000077363636362A2A2A2A2A6B0000BC
:10586000000000E346464A4A525252626247000034
:105870000000001C2241414141414141221C0000E5
:105880000000003F424242423E0202020207000084
:105890000000001C2241414141414D53321C600037
:1058A0000000003F4242423E1212222242C7000044
:1058B0000000007C4242020418204042423E0000A8
:1058C0000000007F4908080808080808081C0000B4
:1058D000000000E74242424242424242423C000053
:1058E000000000E742422224241414180808000093
:1058F0000000006B494949495555362222220000D3
:10590000000000E7422424181818242442E700006D
:10591000000000772222141408080808081C000060
:105920000000007E2120101008040442423F0000C5
:105930000078080808080808080808080808780017
:105940000000020204040808081010202020404033
:10595000001E1010101010101010101010101E004B
:1059600000384400000000000000000000000000BB
:10597000000000000000000000000000000000FF28
:105980000006080000000000000000000000000009
:10599000000000000000003C4278444242FC00004D
:1059A000000000030202021A26424242261A0000A8
:1059B00000000000000000384402020244380000E9
:1059C00000000060404040784442424264D80000F9
:1059D000000000000000003C427E0202423C000049
:1059E000000000F08808087E08080808083E00004B
:1059F000000000000000007C22221C023C42423CCD
:105A0000000000030202023A4642424242E700001E
:105A10000000000C0C00000E08080808083E0000FA
:105A20000000003030000038202020202020221EDE
:105A30000000000302020272120A1612227700000E
:105A40000000000E0808080808080808083E0000C2
:105A5000000000000000007F9292929292B7000036
:105A6000000000000000003B4642424242E70000C6
:105A7000000000000000003C42424242423C000064
:105A8000000000000000001B26424242221E0207C6
:105A9000000000000000007844424242447840E0A8
:105AA00000000000000000774C040404041F000004
:105AB000000000000000007C42023C40423E00002A
:105AC000000000000008083E080808080830000030
:105AD00000000000000000634242424262DC00001D
