:020000040800F2
:10000000B8340020A1010008B3400008592D0008B1
:10001000B140000891080008E94A0008000000000B
:100020000000000000000000000000002F42000857
:1000300069090008000000002D4200083142000854
:10004000BB010008BB010008BB010008BB010008A0
:10005000BB010008BB010008BB010008BB01000890
:10006000BB010008BB010008BB010008BB01000880
:10007000BB010008BB010008BB010008BB01000870
:1000800095080008A1080008BB010008BB01000892
:10009000BB010008BB010008BB010008BB01000850
:1000A000BB010008BB010008BB010008BB01000840
:1000B000BB010008BB010008BB010008BB01000830
:1000C000BB010008BB010008BB010008BB01000820
:1000D000BB010008BB010008DD4A0008BB010008A5
:1000E000BB010008BB010008BB010008BB01000800
:1000F000BB010008BB010008BB010008BB010008F0
:10010000BB010008BB010008BB010008BB010008DF
:10011000BB010008BB0100085D43000869430008FB
:10012000BB010008BB010008AD080008BB010008C6
:10013000BB010008BB010008BB010008BB010008AF
:10014000BB010008BB010008BB010008BB0100089F
:10015000BB010008BB010008B9080008BB0100088A
:10016000BB010008BB010008BB010008BB0100087F
:10017000BB010008BB010008BB0100080000000033
:10018000BB010008BB010008DFF810D000F0DEFA68
:1001900000480047CD520008AFF30080B83400207B
:1001A0000648804706480047FEE7FEE7FEE7FEE711
:1001B000FEE7FEE7FEE7FEE7FEE7FEE74D43000849
:1001C000890100082DE9F05F0546002092469B4614
:1001D00088460646814640241BE02846414647465D
:1001E000224600F0A9F953465A46C01A914110D34D
:1001F00011461846224600F090F92D1A67EB0108C7
:100200004F4622460120002100F087F917EB000934
:100210004E41201EA4F10104DFDC484631462A4647
:100220004346BDE8F09F40EA01039B0703D009E085
:1002300008C9121F08C0042AFAD203E011F8013BD2
:1002400000F8013B521EF9D27047D2B201E000F82B
:10025000012B491EFBD270470022F6E710B513466A
:100260000A4604461946FFF7F0FF204610BD30B598
:1002700005462A460B4612F8010B13F8014B08B14C
:10028000A042F8D01CB1002802D06D1CF1E728462E
:1002900030BDCAB2401E10F8011F8A4202D00029A8
:1002A000F9D100207047421C10F8011B0029FBD136
:1002B000801A704730B505460020034600E05B1CFD
:1002C000934205D2EC5CC85C201A01D1002CF6D117
:1002D00030BD2DE9F04791460F4680460446002682
:1002E00014F8015B2DB100F049F90068405DC007CA
:1002F000F6D12B2D02D02D2D18D0641E4A4639463A
:10030000204600F03FF927B13968A14201D1C7F872
:10031000008071054FF002040BD54042002803DD38
:1003200004F008FC0460A007BDE8F08746F480668E
:10033000E4E70028F8DA04F0FDFB04606FF0004009
:10034000F2E72DE9FE4F804681EA0300C00F0C461C
:10035000009021F0004123F00045B8EB0200A941D4
:1003600005D24046214690461C460B46024623F0E5
:100370000040104347D0270DC7F30A00C3F30A51CA
:100380000290401A019040286BDAC3F3130040F446
:10039000801B0098924620B10023D2EB030A63EB46
:1003A0000B0B01985946C0F14002504600F0B5F8D9
:1003B00006460D4650465946019A00F0CDF810EB1E
:1003C00008006141002487EA115284EAE7731A4366
:1003D00040D0009A62B3019A012A4FEA075215DC15
:1003E000001B61EB02014FF0004202EA0752CDE927
:1003F0000042001C41F5801132462B4600F057F9AF
:1004000003B0BDE8F08F40462146F9E7001B61EBE1
:100410000201001C41F5801300185B412018A2F571
:10042000001747EB030140EAD570B6196D4111E0A2
:100430006D084FEA360645EAC0754FEA0752001BC1
:1004400061EB0201001C41F5801149084FEA3000C0
:100450000019514132462B4603B0BDE8F04F00F081
:1004600017B90098012240000023D0EB020263EB91
:10047000E073009821464FEAE074B8EB000061EBAE
:100480000401E9E783F000435BE781F0004158E7AE
:1004900000F0004230F000400AD0C10D01F560715B
:1004A000C0F3160042EA0151C208400711437047E9
:1004B00000200146704701F0004330B421F00041B4
:1004C00050EA010206D00A0DA2F56072C1F31301D1
:1004D000002A02DC30BC00207047440F44EAC1040B
:1004E000C100E01830BC00EBC25000F09AB830B543
:1004F0000B46014600202022012409E021FA02F5E2
:100500009D4205D303FA02F5491B04FA02F528447B
:10051000151EA2F10102F1DC30BD202A04DB203AD5
:1005200000FA02F1002070479140C2F1200320FA46
:1005300003F3194390407047202A04DB203A21FA44
:1005400002F00021704721FA02F3D040C2F12002EC
:100550009140084319467047202A06DBCB17203A02
:1005600041FA02F043EAE07306E041FA02F3D040B8
:10057000C2F1200291400843194670470048704775
:10058000189000082DE9F05F824600780027154694
:100590008B460AF10104B946302801D09DB113E021
:1005A00014F8010B0127782803D0582801D045B151
:1005B0000AE00DB1102D07D10027102514F8010B0A
:1005C00002E0082500E00A250026B0460EE005FB03
:1005D000080005FB06F1012701EB10461FFA80F821
:1005E000B6F5803F00D3B94614F8010B294600F058
:1005F000BFF80028EBDABBF1000F05D00FB1641E85
:1006000000E05446CBF80040B9F1000F06D004F0EA
:1006100091FA02210160C81EBDE8F09F48EA064039
:10062000FAE70029A8BF7047401C490008BF20F026
:100630000100704710B4B0FA80FC00FA0CF050EAE8
:10064000010404BF10BC704749B1CCF1200421FA69
:1006500004F411FA0CF118BF012121430843A3EB64
:100660000C01CB1D4FEA00614FEA102042BF002071
:1006700010BC704700EBC35010440029A4BF10BC4D
:100680007047401C490008BF20F0010010BC7047B3
:1006900010B5141E73F1000408DA401C41F100018A
:1006A00092185B411A4301D120F0010010BD2DE9E1
:1006B000F04D92469B4611B1B1FA81F202E0B0FAD8
:1006C00080F220329046FFF728FF04460F4640EAAA
:1006D0000A0041EA0B0153465A46084313D011461B
:1006E00053EA010019D0C8F140025046FFF724FF39
:1006F00005460E46504659464246FFF70EFF084350
:1007000005D0012004E020463946BDE8F08D0020E8
:10071000054346EAE0762C4337430A986305E40A2A
:10072000A0EB08000022FD0A44EA47540A3002D533
:1007300000200146E9E7010510196941DDE9084596
:1007400000196941BDE8F04DA2E70000064C074DD5
:1007500006E0E06840F0010394E807009847103491
:10076000AC42F6D3FFF714FD1C9000083C90000843
:100770003A2800D2303820F02002412A01D3A2F1D9
:100780003700884201D34FF0FF30704700B5A1B069
:1007900004F058FF04F094FD02F08CFB02F0C8FB5B
:1007A0000020A02380220146009002F064FB04F0A8
:1007B00065FB3D2234490FA8FFF735FD324810F89C
:1007C0003D1F8DF8791041788DF87A1081788DF879
:1007D0007B10C1788DF87C1001798DF87D104179FE
:1007E0008DF87E1081798DF87F10C1798DF8801099
:1007F000017A8DF88110407A8DF8820040F24650DF
:100800000E90382213A96846FFF70DFD0DF13C0C40
:100810009CE80F0004F0E6FE3D221C490FA8FFF7FC
:1008200002FD1A4810F83D1F8DF8791041788DF8B7
:100830007A1081788DF87B10C1788DF87C10017961
:100840008DF87D1041798DF87E1081798DF87F10BB
:10085000C1798DF88010017A8DF88110407A8DF879
:10086000820040F2A4600E90382213A96846FFF778
:10087000DAFC0DF13C0C9CE80F0004F0B3FE21B053
:100880005DF804EB04F01CBA40020020880200204E
:10089000FEE70000014800F0A1BA0000400500207A
:1008A000014800F09BBA0000A0050020014800F0BC
:1008B00095BA000080040020014800F08FBA0000C3
:1008C000E004002001681823CAB2103AB2FBF3F228
:1008D000054B6FF30901032A9B5CC36500D9091D11
:1008E00081650846704700005856000810B501465B
:1008F00000208B698A6A4FF0C07453B1B3F5005F72
:1009000015D072B1012A0CD0022A0AD0032A09D1CB
:1009100004E01AB1012A06D0022A03D1C96AC9012A
:1009200000D5012010BDC96AA142FAD010BD002A2D
:10093000F7D0012AF2D0022AF3D0032AF3D010BD57
:1009400030B50468256825F4802525600468636057
:100950008368402B036803D099600068C26030BD93
:100960009A600068C16030BD704772B6FEE7000053
:10097000002229B101291AD002291BD04FF440725C
:100980000E490B6823F440730B600B6813430B6034
:100990000A6822F0F8020A600A68022303EBC0002A
:1009A00002430A60086840F48030086070474FF4E2
:1009B0008072E5E74FF40072E2E70000103C02406D
:1009C0001348016889050FD5016821F400710160A1
:1009D000016841F400610160016821F40061016077
:1009E000016841F400710160016849050FD5016893
:1009F00021F480610160016841F480510160016867
:100A000021F480510160016841F480610160704708
:100A1000003C024008490A6822F440720A600A68F1
:100A200042F004020A600A684FF4803343EA00206F
:100A300002430A6070470000103C0240064A1368F7
:100A400023F44073136013681360136843F00103C9
:100A50001360017070470000103C0240094910B556
:100A60000C6824F440740C600C6844F440740C600E
:100A70000C6844F001040C600260BFF36F8F4360A8
:100A800010BD0000103C0240074A136823F4407375
:100A90001360136843F480731360136843F0010319
:100AA0001360018070470000103C0240074A136841
:100AB00023F440731360136843F4007313601368E6
:100AC00043F001031360016070470000103C0240D6
:100AD00017490868C206174805D5C26942F01002D6
:100AE000C26110220A600A68920605D5C26942F006
:100AF0000802C26120220A600A68520605D5C2694E
:100B000042F00402C26140220A600A68120605D55A
:100B1000C26942F00202C26180220A600A6892073A
:100B200005D5C26942F02002C26102200860704708
:100B30000C3C02400006002070B51149044600201C
:100B4000C86100F07BFC06460E4D09E0601C07D032
:100B500024B100F073FC801BA04201D9032070BDBA
:100B60002868C003F2D42868C00701D0012028609B
:100B7000286810F0F200F2D0FFF7AAFF012070BD44
:100B8000000600200C3C02402DE9F04F4FF4F075B8
:100B90006C1EDDF824A0002801DA002002E0A84243
:100BA00000DB2046002A01DA002202E0AA4200DB34
:100BB0002246002900DA0021002B00DA00234FF042
:100BC0000009904207DD0446104622460C461946AD
:100BD00023464FF00109904210D1994201DA0A46AA
:100BE00000E01A4606DA194604E000BF4AF8202061
:100BF00002F101028A42F9DDBDE8F08F171A5C1A92
:100C000000D56442994201DA012501E04FF0FF3539
:100C1000AE463D1B0E46C4F1000B1AE0B9F1000FC1
:100C200008D08E4204D0A6EB010CA3EB0C0C02E022
:100C30008C4600E0B4464AF820C09042DCD04FEA2F
:100C4000450CDC4501DD2D1B401CBC4501DA3D4453
:100C500076449042E2DDCFE72DE9F84F4FF4A075DE
:100C60006C1EDDF828A0002901DA002102E0A9426B
:100C700000DB2146002B01DA002302E0AB4200DB5F
:100C80002346002800DA0020002A00DA002200278C
:100C9000994206DD0C461946234604461046224674
:100CA0000127994210D1904201DA034600E0134631
:100CB00006DA104604E000BF4AF8213003F10103D0
:100CC0008342F9DDBDE8F88F151A00D56D425C1A34
:100CD000904201DA012601E04FF0FF3600962E1B0C
:100CE0008146C4F1000E1AE047B1814504D0A9EB5A
:100CF000000CA2EB0C0C02E0844600E0CC464AF863
:100D000021C09942DED04FEA460BF34503DDDDF802
:100D10000080361BC144AB4501DA2E44491C994280
:100D2000E2DDCFE72DE9F0410446876D00F086FB58
:100D3000064694F835000025022806D0802060651C
:100D400084F834500120BDE8F0812068016821F06A
:100D5000160101602068416921F080014161206C29
:100D600008B9A06C20B12068016821F00801016079
:100D70002068016821F0010101600CE000F05EFBD9
:100D8000801B052807D920206065032084F83500E2
:100D900084F83450D7E720680068C007EED194F893
:100DA0005C103F208840B860012084F8350084F84A
:100DB00034500020C7E790F83510022903D0802175
:100DC000416501207047052180F8351000680168F1
:100DD00021F0010101600020704700002DE9F84377
:100DE00004464FF00009CDF8009063484FF41651C7
:100DF000A56D0068B0FBF1F72E6894F85C10082030
:100E000000FA01F131420FD021680A6852070BD570
:100E10000A6822F004020A6094F85C108840A86016
:100E2000606D40F00100606594F85C104FF00108BF
:100E300008FA01F0304208D021684969090604D552
:100E4000A860606D40F00200606594F85C100420BA
:100E50008840304208D021680968890704D5A86015
:100E6000606D40F00400606594F85C1010208840CC
:100E7000304218D021680968090714D5A860206895
:100E80000168490304D50068000308D5A16C07E098
:100E90000168C90503D4016821F008010160216CD3
:100EA00009B12046884794F85C10202088403042E1
:100EB00031D021680968C9062DD5A86094F835009D
:100EC00005282068016806D0490347D5006800035B
:100ED0001DD4616C1CE021F016010160206841699D
:100EE00021F080014161206C08B9A06C20B120681C
:100EF000016821F00801016094F85C103F208840EF
:100F0000A86084F8358084F83490216D1FE0E16B8F
:100F100009B120468847606D00282BD0606DC0075E
:100F200014D0052084F835002068016821F0010103
:100F300001600098401C0090B84203D82068006807
:100F4000C007F6D184F8358084F83490E16C00292C
:100F500010D001B02046BDE8F04308470168C9053C
:100F6000D5D4016821F01001016084F8358084F83F
:100F70003490CCE7BDE8F883180000202DE9F0415B
:100F8000044600F05BFA06465CB1022084F83500A6
:100F9000002584F834502068016821F001010160C7
:100FA0000DE00120BDE8F08100F048FA801B052823
:100FB00005D920206065032084F83500F2E7206819
:100FC0000068C007F0D12268116820480140D4E9C8
:100FD00001031843D4E903363343184363691843C4
:100FE000A3691843E3691843236A18430843616AF5
:100FF000042903D1D4E90B13194308431060206876
:101000004069666A20F0070130460E430127042834
:101010000CD1A06A0643E06A40B12046FFF766FCA7
:1010200020B14020606584F83570BAE720684661D9
:101030002046FFF747FC94F85C203F2191408160F7
:10104000656584F835700020ACE700003F8010F043
:101050002DE9F0410446866D90F834000025012802
:101060000DD0012084F8340094F835700020012F51
:1010700007D084F8340002252846BDE8F08102201C
:10108000FBE7022784F8357060652046FFF758FCBF
:1010900094F85C103F208840B0602068016841F0FF
:1010A00016010160206C20B12068016841F0080140
:1010B00001602068016841F001010160DCE7000087
:1010C00070B5044600F0BAF90546601C02D0044829
:1010D0000078044400F0B2F9401BA042FAD370BD7E
:1010E0000C0000202DE9F047044622480F46017EFF
:1010F00001290AD00121804601764CF25039484638
:10110000FFF71AFD020003D02FE00220BDE8F087B0
:101110004FF0FF3038602068174D012801D0A668D5
:101120001CE0207C6168FFF775FC4846FFF704FD72
:101130000246286820F00400286014E0217C304634
:10114000FFF716FC4846FFF7F7FC0200286820F07E
:10115000FA00286001D03E6005E0761CD4E9021058
:101160000844B042EAD8FFF72BFC002188F8181099
:101170001046CBE700060020103C024003480168FF
:1011800041F000410160002070470000103C024027
:101190002DE9F0471B4E05461446307E1F46894612
:1011A000012808D0012030764CF250384046FFF735
:1011B000C3FC18B114E00220BDE8F0879DB1012DF9
:1011C00016D0022D19D022463B464846FFF746FC72
:1011D0004046FFF7B1FC0C490A6822F001020A60A0
:1011E00000213176E8E7E1B24846FFF727FCEFE758
:1011F000A1B24846FFF748FCEAE721464846FFF718
:1012000055FCE5E700060020103C0240074900209D
:101210000A68002A09DA054A054B0C3A1360054BA7
:1012200013600968002900DA01207047103C024071
:1012300023016745AB89EFCD2DE9F84FDFF8BCA15D
:101240000022012503264FF00F090AF1040BAAF131
:10125000040E00BF0B6805FA02F42340A34270D1CC
:101260000F7907F00307012F01D0022F16D18768ED
:101270004FEA420806FA08FC27EA0C07D1F80CC02E
:101280000CFA08FC4CEA070CC0F808C04768A743F2
:101290000C79C4F3001494403C4344600C79E4435B
:1012A000A4070AD0C4684FEA420C06FA0CF7BC4304
:1012B0008F6807FA0CF72743C7600C7904F0030422
:1012C000022C12D1D40800EB840CDCF82040570724
:1012D000FF0E09FA07F824EA0804D1F8108008FA8A
:1012E00007F848EA0408CCF8208004684FEA420C6A
:1012F00006FA0CF7BC430F7907F0030707FA0CF75F
:10130000274307604C6814F4403F70D03C4C27687A
:1013100047F480472760246822F0030704F48044E0
:101320000094384C07EB040CDCF8084897074FEAA8
:10133000177809FA08F7BC43334FB84202D10027A7
:1013400024E054E0314FB84201D101271EE0304F74
:10135000B84201D1022719E02E4FB84201D103272C
:1013600014E02D4FB84201D104270FE02B4FB842B3
:1013700001D105270AE02A4FB84201D1062705E02E
:10138000284FB84201D1072700E0082707FA08F7DD
:101390002743CCF80878DAF800405746D1F804C063
:1013A0009C435FEACC2C00D51C433C60DBF800403A
:1013B0005F46D1F804C09C435FEA8C2C00D51C43E7
:1013C0003C60DEF800407746D1F804C09C435FEAF9
:1013D0008C3C00D51C433C60084F083F3C68D1F86A
:1013E00004C09C435FEACC3C00D51C433C60521CCB
:1013F000102AFFF42FAFBDE8F88F0000083C014031
:101400004438024000300140000002400004024025
:1014100000080240000C024000100240001402408C
:1014200000180240001C02400069084000D0012062
:1014300070470AB1816170470904FBE70148806881
:10144000704700000C0000200248816802781144B7
:10145000816070470C0000200B4810B5016841F412
:1014600000710160016841F480610160016841F42C
:1014700080710160032000F081F80F2000F006F871
:1014800000F024F8002010BD003C024070B50D4D66
:1014900004464FF47A712878B1FBF0F00A490968E4
:1014A000B1FBF0F000F01EFB48B9102C07D200226F
:1014B0002146501E00F042F800206C6070BD0120F3
:1014C00070BD00000C000020180000200A4808B57C
:1014D000016841F480410160006800F480400090A0
:1014E0000548001F016841F080510160006800F06C
:1014F0008050009008BD000044380240002809DBFD
:1015000000F01F02012191404009800000F1E0201D
:10151000C0F80011704700280DDB4109890001F176
:10152000E021D1F8001300F01F0201209040014299
:1015300001D001207047002070470000F0B40E4B2E
:101540001B680C46C3F30223C3F10705042D00D921
:101550000425191D072901D2002300E0DB1E012606
:1015600006FA05F1491E214099409E40761E16401C
:101570003143F0BC03F0CEBA0CED00E0064900F0B8
:10158000070208684FF6FF03184040EA0220034AAA
:1015900010430860704700000CED00E00000FA0501
:1015A0002DE9F0470E46050065D0DFF81481D8F824
:1015B0000000F7B200F00700B04207D288F80070D0
:1015C000D8F8000000F00700B04254D128683D4C24
:1015D000810712D5400703D5206840F4E050206011
:1015E0002878000703D5206840F460402060206818
:1015F000A96820F0F000084320602878C0072DD0AB
:10160000304968680839012812D0022813D003280D
:1016100011D00968890700292DDA216821F003011A
:1016200001432160FFF70AFF814641F2883A0EE04C
:1016300009688903EFE709688901ECE7FFF7FEFE17
:10164000A0EB0901514502D90320BDE8F0872068CD
:10165000696800F00C00B0EB810FEFD1D8F80010F2
:10166000404601F00701B14207D90770006800F059
:101670000700B04201D00120E7E72878400705D5F0
:101680002068E96820F4E0500843206028780007CB
:1016900006D52068296920F4604040EAC100206036
:1016A00000F038F82168084AC1F30311515CC840C2
:1016B0000649086006480068FFF7E8FE0020C4E716
:1016C000003C024008380240605600081800002024
:1016D000100000200448054900680968044AC1F365
:1016E0008221515CC8407047180000200838024031
:1016F000705600080448054900680968044AC1F3A7
:101700004231515CC8407047180000200838024040
:1017100070560008154810B5006810F00C02144807
:1017200013D01449042A0FD0082A0ED10F4C241FBD
:101730002268236802F03F025B0207D52068C0F3ED
:101740008810A0FB010106E0084610BD2168C1F326
:101750008811A1FB00010023FEF734FD2168C1F3CD
:101760000141491C4900B0FBF1F010BD08380240AE
:101770000024F40040787D012DE9F84F04006ED07C
:101780002078DFF84C93C007A9F104054AD009F18D
:1017900004000168C1F38101012908D00068C0F389
:1017A000810002280AD1D9F80000400206D5286835
:1017B000800337D560680028E1D033E06068B0F579
:1017C000803F10D0B0F5A02F286810D020F48030D2
:1017D0002860286820F4802028606068A8B1FFF79E
:1017E0002DFE06460DE0286840F48030F4E740F412
:1017F00080202860F7E700BFFFF720FE801B6428E9
:1018000073D828688003F7D50CE0FFF717FE06466B
:1018100005E000BFFFF712FE801B6428F0D828689F
:101820008003F7D42078DFF8AC8280074FF0000AFD
:101830003ED5A748001D016811F00C0F08D00068C4
:10184000C0F3810002280BD1D9F80000400207D470
:101850002868800716D5E068012800D112E033E13E
:10186000E068B8B10120C8F80000FFF7E7FD0646C0
:1018700005E000BFFFF7E2FD801B0228C0D8286802
:101880008007F7D52868216920F0F80040EAC100F8
:1018900028600DE0C8F800A0FFF7D0FD064604E080
:1018A000FFF7CCFD801B02281FD828688007F7D4DB
:1018B0002078000722D5864F87486169703771B15B
:1018C00001210160FFF7BAFD064604E0FFF7B6FD0F
:1018D000801B022809D838688007F7D50EE0C0F8C9
:1018E00000A0FFF7ABFD064605E082E0FFF7A6FD8E
:1018F000801B02287DD838688007F7D420784007FD
:1019000068D5DFF8CCB100270BF13C0BDBF8000009
:10191000C0000BD4DBF8001041F08051CBF8001070
:10192000DBF80000012700F0805000906B4E30681B
:10193000C00510D4306840F480703060FFF77EFD41
:10194000009005E0FFF77AFD0099401A022850D870
:101950003068C005F6D55E4EA0686C3601280FD001
:101960000528306810D020F001003060306820F089
:1019700004003060A068B8B1FFF760FD00900FE090
:10198000306840F00100F4E740F004003060F7E711
:10199000FFF754FD0099411A41F28830814266D820
:1019A00030688007F4D50EE0FFF748FD009007E0AF
:1019B000FFF744FD0099411A41F28830814256D820
:1019C00030688007F4D42FB1DBF8001021F080518B
:1019D000CBF80010A069C8B33D49091D0968C1F3DF
:1019E000810102294AD00228504607D0C8F8600079
:1019F00000E03CE0FFF722FD04463BE04746C8F824
:101A00006000FFF71BFD064605E000BFFFF716FD6F
:101A1000801B02282BD828688001F7D4D4E907015D
:101A20000843A16A2E4A490802EB0141626A41EA71
:101A30008211084394F82C1040EA0161C9F80010A3
:101A400001203866FFF7FAFC044606E03EE000BFDE
:101A5000FFF7F4FC001B022809D828688001F7D59D
:101A600034E000BFFFF7EAFC001B022802D9032084
:101A7000BDE8F88F28688001F4D427E00128F7D06A
:101A8000D9F80000E26900F4800191421CD1226A79
:101A900000F03F01914217D147F6C071626A0140E0
:101AA000B1EB821F10D1A26A4FF0FF3300F4403136
:101AB00003EB5202B1EB024F06D194F82C1000F068
:101AC0007060B0EB016F01D00120D1E70020CFE7BB
:101AD0000438024000004742800E47420070004038
:101AE0000000FFFF10B5401EB0F1807F01D3012040
:101AF00010BD4FF0E02460610F21601703F00AF879
:101B00000020A06107202061002010BD70477047B1
:101B100010B590F83C20012A22D0012280F83C2008
:101B2000CA688C6822F4407222434C6822F48062B6
:101B300022430C6822F4006222430C6922F4805292
:101B400022434C6922F400522243C969002322F443
:101B500080420A4301684A6480F83C30002010BD8E
:101B6000022010BD70B590F83C20012A32D001242B
:101B700080F83C40022280F83D2003685A689D6846
:101B800022F070060A6832435A60134B02689A4288
:101B900014D0B2F1804F11D0104B9A420ED0104B9E
:101BA0009A420BD00F4B9A4208D00F4B9A4205D065
:101BB0000E4B9A4202D00E4B9A4204D1496825F04E
:101BC00080031943916080F83D40002180F83C106B
:101BD000084670BD022070BD0000014000040040B6
:101BE00000080040000C004000040140004001409B
:101BF0000018004010B5040003D094F83D0010B167
:101C000007E0012010BD002084F83C00204600F0D1
:101C10001FF8022084F83D00211D206802F0AAFB75
:101C2000012084F8460084F83E0084F83F0084F8E0
:101C3000400084F8410084F8420084F8430084F8AE
:101C4000440084F8450084F83D00002010BD0000E9
:101C500008B53149026831488A420ED1016841F025
:101C6000100101600068002200F010000090114691
:101C70003620FFF763FC362010E029498A4211D153
:101C8000016841F0200101600068002200F020009E
:101C9000009011463720FFF751FC3720BDE808407F
:101CA000FFF72CBC1D491F4B091D9A4207D108683C
:101CB00040F002000860086800F0020009E01A4BDA
:101CC0009A4208D1086840F400300860086800F4BF
:101CD0000030009008BD154B9A4207D1086840F4C7
:101CE00080200860086800F48020F2E710498A42EA
:101CF00007D1016841F080010160006800F08000B8
:101D0000E7E70C498A42E5D1016841F4807101603E
:101D1000006800F48070DCE70010004040380240AA
:101D2000001400400004014000440140004801400C
:101D3000001C00400020004090F83D10012901D017
:101D400001207047022180F83D100168CA6842F006
:101D50000102CA6000681149884214D0B0F1804F76
:101D600011D00F4988420ED00E4988420BD00E493F
:101D7000884208D00D49884205D00D49884202D0DA
:101D80000C49884204D1816801F00701062903D07B
:101D9000016841F00101016000207047000001402E
:101DA0000004004000080040000C00400004014016
:101DB000004001400018004070B5044690F83C0017
:101DC0000025012817D0012684F83C60022084F801
:101DD0003D002068826822F0770222F47F42826010
:101DE0000868502838D00DDC20284FD005DC90B38F
:101DF000102811D14AE0022070BD302846D040287A
:101E00000AD13BE060282FD070280DD0B0F5805F5C
:101E100003D0B0F5005F12D0012584F83D600020AA
:101E200084F83C00284670BDCB68D1E901212068C8
:101E300002F019FB2068816841F0770109E0CB6866
:101E4000D1E90121206802F00EFB2068816841F48D
:101E500080418160E1E719E0CA684968206802F0C2
:101E6000D7FB5021206806E0CA684968206802F064
:101E7000E0FB6021206802F000FBCEE7CA684968F9
:101E8000206802F0C5FB40212068F4E72268014683
:101E90001046F0E72DE9F0410D46040003D094F818
:101EA0003D0018B108E00120BDE8F081002084F871
:101EB0003C00204600F040F8022084F83D002068F5
:101EC000816844F2070291438160211D206802F07D
:101ED00051FA226890689169166A2B68AF690343CA
:101EE00040F20330814341EA0721A868EF690843C3
:101EF0004FF6FC418843E96840EA0720014328691E
:101F00002F6A000140EA0730084369686D6926F0CE
:101F1000AA0646EA0515294393602268906154F8A1
:101F2000460B0162012004F81F09E0752076E07677
:101F30002077A0750020B7E730B587B0044614219C
:101F40006846FEF789F924683E4A00213E4802238C
:101F5000012594421BD13C4A1432146844F0010418
:101F60001460126802F001020592026842F0100249
:101F70000260006800F0100005904FF420600090AF
:101F8000CDE90131CDE903156946304838E02E4AE4
:101F90001032B4F1804F1BD02D4DAC4234D11468B7
:101FA00044F002041460126802F002020592026812
:101FB00042F002020260006800F00200059030204A
:101FC0000090CDE90131CDE903136946214817E0BE
:101FD000146844F001041460126802F001020592D2
:101FE000026842F001020260006800F00100059002
:101FF00003200090CDE90131CDE90315694616486B
:10200000FFF71AF907B030BD144DAC42FAD114688D
:1020100044F004041460126802F00402059202689D
:1020200042F008020260006800F0080005904FF4DA
:1020300040500090CDE90131CDE9031369460848CD
:10204000DEE700000000014030380240001002408E
:10205000000400400004024000000240000800406C
:10206000000C024070472DE9F04104460068C66844
:1020700005694FF00007A90713D5B10711D5F91E5F
:10208000016101202077206880698007204602D006
:10209000FFF7E8FF04E000F01AF9204600F0DAF953
:1020A0002777680716D5700714D521686FF00400EC
:1020B0000861022020772068806910F4407F204664
:1020C00002D0FFF7CFFF04E000F001F9204600F056
:1020D000C1F92777280715D5300713D521686FF088
:1020E00008000861042020772068C0698007204626
:1020F00002D0FFF7B7FF04E000F0E9F8204600F057
:10210000A9F92777E80616D5F00614D521686FF0EF
:1021100010000861082020772068C06910F4407F13
:10212000204602D0FFF79EFF04E000F0D0F82046E2
:1021300000F090F92777E80708D0F00706D021686B
:102140006FF001000861204600F0EAF9280608D582
:10215000300606D521686FF0800008612046FFF741
:10216000D5FC680608D5700606D521686FF04000DA
:102170000861204600F0F2F9A8060AD5B00608D595
:1021800021686FF0200008612046BDE8F041FFF7AC
:10219000BEBCBDE8F081000070B586B004461421D5
:1021A0006846FEF759F824682B4800222B49022381
:1021B000032584420FD1086840F0040008600868D5
:1021C000694600F0040005904FF470700090CDE96E
:1021D000013223480DE0234E2348B4420FD10C684E
:1021E00044F002040C60096801F0020105918115B8
:1021F0002DE0CDE90325FFF71FF806B070BD1B4E9B
:10220000B44209D10C6844F002040C60096801F082
:102210000201059171151AE0154E09251548B442C1
:1022200009D10C6844F001040C60096801F0010157
:10223000059140210BE0104EB442DED10C6844F011
:1022400001040C60096801F00101059180210091F1
:10225000CDE901326946CCE7000401403038024044
:1022600000080240004401400004024000480140D0
:10227000001C0040000002400020004070B50446F1
:1022800090F83C00002501280FD0012084F83C0084
:102290006AB1042A0FD0082A11D00C2A13D00125C4
:1022A000002084F83C00284670BD022070BD2068E4
:1022B00002F0ECF8F4E7206802F018F9F0E7206883
:1022C00002F04AF9ECE7206802F07AF9E8E7704793
:1022D00010B5040003D094F83D0010B107E00120D0
:1022E00010BD002084F83C00204600F01EF80220BB
:1022F00084F83D00211D206802F03CF8012084F89C
:10230000460084F83E0084F83F0084F8400084F8DA
:10231000410084F8420084F8430084F8440084F8C3
:10232000450084F83D00002010BD704770B504469C
:1023300090F83C0000260D4601280FD0012084F8BB
:102340003C006AB1042A1DD0082A2FD00C2A3FD0A5
:102350000126002084F83C00304670BD022070BD8C
:10236000206802F093F82068816941F008018161DA
:102370002068816921F004018161206881692A69EE
:10238000114311E0206802F0B1F82068816941F43E
:10239000006181612068816921F480618161206828
:1023A00081692A6941EA02218161D2E7206802F04D
:1023B000D3F82068C16941F00801C1612068C16992
:1023C00021F00401C1612068C1692A69114311E04B
:1023D000206802F0F5F82068C16941F40061C1612C
:1023E0002068C16921F48061C1612068C1692A69DE
:1023F00041EA0221C161ACE710B5040003D094F8B2
:102400003D0010B107E0012010BD002084F83C0021
:10241000204600F01EF8022084F83D00211D2068AF
:1024200001F0A8FF012084F8460084F83E0084F8FB
:102430003F0084F8400084F8410084F8420084F8AA
:10244000430084F8440084F8450084F83D000020EF
:1024500010BD70477047000010B50446022249B114
:1024600004290ED0082913D094F84100012816D071
:10247000012010BD94F83E000128F9D184F83E20D7
:102480000FE094F83F000128F2D184F83F2008E0E3
:1024900094F840000128EBD184F8402001E084F852
:1024A00041200122206801F0D1FF16492068164A18
:1024B000884201D0904203D1436C43F4004343640B
:1024C0002068884213D0B0F1804F10D00F49884265
:1024D0000DD00F4988420AD00E49884207D0904259
:1024E00005D00D49884202D00C49884204D1816848
:1024F00001F00701062903D0016841F001010160E4
:10250000002010BD00000140000401400004004014
:1025100000080040000C004000400140001800404E
:1025200010B5044600680A49884208D10948018C60
:1025300029B1408C18B101F0BDFD01F019FE06492A
:102540002068884203D1BDE8104002F069BE10BD8A
:1025500000100040C416002000140040704738B539
:10256000044690F84200202801D0022038BD61B115
:102570005AB10120206300206063204602F02CFA4B
:102580000028F3D1216B012901D0012038BD216839
:102590000A684968009121680C3151E8002F42F027
:1025A000100241E80023002BF5D138BDF0B5554E9F
:1025B0008FB0B04271D100296FD053A15A48FDF7B6
:1025C00056FE002810D1032258A15748FDF772FE8D
:1025D000554D574FA5F1280438B1032255A128467F
:1025E000FDF768FE002859D07AE0ED1C232128462B
:1025F000FDF74FFE002873D06846009502F072FF89
:102600002082684602F06EFF6082684602F06AFF30
:102610002081684602F066FF6081684602F062FF32
:102620002080684602F05EFF6080684602F05AFF34
:102630002083684602F056FF6083684602F052FF2E
:10264000A083684602F04EFFE083684602F04AFF2E
:10265000A082684602F046FFE082684602F042FF30
:10266000A081684602F03EFFE081684602F03AFF32
:10267000A080684602F036FFE080684602F032FF34
:10268000A084684602F02EFFE0840020208460844D
:1026900002F08EFB0120387022E030E0ED1C232197
:1026A0002846FDF7F6FDD8B10DA80D9502F01AFFEA
:1026B00020840DA802F016FF6084034602203870C3
:1026C000228C02B963B11CA1684602F00FFA684679
:1026D000FDF7E9FD82B2642369460A4800F0AEFACC
:1026E000C8211148FDF7B8FDC8220F490548FFF77A
:1026F00036FFF06B0068016821F0080101600FB03F
:10270000F0BD0000F0030020214D4F44455F4348D9
:10271000414E4745445F544F5F475245454E5F4CDD
:102720004153455221000000EC16002040524F005A
:1027300038000020404744005243565F4C41534507
:10274000523A25642C25640D0A00000070470000F1
:10275000F8B5016804460868CA684B6910F00F0FA5
:102760004FF0000559D003F0010602F4907737438B
:1027700065D0C10705D0D10503D5616C41F00101D9
:102780006164410705D5D90703D0616C41F00201AE
:102790006164810705D5D90703D0616C41F004015C
:1027A0006164010707D502F02001314303D0616C59
:1027B00041F008016164616C00293AD0800604D5BB
:1027C000900602D5204602F020F820684069616C2E
:1027D000C0F38010090700D460B3204601F0E0FF89
:1027E00020684069400621D52068143050E8001F59
:1027F00021F0400140E80012002AF5D1E06BA8B1B9
:102800006E490165E06BFEF7D6FA002811D0E06B47
:10281000016D01B0BDE8F040084783060FD593066F
:102820000DD52046BDE8F84001F0EFBF2046FFF788
:102830008DFFF8BD2046FFF789FF6564F8BD266B64
:102840002023012E7DD1C6067BD5D60679D5086812
:102850004868009048694FF00206400641D5E16B98
:10286000086840680004000CE8D0A28D8242E5D9D7
:10287000E085C869B0F5807F2DD020680C3050E825
:10288000001F21F4807140E80012002AF5D1206871
:10289000143050E8001F21F0010140E80012002A26
:1028A000F5D12068143050E8001F21F0400140E8C5
:1028B0000012002AF5D184F84230256320680C30DC
:1028C00050E8001F21F0100140E80012002AF5D165
:1028D000E06BFEF727FA6663A08DE18D401A81B2A6
:1028E0002AE0A08DE18D401A81B2E08D0028A5D0AC
:1028F0000029A3D022680C3252E8000F20F4907017
:1029000042E80007002FF5D12068143050E8002F6E
:1029100022F0010240E80027002FF5D184F8423070
:10292000256320680C3050E8002F22F0100240E8A8
:102930000023002BF5D166632046FFF737FEF8BD74
:10294000FFE705062BD5150629D594F84100212867
:10295000F5D1A068B0F5805F01D12069B0B1206ADF
:10296000411C2162216800784860E08C401E000410
:10297000000CE084E3D12068C16821F08001C160CF
:102980002068C16841F04001C160D8E7206A008832
:10299000C0F308004860206A801C2062E5E740061A
:1029A000CDD55006CBD5CA68204622F04002CA6079
:1029B00084F8413000F0CEF9C1E700005746000826
:1029C00070B5040004D094F84100002510B106E071
:1029D000012070BD84F84050204600F023F82420E8
:1029E00084F841002068C16821F40051C16020468C
:1029F00001F06CFF2068016921F4904101612068B9
:102A0000416921F02A0141612068C16841F4005107
:102A1000C1606564202084F8410084F84200656349
:102A2000002070BD2DE9F04F87B0044614216846A0
:102A3000FDF712FC7548744E27687449103802225D
:102A4000032300254FF4406CB74217D10C6844F4BF
:102A500000240C60096801F400210591016841F02F
:102A6000040101600068CDF800C000F0040005908A
:102A70000820CDE9033069466548C0E0DFF894815D
:102A80000726DFF894E14FF0400B4FF000694FF458
:102A9000806A474549D15D49091D0F6847F0100715
:102AA0000F60096801F010010591016841F0010112
:102AB00001600068694600F0010005904FF4C060B5
:102AC0008DE82500CDE903367046FEF7B5FB544E80
:102AD0005248C8463060C6E90195C6E9035A756197
:102AE000B561F5613562574630467562FEF746FAC4
:102AF00008B1FDF73AFFE663B463494E47486036D4
:102B00007830C6E903577561B561F5613562756264
:102B100086E801093046FEF731FA08B1FDF725FFD6
:102B2000A663B46307B0BDE8F08FDFF8F8804745CF
:102B30004CD10F6847F400370F60096801F4003189
:102B40000591016841F0010101600068694600F0EB
:102B5000010005900C208DE82500CDE90336704674
:102B6000FEF76AFB2E4E3048C0364F463060C6E94D
:102B70000195C6E9035A7561B561F5613562D046C4
:102B800030467562FEF7FAF908B1FDF7EEFEE6632E
:102B9000B463264E2448C6E903587561B561F561F2
:102BA00035621830756286E881083046FEF7E6F92E
:102BB00008B1FDF7DAFEA663002211462620B463B1
:102BC000FEF7BCFC2620FEF799FCABE7184CA742A9
:102BD000A8D10C6844F480240C60096801F48021B9
:102BE0000591016841F0020101600068CDF800C064
:102BF00000F00200CDE904600E4869460393CDE978
:102C00000125FEF719FB8DE7004C004040380240DB
:102C100000080240001001400000024040640240F1
:102C2000800400200044004088600240A00500208D
:102C30000048004000040240704770472DE9F84307
:102C4000044690F84100984616460D46202802D0CA
:102C50000220BDE8F88385B17EB1002060642120A8
:102C600084F84100FEF7EAFBA6848146E684A0686A
:102C70002027B0F5805F02D003E00120E9E720695A
:102C800010B12E4600250EE000260CE080212046E3
:102C900001F0EAFEA8B9C6B116F8010B2168486038
:102CA000E08C401EE084E08C4B464FF00002CDF8F3
:102CB00000800028EAD14FF04001204601F0D4FE08
:102CC00040B184F841700320C3E735F8020BC0F32C
:102CD0000800E3E784F841700020BAE770B50446C5
:102CE00090F84100202801D0022070BD49B342B3C2
:102CF0002162A284E28400206064212384F84130B0
:102D0000A56B114BEB63A56B104B2B64A56B104BA4
:102D1000EB64A36B1865256813462A1DA06BFEF7AC
:102D200097F921686FF0400008602068143050E87F
:102D3000001F41F0800140E80012002AF5D1002078
:102D400070BD012070BD000055470008974700087E
:102D50006746000870477047FEE72DE9F0411C46C2
:102D600015460E460746802800D37F27802D00D3C6
:102D70007F25A02E00D39F26A02C00D39F242A209D
:102D800000F09EFB002000F099FBF8B200F096FBEB
:102D9000002000F093FBE8B200F090FB2B2000F045
:102DA0008FFB002000F08AFBF0B200F087FB0020D0
:102DB00000F084FBE0B200F081FBBDE8F0412C2084
:102DC00000F07EBB2DE9FE4F161ACDE900104FF042
:102DD00000085D1A47464FF0FF30002E02DD4FF02D
:102DE000010102E003D14FF000018B4602E083466F
:102DF000C6F10006002D02DD4FF0010002E003D114
:102E00004FF00000824602E08246C5F10005AE4266
:102E100001DD344600E02C46601C4FF000090290B2
:102E200019E000980C9A81B2019880B200F018F86D
:102E3000B0442F44A04504DD0198A8EB0408584491
:102E40000190A74203DD00983F1B5044009009F118
:102E500001001FFA80F902998945E2DBBDE8FE8F87
:102E600010B514460B460246FFF777FF2046BDE833
:102E7000104000F019BB2DE9F04780461F46581E50
:102E800083B21646501E82B20C464046DDF82090B2
:102E9000FFF763FF0AE0454604E0484600F004FB04
:102EA0006D1CADB2B542F8D3641CA4B2BC42F2D3DF
:102EB000BDE8F08710B586B014216846FDF7CCF95F
:102EC0001948016841F004010160016801F0040142
:102ED0000591016841F0080101600068134C00F0A1
:102EE000080005900122BE212046FEF7A2FABE206E
:102EF0000121CDE900010220CDE9021069462046FA
:102F0000FEF79AF9012210212046FEF792FA0122DB
:102F100020212046FEF78DFA012280212046FEF76F
:102F200088FA06B010BD000030380240000C0240A4
:102F300038B5FFF7BFFFC44D012210212846FEF728
:102F400078FA012204212846FEF773FA00220221B2
:102F50002846FEF76EFA002208212846FEF769FA95
:102F60007820FEF7ADF8012208212846FEF761FA25
:102F70007820FEF7A5F8012000F0A2FA9620FEF7CF
:102F80009FF8112000F09CFA9620FEF799F83A205D
:102F900000F096FA052000F0A7FAB12000F090FAB0
:102FA000022000F0A1FA352000F09EFA362000F051
:102FB0009BFAB22000F084FA022000F095FA352046
:102FC00000F092FA362000F08FFAB32000F078FA81
:102FD000022000F089FA352000F086FA362000F051
:102FE00083FA022000F080FA352000F07DFA3620C6
:102FF00000F07AFAB42000F063FA032000F074FACB
:10300000C02000F05DFAA22000F06EFA022000F06D
:103010006BFA842000F068FAC12000F051FAC52054
:1030200000F062FAC22000F04BFA0D2000F05CFACA
:10303000002000F059FAC32000F042FA8D2000F081
:1030400053FA2A2000F050FAC42000F039FA8D20FB
:1030500000F04AFAEE2000F047FAC52000F030FAFE
:10306000122000F041FAB02000F02AFA002000F00F
:103070003BFA362000F024FAC82000F035FAE020B0
:1030800000F01EFA042000F02FFA222000F02CFAA3
:10309000072000F029FA0A2000F026FA2E2000F07E
:1030A00023FA302000F020FA252000F01DFA2A2013
:1030B00000F01AFA282000F017FA262000F014FA7F
:1030C0002E2000F011FA3A2000F00EFA002000F055
:1030D0000BFA012000F008FA032000F005FA132093
:1030E00000F002FAE12000F0EBF9042000F0FCF916
:1030F000162000F0F9F9062000F0F6F90D2000F096
:10310000F3F92D2000F0F0F9262000F0EDF923204E
:1031100000F0EAF9272000F0E7F9272000F0E4F9B1
:10312000252000F0E1F92D2000F0DEF93B2000F031
:10313000DBF9002000F0D8F9012000F0D5F90420D7
:1031400000F0D2F9132000F0CFF92A2000F0B8F9EE
:10315000002000F0C9F9002000F0C6F9002000F0BE
:10316000C3F97F2000F0C0F92B2000F0A9F900205E
:1031700000F0BAF9002000F0B7F9002000F0B4F92F
:103180009F2000F0B1F9362000F09AF9C82000F035
:10319000ABF9212000F094F9292000F091F91420D6
:1031A000FDF78EFF2C2000F08BF94FF6FF74002105
:1031B000A023802208460094FFF75DFE1420FDF74F
:1031C0007FFF0021A023802208460094FFF753FED2
:1031D0001420FDF775FF0021A023802208460094EB
:1031E000FFF749FE1420FDF76BFF2C2000F068F973
:1031F0006420FDF765FF012202212846FEF719F938
:103200002A2000F05DF9002000F06EF9002000F0A7
:103210006BF9002000F068F97F2000F065F92B20A1
:1032200000F04EF9002000F05FF9002000F05CF99A
:10323000002000F059F99F2000F056F9BDE8384011
:103240002C2000F03DB90000000C02402DE9FF4F9A
:1032500081B00446DDF83C9000904FEA59074FF0EA
:103260000008780700D0012000EBD70000FB09FB25
:10327000203AD0B20390029802994844401E83B28B
:10328000E019401E82B22046FFF767FD002553E09B
:10329000B9F10C0F2AD0B9F1100F2ED0B9F1180FD7
:1032A0002ED0B9F1200F49D12749039801EB8010A6
:1032B000002610F805A0109800284FF0010000FA31
:1032C00006F000EA0A0022D020B12046049A0299B2
:1032D000FFF7C6FD641C0098A4B2201AB84225D19D
:1032E0000298009C401C80B2029023E0039817498A
:1032F00000EB400001EB8000DAE71549039803E09A
:103300000398144900EB400001EB0010D0E708B12E
:10331000049800E00E9800F0C7F808F10100C0B270
:10332000B0FBF7F1804607FB118050B1761CF6B276
:10333000082EC0D36D1CADB25D45A9D305B0BDE864
:10334000F08F4FF00008F5E7AC72000878560008DF
:10335000EC5A0008DC6000082DE9FF4F83462DED94
:10336000020B83B0DFED210A139F154620EE200AE1
:103370007E080024A246BCEEC00A10EE100A1FFA16
:1033800080F92DE0281B401EC1B20A2002F048F847
:10339000B9FBF0F00A21B0FBF1F201FB1208A81E04
:1033A00084420ED1129A00FB06B08DE8840480B2EC
:1033B0002E22089B0699FFF749FF641C6D1CE4B29E
:1033C000EDB212988DE8810408F13000C2B204FB1E
:1033D00006B080B2089B0699FFF738FF641CE4B280
:1033E000AC42CFD309B0BDE8F08F00000000C84266
:1033F0002DE9FF4F83B00026DDE911B81D46824656
:103400004FEA58073446B1462CE0281B401EC1B293
:103410000A2002F005F80599B1FBF0F00A21B0FB93
:10342000F1F201FB120026B9691E8C4201DA58B193
:1034300001263030C2B204FB07A0CDF800B0CDE9C0
:10344000018980B2109B08E0CDF800B004FB07A012
:10345000CDE90189109B80B220220499FFF7F6FE86
:10346000641CE4B2AC42D0D307B0BDE8F08F2DE9C4
:10347000FE4F9946DDE90D6714468A460546DDF89C
:1034800030800CE0CDF800804B4651462846CDE90F
:103490000167FFF7DBFE05EB560085B2641C22785E
:1034A000002AEFD1BDE8FE8F10B50446000A00F0F7
:1034B0001BF8E0B2BDE8104000F016B800F014B8F8
:1034C00070B5084C0546002204212046FDF7B1FFE7
:1034D000284600F009F82046BDE87040012204218A
:1034E000FDF7A7BF000C0240F8B5274E07460022A3
:1034F00010213046FDF79DFF00252C46002220219B
:103500003046FDF796FF8DF8004004E09DF800007E
:10351000401C8DF800009DF800000228F6D3380604
:1035200001D5012200E0002280213046FDF781FF15
:103530008DF8004005E000BF9DF80000401C8DF8AC
:1035400000009DF800000228F6D301222021304619
:10355000FDF76FFF8DF8004005E000BF9DF800000B
:10356000401C8DF800009DF800000228F6D3780674
:103570006D1C070EEDB2082DC0D33046BDE8F840F3
:1035800001221021FDF755BF000C02402DE9FE4F2E
:10359000FC4FFD4CDFF8F49338784FF6FF764FF68A
:1035A000E07B01287ED0BA4602287CD100255A2330
:1035B0008022294628460095FFF75DFCCDF800B033
:1035C000D8466389228961882088FFF7FBFB608CDD
:1035D00001F0EEFF87B2208C01F0EAFF80B2424694
:1035E0003946FFF73DFCA08C01F0E2FF87B2A08CCA
:1035F00001F0DEFF80B24BF640423946FFF730FC67
:103600001027CDE900573346E1A261213920029508
:10361000FFF72DFFE188608801F04FFBCDE90065E1
:1036200002460323612159200297FFF7E1FECDE90D
:1036300000573346D8A2712139200295FFF717FFB2
:10364000A188208801F039FB39F82000CDE9006518
:1036500082B20323712159200297FFF7C9FECDE9F9
:1036600000573346CEA2902101200295FFF7FFFEBE
:10367000CC48CDE900650297027801239021112002
:10368000FFF7B6FECDE900573346C7A290212120AF
:103690000295FFF7ECFECDE90065029701239AF849
:1036A000002001E006E003E090213120FFF7A0FEBA
:1036B000BDE8FE8F00215A23802208460096FFF7BE
:1036C000DAFBA189208901F0F8FA4D4659F820006B
:1036D00001F06EFF1FFA80F9A189208901F0EDFA4F
:1036E00001F066FF1FFA80F8A188208801F0E5FA52
:1036F00055F8200001F05CFF85B2A188208801F018
:10370000DCFA01F055FF80B24B4642462946CDF81F
:1037100000B0FFF757FBE18A608A01F0CEFA01F0B2
:1037200047FF85B2E18A608A01F0C7FADFF87CA220
:103730005AF8200001F03CFF1FFA80F9E189608906
:1037400001F0BBFA01F034FF1FFA80F8E1896089CB
:1037500001F0B3FA5AF8200001F02AFF1F2100916E
:1037600080B22B464A464146FFF72CFBA18B208BAB
:1037700001F0A3FA8E4D55F8200001F019FF1FFA51
:1037800080FAA18B208B01F098FA01F011FF1FFA4B
:1037900080F9A18A208A01F090FA55F8200001F002
:1037A00007FF1FFA80F8A18A208A01F086FA01F04B
:1037B000FFFE002580B253464A4641460095FFF77A
:1037C00001FBE18B608B01F078FA01F0F1FE1FFA4A
:1037D00080FAE18B608B01F070FA764951F8200095
:1037E00001F0E6FE1FFA80F9E188608801F065FAD1
:1037F00001F0DEFE1FFA80F8E188608801F05DFAD2
:103800006C4951F8200001F0D3FE4FF4FC610091A7
:1038100080B253464A464146FFF7D4FA608C01F025
:10382000C7FE1FFA80F8208C01F0C2FE80B25A4613
:103830004146FFF715FBE08C01F0BAFE1FFA80F855
:10384000A08C01F0B5FE80B24BF640424146FFF736
:1038500007FB1024CDE90054334657A26121012013
:103860000295FFF704FEDFF85881CDE9005498ED8A
:10387000050A3346032261212120FFF76DFDCDE9C2
:10388000005433464FA2612141200295FFF7EFFD1E
:10389000CDE9005498ED060A3346032261215920F0
:1038A000FFF75AFDCDE90054334647A271210120AC
:1038B0000295FFF7DCFDCDE9005498ED070A334689
:1038C000032271212120FFF747FDCDE90054334643
:1038D0003FA2712141200295FFF7C9FDDFF8F48076
:1038E000CDE9005498ED050A334603227121592091
:1038F000FFF732FDCDE90054334637A28121012084
:103900000295FFF7B4FDCDE9005498ED060A334661
:10391000032281212120FFF71FFDCDE9005433460A
:103920002FA2812141200295FFF7A1FDCDE900548E
:1039300098ED070A3346032281215920FFF70CFD39
:10394000CDE90054334616A2902101200295FFF7DD
:103950008EFD00961348CDE9015402780123902191
:103960001120FFF745FDCDE9005433460EA290210A
:1039700021200295FFF77BFD0096CDE9015401233C
:103980003A788EE61C000020C4160020B4170020F0
:103990004159313A000000004159323A000000001C
:1039A0006D3A00001D000020703A0000B42600208F
:1039B000341F0020B42B00205331503A0000000087
:1039C0005C16002031493A005331443A00000000AF
:1039D00032503A00901600205332493A000000005D
:1039E00032443A00194808B5016841F400110160F9
:1039F000016801F400110091016841F48001016047
:103A00000068002200F48000009011461020FDF7AD
:103A100095FD1020FDF772FD002211461120FDF7E3
:103A20008DFD1120FDF76AFD002211463A20FDF7B9
:103A300085FD3A20FDF762FD002211464620FDF784
:103A40007DFDBDE808404620FDF758BD30380240F6
:103A500070B586B014216846FCF7FEFB27480024A9
:103A6000016841F010010160016801F01001059149
:103A7000016841F001010160016801F00101059157
:103A8000016841F002010160016801F00201059145
:103A9000016841F008010160016801F00801059129
:103AA000016841F0040101600068154E00F0040057
:103AB0000590002247F27C013046FDF7BAFC012553
:103AC0000420CDE90005CDE9025469463046FDF7F2
:103AD000B3FB47F278000090CDE9015469463046C7
:103AE0000394FDF7A9FB4FF47040CDE9000469464B
:103AF00004480294FDF7A0FB06B070BD30380240C8
:103B0000001002400004024010B588B01C21684635
:103B1000FCF7A2FB1548144900240160A721C0E965
:103B2000011444F61F61C0E903148461FEF762F8D2
:103B300008B1FCF71AFF0D48FEF75EFC08B1FCF770
:103B400014FF6020CDE90004029400226946074872
:103B50000494FEF7EBFB08B1FCF707FF0348FEF700
:103B60001BFB08B010BD00000044014040020020D3
:103B700010B588B01C216846FCF76EFB1548144947
:103B800000240160A721C0E9011444F61F61C0E9C7
:103B900003148461FEF72EF808B1FCF7E6FE0D4829
:103BA000FEF72AFC08B1FCF7E0FE6020CDE9000436
:103BB00002940022694607480494FEF7B7FB08B157
:103BC000FCF7D3FE0348FEF7E7FA08B010BD00008B
:103BD000004801408802002010B588B01C216846CA
:103BE000FCF73AFB1548144900240160A721C0E9FD
:103BF000011444F61F61C0E903148461FDF7FAFF64
:103C000008B1FCF7B2FE0D48FEF7F6FB08B1FCF771
:103C1000ACFE6020CDE9000402940022694607480A
:103C20000494FEF783FB08B1FCF79FFE0348FEF700
:103C3000B3FA08B010BD0000001C0040D002002004
:103C400010B588B01C216846FCF706FB14481349E0
:103C50000024C0E900144FF6FF71C0E9024104617D
:103C60008461FDF7C7FF08B1FCF77FFE0C48FEF743
:103C7000C3FB08B1FCF779FE6020CDE90004029493
:103C80000022694606480494FEF750FB08B1FCF791
:103C90006CFE0348FEF780FA08B010BD002000401B
:103CA0001803002010B58CB024216846FCF7D4FA24
:103CB00000241648099414490A94C0E900144FF6E8
:103CC000FF71C0E902410461446184610120CDE9D2
:103CD0000004CDE902040494CDE905400794694647
:103CE0000A480894FEF7D6F808B1FCF73EFE09949E
:103CF00009A906480A94FDF735FF002801D0FCF712
:103D000034FE0CB010BD000000000140480000204F
:103D100010B58CB024216846FCF79EFA00241448A4
:103D200009944FF080410A94C0E90014611EC0E973
:103D30000241046184610120CDE90004CDE902045F
:103D40000494CDE905400794694609480894FEF7B4
:103D5000A1F808B1FCF709FE099409A904480A94DE
:103D6000FDF700FF002801D0FCF7FFFD0CB010BDEF
:103D70009000002010B58CB024216846FCF76CFA46
:103D800000241548099413490A94C0E900144FF619
:103D9000FF71C0E90241046184610120CDE90004A2
:103DA000CDE902040494CDE90540079469460A4828
:103DB0000894FEF76FF808B1FCF7D7FD099409A93C
:103DC00005480A94FDF7CEFE002801D0FCF7CDFD92
:103DD0000CB010BD00040040D800002010B58CB01D
:103DE00024216846FCF738FA002415480994134941
:103DF0000A94C0E900144FF6FF71C0E90241046162
:103E000084610120CDE90004CDE902040494CDE9E8
:103E10000540079469460A480894FEF73BF808B144
:103E2000FCF7A3FD099409A905480A94FDF79AFE39
:103E3000002801D0FCF799FD0CB010BD000800402F
:103E4000200100201CB500240E4800940C49019468
:103E50000160A721C0E9011444F61F618461C160BB
:103E6000FDF7C8FE08B1FCF780FD009469460548DF
:103E70000194FDF777FE002801D0FCF776FD1CBD0C
:103E800000100040680100201CB500240E4800947A
:103E90000C4901940160A721C0E9011442F20F719D
:103EA0008461C160FDF7A6FE08B1FCF75EFD0094D9
:103EB000694605480194FDF755FE002801D0FCF73E
:103EC00054FD1CBD00140040B001002010B596B098
:103ED00000240F9410941194129413941C2168469A
:103EE0001494FCF7B9F9202107A8FCF7B5F9374875
:103EF0003549C0E900144FF6FF71C0E90241046181
:103F000044618461FDF776FE08B1FCF72EFD4FF4A5
:103F100080500F900FA92D48FDF74EFF08B1FCF718
:103F200024FD2A48FEF768FA08B1FCF71EFD274871
:103F3000FEF7CEF908B1FCF718FD139413A9234836
:103F40001494FDF70FFE08B1FCF70FFD6020CDE9DA
:103F500000040294039404940594002269461B48CB
:103F60000694FEF7E3F908B1FCF7FFFC042269466A
:103F700016480094FEF782F908B1FCF7F6FC082217
:103F800069461248FEF77AF908B1FCF7EEFC0C22FC
:103F900069460E48FEF772F908B1FCF7E6FC079493
:103FA000089409944FF400500A94CDE90B4007A9F6
:103FB00006480E94FDF7ACFD08B1FCF7D6FC0348AB
:103FC000FEF7EAF816B010BD00040140F801002029
:103FD0000C4810B50A4901604FF4E13141600021FD
:103FE00081600C22C160C0E904128161C161FEF7E9
:103FF000E7FC002803D0BDE81040FCF7B6BC10BDBC
:10400000004C0040600300200C4810B50A490160D4
:104010004FF4E1314160002181600C22C160C0E9B0
:1040200004128161C161FEF7CBFC002803D0BDE81A
:104030001040FCF79ABC10BD00100140A8030020FE
:104040000C4810B50A4901604FF4E131416000218C
:1040500081600C22C160C0E904128161C161FEF778
:10406000AFFC002803D0BDE81040FCF77EBC10BDBB
:1040700000440040F00300200C4810B50A490160DC
:104080004FF4E1314160002181600C22C160C0E940
:1040900004128161C161FEF793FC002803D0BDE8E2
:1040A0001040FCF762BC10BD0048004038040020FE
:1040B000FEE7FEE7294810B50088294C00EE100AFB
:1040C0002848A2B0B8EE400A84ED000A008C00EE49
:1040D000100A2046B8EE400A84ED010A01F0A8F962
:1040E0003D2221490FA8FCF79EF81F4810F83D1FFC
:1040F0008DF8791041788DF87A1081788DF87B10E1
:10410000C1788DF87C1001798DF87D1041798DF89A
:104110007E1081798DF87F10C1798DF88010017A39
:104120008DF88110407A8DF8820094ED0B0ADFED56
:104130000F0A382213A930EEC00ABCEEC00A10EEF6
:10414000100A80B20E906846FCF76DF80FAC94E848
:104150000F0001F053FA22B010BD00003E00002015
:104160005C160020C41600204002002000C0A844B5
:10417000294810B50088294C00EE100A2848A2B042
:10418000B8EE400A84ED000A408C00EE100A20468A
:10419000B8EE400A84ED010A01F04AF93D222149B6
:1041A0000FA8FCF740F81F4810F83D1F8DF8791054
:1041B00041788DF87A1081788DF87B10C1788DF870
:1041C0007C1001798DF87D1041798DF87E10817910
:1041D0008DF87F10C1798DF88010017A8DF88110EB
:1041E000407A8DF8820094ED0B0ADFED0F0A382239
:1041F00013A930EEC00ABCEEC00A10EE100A80B25D
:104200000E906846FCF70FF80FAC94E80F0001F031
:10421000F5F922B010BD00004000002090160020EB
:10422000C4160020880200200080D44470477047E4
:1042300070B5FDF709F91C4801240022018839B93D
:104240004188491C89B24180142911D342800480DD
:10425000164B17491D78D5B104884CB145B1028081
:104260000C88241FA4B20C80B4F5FA7F00D81A7011
:1042700010490978002915D08188491C89B28180AC
:10428000C8290FD38280BDE8704000F089BD02804C
:104290000D882D1DADB20D8040F6C4118D42E7D3BF
:1042A0001C70E5E770BD0000040000200200002043
:1042B000000000203B00002030B593B0302168465C
:1042C000FBF7CAFF14210CA8FBF7C6FF1D48002509
:1042D000016841F080510160006800F08050119049
:1042E0001948016841F4804101600068022400F42B
:1042F00080401190012003901020049000940694B7
:104300000820CDE90750A820CDE9090404200B902E
:104310006846FDF731FA08B172B6FEE70CA90F2026
:1043200081E831004FF4A0500F904FF4805010906E
:1043300005210CA8FDF734F9002801D072B6FEE77C
:1043400013B030BD403802400070004002480168A0
:1043500041F470010160704788ED00E00148FDF70D
:1043600082BE0000680100200148FDF77CBE00000D
:10437000B0010020F0B50268294C2A4D2A4E2B4F7F
:104380002B4B4FF0804CA04209D0604507D0A8428B
:1043900005D0B04203D0B84201D0984204D122F0F7
:1043A000700E4A6842EA0E02A0421BD0604519D046
:1043B000A84217D0B04215D0B84213D0984211D0BD
:1043C0001C4DA8420ED01C4DA8420BD01B4DA8423C
:1043D00008D01B4DA84205D01A4DA84202D01A4D54
:1043E000A84203D122F44075CA682A434D6922F0DD
:1043F00080022A4302608A68C2620A688262A0421E
:1044000001D0984201D1096901630121416101692B
:10441000C90703D0016921F001010161F0BD00006D
:10442000000001400004004000080040000C004073
:1044300000040140004001400044014000480140A8
:1044400000180040001C00400020004010B501F0A2
:104450001F030121046A99408C430462016A9A4057
:104460001143016210BD10B5846842EA032224F4AE
:104470007F440A432243826010BD826822F07002AA
:104480000A4342F00701816070470000F0B5036AFB
:10449000026A22F00102026242688469124E24F02C
:1044A00073050C682C4323F002058B682B430D4DDC
:1044B000A84201D0B04205D123F00807CB683B43A6
:1044C00023F00403A84201D0B04205D14D6922F483
:1044D000407215438A692A43426084614968416396
:1044E0000362F0BD0000014000040140F0B5026A23
:1044F000036A23F010030362436884690D6824F49F
:10450000E64444EA05248D6822F0200242EA0512BE
:104510000F4D104EA84201D0B04206D1CF6822F014
:10452000800242EA071222F04002A84201D0B042C3
:1045300007D14D6923F4406343EA85038D6943EA5B
:10454000850343608461496881630262F0BD0000B5
:104550000000014000040140F0B5026A036A23F440
:10456000807303624368C46922F4007224F0730507
:104570000C68124E2C438D6842EA05220E4DA8426B
:1045800001D0B04206D1CF6822F4006242EA07228D
:1045900022F48062A84201D0B04207D14D6923F4D1
:1045A000405343EA05138D6943EA05134360C46130
:1045B0004968C1630262F0BD00000140000401408F
:1045C00030B5046A026A22F4805202624268C3690A
:1045D0000D6823F4E64343EA05238D6824F4005470
:1045E00044EA0534084DA84202D0084DA84204D13F
:1045F0004D6922F4804242EA85124260C3614968F3
:104600000164046230BD000000000140000401406C
:1046100010B5036A046A24F001040462846924F07A
:10462000F00444EA021423F00A020A43846102629D
:1046300010BD10B5036A046A24F010040462846992
:1046400023F0A00324F4704444EA023243EA011147
:104650008261016210BD10B5806B0021C185C184EB
:10466000FEF774F810BD70B5846B2068406994F84B
:104670004110C0F3C0100025212904D118B1E584F0
:10468000204600F0B4F82068406994F84210C0F366
:104690008010222904D118B1E585204600F080F869
:1046A000606C40F0100060642046FEF74FF870BD6B
:1046B00010B50146806B096809684FF00002C90512
:1046C0002ED4C28501680C3151E8003F23F4807379
:1046D00041E80034002CF5D10168143151E8003F65
:1046E00023F0010341E80034002CF5D101681431B6
:1046F00051E8003F23F0400341E80034002CF5D19D
:10470000202180F84210016B012909D101680C3188
:1047100051E8003F23F0100341E80034002CF5D1AC
:104720004263016B012902D0FEF786FA10BD818D2C
:10473000FDF73CFF10BD10B5806B01214163016B9B
:10474000012902D0FEF779FA10BD818D4908FDF7E5
:104750002DFF10BD10B50146806B09680968C905B9
:1047600016D40021C1840168143151E8002F22F0D1
:10477000800241E80023002BF5D101680C3151E89B
:10478000002F42F0400241E80023002BF5D110BD7C
:10479000FEF7E0FA10BD10B5806BFEF7DCFA10BD35
:1047A00001680C3151E8002F22F4907241E8002397
:1047B000002BF5D10168143151E8002F22F00102DD
:1047C00041E80023002BF5D1016B012909D10168D3
:1047D0000C3151E8002F22F0100241E80023002B99
:1047E000F5D1202180F84210002101637047016853
:1047F0000C3151E8002F22F0C00241E80023002BC9
:10480000F5D1202180F84110704708B590F842108A
:10481000222901D0022008BD82684FF480539A42B9
:1048200001D1016921B1816A9A421BD04AB10AE0E3
:104830000268816A5268C2F308020A80816A891C90
:1048400008E0026972B10268526802F07F020A70E1
:10485000816A491C8162C18D491E0904090CC18508
:1048600003D01BE002685268F1E70168CA6822F0D1
:104870002002CA600168CA6822F48072CA600168B6
:104880004A6922F001024A61202180F84210002189
:104890004163026B012A03D0FEF7CEF9002008BD68
:1048A000016301680C3151E8002F22F0100241E849
:1048B0000023002BF5D101680A68D20602D50A68E8
:1048C00049680091818DFDF771FEE7E770B50446F8
:1048D00000680169E26821F44051114301612169D6
:1048E000A068E26908436169114308432168CA6806
:1048F00049F20C639A430243CA6020684169A26985
:1049000021F440711143416131492068884202D04D
:104910003049884202D1FCF7EDFE01E0FCF7DAFEF7
:10492000E2690023192164253226B2F5004F62683E
:1049300028D0A0FB0101930F9200FBF743FC014636
:10494000B0FBF5F06FF01802504301EB800006EB6E
:104950000010B0FBF5F000F0F002B1FBF5F002EB57
:104960000012B1FBF5F06FF01803584301EB800023
:1049700006EB0010B0FBF5F000F00F0021681044CA
:10498000886070BDA0FB010192185B41FBF71AFC27
:104990000146B0FBF5F00201B1FBF5F06FF0180332
:1049A000584301EB800006EBC000B0FBF5F000F0CF
:1049B000F80002EB4002B1FBF5F0584301EB800038
:1049C00006EBC000B0FBF5F000F00700D6E70000F2
:1049D000001001400014014038B581620446828510
:1049E000002013466064222284F84220E56B1B4AB3
:1049F000EA63E56B1A4A2A64E56B1A4AEA64E26BD9
:104A000010650A462168E06B091DFCF721FB206850
:104A1000016840680090206948B120680C3050E877
:104A2000001F41F4807140E80012002AF5D120688F
:104A3000143050E8001F41F0010140E80012002A44
:104A4000F5D12068143050E8001F41F0400140E8E3
:104A50000012002AF5D1002038BD0000B146000840
:104A600037470008674600082DE9F843984617467F
:104A70000D460446089E24E0701C22D0FCF7DEFCA4
:104A8000A0EB0800B0421AD8CEB12068C16849072F
:104A900017D5802D15D0402D13D00168C9430907C3
:104AA0000FD401680025406800902046FFF778FE8B
:104AB0000820606484F840500120BDE8F88303209A
:104AC000FBE72068006835EA000004D00020B84207
:104AD000D2D00020F1E70120F9E700000148FDF7FE
:104AE00037BE0000F0030020FEE700000FB4084BC3
:104AF00010B504A902AA039800F030F8044602A9F0
:104B0000002000F0D5F8204610BC5DF814FB000032
:104B1000B14C00080907090E002804DB00F1E02071
:104B200080F80014704700F00F0000F1E02080F8DA
:104B3000141D7047004870474400002002E008C878
:104B4000121F08C1002AFAD170477047002001E007
:104B500001C1121F002AFBD1704700002DE9FF4F51
:104B600089B09B460446002506E025280BD05A460E
:104B70000B999047641C6D1C20780028F5D10DB06E
:104B80002846BDE8F08F0027B8460122474900E0DB
:104B9000074314F8013F203B02FA03F00842F7D123
:104BA00020782E2819D114F8010F47F004072A287D
:104BB0000ED06FF02F022078A0F1300109290CD817
:104BC00008EB880102EB410100EB0108641CF2E7ED
:104BD0000A98641C50F8048B0A9020780028CED0E4
:104BE000642808D0692806D075281ED05A460B992B
:104BF00090476D1C58E00A994FF00A0901C90A91C3
:104C0000002802DA40422D2102E0390504D52B218B
:104C10008DF82010012103E0F90704D02021F7E7E7
:104C20008A4608AE0DE00021FAE70A994FF00A091A
:104C300001C90A91F7E74946FBF759FC303106F8FC
:104C4000011D0028F7D1ADEB060000F1200978071F
:104C500001D44FF00108C84502DDA8EB090000E0CF
:104C600000208046002706E008A85A46C05D0B9940
:104C700090476D1C7F1C5745F6DB04E030205A46F8
:104C80000B9990476D1CB8F10001A8F10108F5DC03
:104C900005E016F8010B5A460B9990476D1CB9F1C7
:104CA0000001A9F10109F4DC641C65E70928010091
:104CB0000A68531C0B601070704708444008704726
:104CC00010B5C8210B48FBF7C7FA0A482821283835
:104CD000FBF7C2FA08490020C822087005490748B6
:104CE000FDF73DFC0548C06B0068016821F0080134
:104CF000016010BDEC16002038000020F0030020F9
:104D0000064810B581880088FFF7D7FF0449054A97
:104D1000888032F82000C88010BD0000C416002032
:104D20003A000020B417002070B50F4C104DA08839
:104D30006188084480B200EE100AA0800B48B8EEEB
:104D4000400A80ED000AA9892889FFF7B6FFA188EB
:104D5000884208D8A9892889FFF7AFFFA0800120E1
:104D600020700020607070BD3A0000205C160020AA
:104D7000C4160020084907488A8830F8220080B20B
:104D800000EE100AC8800548B8EE400A80ED000A1F
:104D900070470000B41700203A0000209016002051
:104DA00010B5FFF7C1FFBDE81040FFF7E3BF0000FB
:104DB00003480449828C8A80C08CC88070470000F8
:104DC000C41600203A000020FF224FF48061014801
:104DD000FBF73BBA5C06002010B508B10A2901D9DF
:104DE000012010BD034B8A001946FBF71CFA002076
:104DF00010BD000000000E082DE9F0410C46050032
:104E000001D00A2C02D90120BDE8F081FFF7DCFFB8
:104E1000002218480AE000BF05EB820191ED000A6C
:104E200000EB8201521C81ED000A92B2A242F3D340
:104E30000B2000F0F2FB072000EB84000E4E0D4D1E
:104E4000C708FCF7E3F900240EE000BF05EBC4003F
:104E500006EBC401D0E900230320FCF799F910B157
:104E6000FCF78CF9CFE7641CBC42EFD3FCF786F962
:104E70000020C9E75C06002000000E0810B5264C93
:104E8000DFED260A9FED261A86B0B7EE000AA4ECE5
:104E9000030A0021234884EC030A0C3C00F01DFBAC
:104EA0000C342048002194EC030A34300C3C00F010
:104EB00014FB06216846FFF78FFF002829D11A4905
:104EC00000981A4A0144914223D200EE100A0021B0
:104ED00084ED000ADDED010A1248C4ED010A9DEDE2
:104EE000021A84ED021ADDED031AC4ED031ADDED9A
:104EF000041AC4ED041ADDED051AC4ED051A00F01C
:104F0000ECFA0C340748002194EC030A343000F02A
:104F1000E4FA06B010BD000020000020CDCCCC3D4E
:104F2000CDCC4C3D5C16002090ED7CC590ED440846
:104F30002DED020B4FF0FF400099884300D0012077
:104F400002B070472DE9F05FA24C9F4EDFF880E27F
:104F500000252DED048B4FF0010B96F800809B4F40
:104F600094F8009094F804C06379A27AE07BBEF8CC
:104F700000A0BEF80410B8F1010F16D0B8F1020F6E
:104F80000FD1B9F1010F7BD0BCF1010F79D0012B0A
:104F900078D0012A77D0012803D1E573FFF7B0FE5E
:104FA0003D70BDEC048BBDE8F09FB9F1010F24D03A
:104FB000BCF1010F38D0012B3AD09FED878B9FEDCC
:104FC000889BDFF82482DFF82492DFF824A2DFF840
:104FD00024B2012A42D00128E3D1E5733D707078F4
:104FE000012874D0022873D0032872D0042871D00D
:104FF000052870D006286FD071E076487EA1283849
:10500000FFF774FD73482838FBF74DF9714982B2F8
:1050100028397A48FDF762FE25707948BDEC048B8B
:10502000BDE8F05FFCF788BE257102203070B8E75C
:1050300065715C4687F800B05046FFF73EFE714947
:105040000880714931F82000704908807078401C50
:10505000C0B270700628A4D97470A2E7A572FFF7D9
:10506000A7FE3D70707801280ED0022815D00328C5
:1050700015D0042815D005281CD006282DD02EE0E8
:105080007AE08AE08DE09AE0D8F80000FBF700FAB9
:1050900053EC182BFBF755F94AE04C460BE054460D
:1050A00000E05C462068FBF7F3F941EC100B53EC91
:1050B000182B07E0564C2068FBF7EAF953EC192B44
:1050C00041EC100B51EC100BFBF73BF94EE027E0E5
:1050D00033E034E035E03DE04CE04E4CE2E79AED61
:1050E000001AD9ED000A98ED000A00214A4800F0A4
:1050F000F4F948489BED000A002190ED001A44485D
:10510000D0ED000A454800F0E8F93720FCF703FA33
:1051100000288CD1BDEC048BBDE8F05F00F010BA24
:10512000D8F80000FBF7B4F953EC182BFBF7AAF9F9
:10513000FBF7C1F9C8F80000D1E74C460BE0544634
:1051400000E05C462068FBF7A3F941EC100B53EC40
:10515000182B07E02E4C2068FBF79AF953EC192B1B
:1051600041EC100B51EC100BFBF78CF9FBF7A3F99A
:105170002060B4E7274CE5E716481FA11438FFF775
:10518000B5FC14481438FBF78EF8124982B2143972
:105190001A48FDF7A3FD257003E7257186F800B0D6
:1051A000FFE6657187F800B05046FFF786FD1549A8
:1051B0000880154931F8200014490880F1E6A572ED
:1051C000FFF7F6FDECE600001C0000203B0000208D
:1051D000C4160020480600209A9999999999B93FD8
:1051E0007B14AE47E17A843F200000202400002099
:1051F000280000202C00002061610000F003002046
:10520000680100203E000020B4170020400000206C
:1052100030000020340000205C1600209016002092
:1052200070B5254D4FF480512846FCF7FDF8234C0E
:105230004FF40051A0702846FCF7F6F8E0714FF4E7
:1052400080412846FCF7F0F820734FF400412846CF
:10525000FCF7EAF8002160740A46012301EB81069D
:105260003019457825B1012D0CD0022D12D001E066
:10527000857825B1491CC9B20329EFD970BD4370A7
:10528000C27070BD01EB81012144897889B9022186
:10529000417070BD01EB8101214489780029C178FA
:1052A00003D0322904D3037103E0491CC17070BDDF
:1052B000A355427070BD0000000402404806002063
:1052C0000148FCF739BD0000B001002008B5FCF72B
:1052D000C3F8FEF7F1FFFEF7BBFBFEF783FBFEF71B
:1052E000E1FCFEF715FDFEF745FDFEF777FDFEF745
:1052F000EDFDFEF709FCFEF73BFCFEF76DFCFEF74B
:1053000083FEFEF79DFEFEF7B7FEFEF761FEFEF799
:1053100097FCFEF7B9FDFEF795FDFBF737FA3B4C1E
:10532000DFF8EC80DFF8EC90DFF8ECA0DFF8ECB011
:10533000E1896089FFF7C1FC0746A1892089FFF751
:10534000BCFC0646E1886088FFF7B7FC0546A188EB
:105350002088FFF7B2FC3B4632462946CDF8008054
:10536000FBF712FCE18A608AFFF7A7FC0746A18AD7
:10537000208AFFF7A2FC0646E1896089FFF79DFCC1
:105380000546A1892089FFF798FC3B46324629460D
:10539000CDF80090FBF760FCE18A608AFFF78DFC96
:1053A0000746A18A208AFFF788FC0646E18B608BBE
:1053B000FFF783FC0546A18B208BFFF77EFC3B4665
:1053C00032462946CDF800A0FBF7DEFBE18B608B6F
:1053D000FFF773FC0746A18B208BFFF76EFC064698
:1053E000E1886088FFF769FC0546A1882088FFF7FF
:1053F00064FC3B4632462946CDF800B0FBF72CFC56
:10540000FEF7C4F8FFF79EFD92E70000C4160020E7
:10541000B4170020B4260020341F0020B42B002035
:105420000246012000E05043491EC9B2FBD270473A
:1054300090EC020A30EE600A80ED020A016BD0EDBA
:10544000030A012901D039B342E030EE601AD0EDF1
:10545000051AF0EE002A21EE212A80ED082A90EDAF
:10546000061A61EE001AB0EE401A00EEE21AC0ED24
:105470000A1AD0ED042A72EE211A31EE221AD0ED6A
:10548000072A21EE221A80ED091A31EE811AD0ED99
:105490000B1A31EE211A19E090ED051A61EE001A8F
:1054A000C0ED081A90ED0A1A90ED062A02EE001AD5
:1054B00030EE602A80ED0A1AD0ED072A31EE811A0B
:1054C00022EE222A80ED092A31EE021A80ED0B1A13
:1054D000C0ED040A80ED030A70470163143080ECCC
:1054E000030A704738B50446006801E0401C20609C
:1054F000017829B1A1F130020A2A01D32D29F5D171
:105500000A226946FAF7E5FE226800998A4204D029
:10551000002802DBB0F5803F08DB08782C2801D09A
:10552000232800D1491C0020216038BD21600A7861
:105530002C2A01D0232A01D1491C216080B238BD18
:10554000194900B5194891ED050A87B080ED000AA8
:10555000D1ED060A6B46C0ED010A91ED071A343110
:1055600080ED021AD1ED051A0022C0ED031A91ED6B
:10557000062A80ED042AD1ED072AC0ED052A8DEC1C
:10558000060A00BF03EB820090ED000AFFF7D0FC93
:10559000002807D0521CD2B2062AF3D3062168464F
:1055A000FFF72AFC07B000BD5C1600202000002099
:1055B000002801DC00207047B0F5F07F01DB80207F
:1055C000704700EE100A9FED061AF8EEC00AB6EE1C
:1055D000000A00EE810ABDEEC00A10EE100A704704
:1055E0008988883E0FB4002110B502A8149CFCF7EE
:1055F00033FF0298446310BC5DF814FB0FB44FF402
:1056000048711298884203D940F69801884200D325
:1056100008460099486304B0704700B587B00C286D
:105620000ED20290012003900021022000910490EC
:10563000FBF7ECFD05A96846FBF754FDFBF79EFD63
:1056400007B000BDC82202490248FCF788BF00002D
:10565000EC160020F00300200006101600061016BD
:105660000000000000000000010203040607080912
:105670000000000001020304000000000000000020
:105680000000000000000404040404000004000002
:1056900014140A00000000000000000000000A0AC4
:1056A0001F0A0A1F0A0A000000040E1505060C1442
:1056B000150E0400000012150D152E2C2A120000E4
:1056C0000000040A0A36151529160000020201001E
:1056D0000000000000000000100808040404040496
:1056E000080810000204040808080808040402005E
:1056F00000000004150E0E15040000000000000854
:10570000083E080800000000000000000000000043
:105710000202010000000000003F00000000000045
:105720000000000000000000000200000020101037
:10573000080804040202010000000E1111111111E9
:10574000110E00000000040604040404040E00000E
:1057500000000E1111080402011F000000000E11CC
:10576000100C1010110E00000000080C0C0A091F8C
:10577000081C000000001F01010F1110110E000095
:1057800000000C12010D1311110E000000001E107C
:10579000080804040404000000000E11110E111189
:1057A000110E000000000E1111191610090600005C
:1057B00000000000040000000004000000000000E1
:1057C00000040000000404000000100804020204A9
:1057D00008100000000000003F003F000000000033
:1057E00000000204081010080402000000000E115E
:1057F000110804040004000000001C22292D2D1DA6
:10580000221C0000000004040C0A0A1E12330000CF
:1058100000000F12120E1212120F000000001E11D3
:1058200001010101110E000000000F1212121212EC
:10583000120F000000001F120A0E0A02121F0000C1
:1058400000001F120A0E0A020207000000001C12CC
:1058500001013911120C000000003312121E121245
:105860001233000000001F0404040404041F00009D
:1058700000003E0808080808080809070000371259
:105880000A060A1212370000000007020202020292
:10589000223F000000003B1B1B1B151515350000A7
:1058A00000003B1216161A1A1217000000000E1103
:1058B00011111111110E000000000F12120E020240
:1058C0000207000000000E1111111117190E180027
:1058D00000000F12120E0A121237000000001E11F3
:1058E00001060810110F000000001F150404040435
:1058F000040E00000000331212121212120C0000EB
:1059000000003312120A0A0C0404000000001515EE
:1059100015150E0A0A0A000000001B0A0A04040AF0
:105920000A1B000000001B0A0A0A0404040E0000FF
:1059300000001F0908040402121F00001C040404D4
:105940000404040404041C00000202040404080803
:10595000081010000E0808080808080808080E00BB
:10596000040A000000000000000000000000000029
:10597000000000000000003F0204000000000000E2
:105980000000000000000000000C121C123C00008F
:1059900000030202020E1212120E000000000000AC
:1059A000001C1202120C000000181010101C121221
:1059B000123C000000000000000C121E021C00003F
:1059C00000182404041E0404041E0000000000004B
:1059D000003C120C021C221C00030202020E1212D6
:1059E000123700000004040000060404040E000046
:1059F00000080800000C0808080808070003020255
:105A0000021A0A060A13000000070404040404042E
:105A1000041F000000000000000F15151515000000
:105A200000000000000F12121237000000000000FA
:105A3000000C1212120C000000000000000F1212E5
:105A4000120E020700000000001C1212121C103877
:105A500000000000001B060202070000000000001A
:105A6000001E020C101E000000000004041E0404AE
:105A7000041C000000000000001B1212123C000079
:105A800000000000001B0A0A0404000000000000DF
:105A90000015150E0A0A000000000000001B0A0491
:105AA0000A1B000000000000003312120C0804035F
:105AB00000000000001E0804041E0000180808086A
:105AC000080C08080808180008080808080808084A
:105AD0000808080806040404040804040404060072
