:020000040800F2
:10000000A0340020A1010008F73B0008612A000885
:10001000F53B0008D9050008D9450008000000009C
:100020000000000000000000000000004B3D000840
:10003000B106000800000000493D00084D3D0008E1
:10004000BB010008BB010008BB010008BB010008A0
:10005000BB010008BB010008BB010008BB01000890
:10006000BB010008BB010008BB010008BB01000880
:10007000BB010008BB010008BB010008BB01000870
:10008000DD050008E9050008BB010008BB01000808
:10009000BB010008BB010008BB010008BB01000850
:1000A000BB010008BB010008BB010008BB01000840
:1000B000BB010008BB010008BB010008BB01000830
:1000C000BB010008BB010008BB010008BB01000820
:1000D000BB010008BB010008CD450008BB010008BA
:1000E000BB010008BB010008BB010008BB01000800
:1000F000BB010008BB010008BB010008BB010008F0
:10010000BB010008BB010008BB010008BB010008DF
:10011000BB010008BB010008BB010008593E0008F4
:10012000BB010008BB010008F5050008BB01000881
:10013000BB010008BB010008BB010008BB010008AF
:10014000BB010008BB010008BB010008BB0100089F
:10015000BB010008BB01000801060008BB01000844
:10016000BB010008BB010008BB010008BB0100087F
:10017000BB010008BB010008BB0100080000000033
:10018000BB010008BB010008DFF810D000F062F9E5
:1001900000480047194B0008AFF30080A03400204E
:1001A0000648804706480047FEE7FEE7FEE7FEE711
:1001B000FEE7FEE7FEE7FEE7FEE7FEE7493E000852
:1001C000890100082DE9F05F0546002092469B4614
:1001D00088460646814640241BE02846414647465D
:1001E000224600F0D3F853465A46C01A914110D324
:1001F00011461846224600F0BAF82D1A67EB01089E
:100200004F4622460120002100F0B1F817EB00090B
:100210004E41201EA4F10104DFDC484631462A4647
:100220004346BDE8F09F40EA01039B0703D009E085
:1002300008C9121F08C0042AFAD203E011F8013BD2
:1002400000F8013B521EF9D27047D2B201E000F82B
:10025000012B491EFBD270470022F6E710B513466A
:100260000A4604461946FFF7F0FF204610BD30B598
:1002700005462A460B4612F8010B13F8014B08B14C
:10028000A042F8D01CB1002802D06D1CF1E728462E
:1002900030BDCAB2401E10F8011F8A4202D00029A8
:1002A000F9D100207047421C10F8011B0029FBD136
:1002B000801A704730B505460020034600E05B1CFD
:1002C000934205D2EC5CC85C201A01D1002CF6D117
:1002D00030BD2DE9F04791460F4680460446002682
:1002E00014F8015B2DB100F061F80068405DC007B3
:1002F000F6D12B2D02D02D2D18D0641E4A4639463A
:10030000204600F057F827B13968A14201D1C7F85B
:10031000008071054FF002040BD54042002803DD38
:1003200004F080F90460A007BDE8F08746F4806619
:10033000E4E70028F8DA04F075F904606FF0004093
:10034000F2E730B50B46014600202022012409E0E7
:1003500021FA02F59D4205D303FA02F5491B04FA7E
:1003600002F52844151EA2F10102F1DC30BD202A5D
:1003700004DB203A00FA02F1002070479140C2F1FC
:10038000200320FA03F3194390407047202A04DB2E
:10039000203A21FA02F00021704721FA02F3D040FE
:1003A000C2F1200291400843194670470048704747
:1003B000E48700082DE9F05F8246007800271546A3
:1003C0008B460AF10104B946302801D09DB113E0F3
:1003D00014F8010B0127782803D0582801D045B123
:1003E0000AE00DB1102D07D10027102514F8010BDC
:1003F00002E0082500E00A250026B0460EE005FBD5
:10040000080005FB06F1012701EB10461FFA80F8F2
:10041000B6F5803F00D3B94614F8010B294600F029
:100420002BF80028EBDABBF1000F05D00FB1641EEA
:1004300000E05446CBF80040B9F1000F06D004F0BC
:10044000F1F802210160C81EBDE8F09F48EA0640AD
:10045000FAE70000064C074D06E0E06840F00103B3
:1004600094E8070098471034AC42F6D3FFF790FEAB
:10047000E8870008088800083A2800D2303820F0C1
:100480002002412A01D3A2F13700884201D34FF064
:10049000FF30704700B52DED028BA1B004F0AEFC2B
:1004A00004F034FB02F08AFB02F0C6FB4FF6FF704B
:1004B00000210090A0238022084602F060FB9FEDFF
:1004C000408AB2EE040A0021B0EE481AF0EE480A63
:1004D0003C4804F02AFCB0EE481AF0EE480AB2EEAE
:1004E000040A0021384804F020FC3D2237490EA8B8
:1004F000FFF799FE354810F83D1F8DF875104178CB
:100500008DF8761081788DF87710C1788DF8781095
:1005100001798DF8791041798DF87A1081798DF80B
:100520007B10C1798DF87C10017A8DF87D10407AAE
:100530008DF87E00382212A96846FFF774FE0DF18F
:10054000380C9CE80F0004F03DFC3D2220490EA829
:10055000FFF769FE1E4810F83D1F8DF875104178B1
:100560008DF8761081788DF87710C1788DF8781035
:1005700001798DF8791041798DF87A1081798DF8AB
:100580007B10C1798DF87C10017A8DF87D10407A4E
:100590008DF87E00382212A96846FFF744FE0DF15F
:1005A000380C9CE80F0004F00DFC04F001F921B0B8
:1005B0000848BDEC028B5DF804EB01F049BA00007D
:1005C00000000000481600207C1600202C020020AD
:1005D0007402002054010020FEE70000014800F0F2
:1005E000A1BA00002C050020014800F09BBA0000D1
:1005F0008C050020014800F095BA00006C04002032
:10060000014800F08FBA0000CC04002001681823D4
:10061000CAB2103AB2FBF3F2054B6FF30901032A99
:100620009B5CC36500D9091D8165084670470000C1
:10063000104E000810B5014600208B698A6A4FF001
:10064000C07453B1B3F5005F15D072B1012A0CD05C
:10065000022A0AD0032A09D104E01AB1012A06D0DD
:10066000022A03D1C96AC90100D5012010BDC96A97
:10067000A142FAD010BD002AF7D0012AF2D0022AF6
:10068000F3D0032AF3D010BD30B50468256825F4F3
:1006900080252560046863608368402B036803D06D
:1006A00099600068C26030BD9A600068C16030BD6A
:1006B000704772B6FEE70000002229B101291AD066
:1006C00002291BD04FF440720E490B6823F440738B
:1006D0000B600B6813430B600A6822F0F8020A6093
:1006E0000A68022303EBC00002430A60086840F472
:1006F0008030086070474FF48072E5E74FF4007275
:10070000E2E70000103C02401348016889050FD55C
:10071000016821F400710160016841F40061016029
:10072000016821F400610160016841F40071016019
:10073000016849050FD5016821F4806101600168F5
:1007400041F480510160016821F480510160016829
:1007500041F4806101607047003C024008490A682A
:1007600022F440720A600A6842F004020A600A68D1
:100770004FF4803343EA002002430A6070470000D0
:10078000103C0240064A136823F440731360136858
:100790001360136843F00103136001707047000099
:1007A000103C0240094910B50C6824F440740C60F8
:1007B0000C6844F440740C600C6844F001040C6054
:1007C0000260BFF36F8F436010BD0000103C024019
:1007D000074A136823F440731360136843F480736B
:1007E0001360136843F00103136001807047000039
:1007F000103C0240074A136823F4407313601368E7
:1008000043F400731360136843F001031360016045
:1008100070470000103C024017490868C20617489C
:1008200005D5C26942F01002C26110220A600A684E
:10083000920605D5C26942F00802C26120220A6010
:100840000A68520605D5C26942F00402C26140221C
:100850000A600A68120605D5C26942F00202C26146
:1008600080220A600A68920705D5C26942F0200218
:10087000C2610220086070470C3C0240EC05002079
:1008800070B5114904460020C86100F07BFC0646A3
:100890000E4D09E0601C07D024B100F073FC801BF2
:1008A000A04201D9032070BD2868C003F2D4286893
:1008B000C00701D001202860286810F0F200F2D0B3
:1008C000FFF7AAFF012070BDEC0500200C3C0240A0
:1008D0002DE9F04F4FF4F0756C1EDDF824A00028D0
:1008E00001DA002002E0A84200DB2046002A01DAFB
:1008F000002202E0AA4200DB2246002900DA0021A1
:10090000002B00DA00234FF00009904207DD044677
:10091000104622460C46194623464FF001099042E4
:1009200010D1994201DA0A4600E01A4606DA194661
:1009300004E000BF4AF8202002F101028A42F9DDFA
:10094000BDE8F08F171A5C1A00D56442994201DAAB
:10095000012501E04FF0FF35AE463D1B0E46C4F1C8
:10096000000B1AE0B9F1000F08D08E4204D0A6EBBC
:10097000010CA3EB0C0C02E08C4600E0B4464AF8F4
:1009800020C09042DCD04FEA450CDC4501DD2D1B38
:10099000401CBC4501DA3D4476449042E2DDCFE79D
:1009A0002DE9F84F4FF4A0756C1EDDF828A0002942
:1009B00001DA002102E0A94200DB2146002B01DA26
:1009C000002302E0AB4200DB2346002800DA0020CF
:1009D000002A00DA00220027994206DD0C4619465B
:1009E00023460446104622460127994210D19042E0
:1009F00001DA034600E0134606DA104604E000BFC1
:100A00004AF8213003F101038342F9DDBDE8F88F94
:100A1000151A00D56D425C1A904201DA012601E0F8
:100A20004FF0FF3600962E1B8146C4F1000E1AE0EF
:100A300047B1814504D0A9EB000CA2EB0C0C02E0FD
:100A4000844600E0CC464AF821C09942DED04FEA05
:100A5000460BF34503DDDDF80080361BC144AB4592
:100A600001DA2E44491C9942E2DDCFE72DE9F0413D
:100A70000446876D00F086FB064694F83500002595
:100A8000022806D08020606584F834500120BDE83B
:100A9000F0812068016821F0160101602068416939
:100AA00021F080014161206C08B9A06C20B1206860
:100AB000016821F0080101602068016821F001014E
:100AC00001600CE000F05EFB801B052807D92020A8
:100AD0006065032084F8350084F83450D7E7206837
:100AE0000068C007EED194F85C103F208840B860E1
:100AF000012084F8350084F834500020C7E790F8CE
:100B00003510022903D0802141650120704705215D
:100B100080F835100068016821F0010101600020B3
:100B2000704700002DE9F84304464FF00009CDF866
:100B3000009063484FF41651A56D0068B0FBF1F7C3
:100B40002E6894F85C10082000FA01F131420FD0B1
:100B500021680A6852070BD50A6822F004020A606D
:100B600094F85C108840A860606D40F001006065FA
:100B700094F85C104FF0010808FA01F0304208D0F8
:100B800021684969090604D5A860606D40F002003B
:100B9000606594F85C1004208840304208D02168D9
:100BA0000968890704D5A860606D40F0040060659D
:100BB00094F85C1010208840304218D021680968F1
:100BC000090714D5A86020680168490304D50068A6
:100BD000000308D5A16C07E00168C90503D40168CA
:100BE00021F008010160216C09B12046884794F882
:100BF0005C1020208840304231D021680968C90645
:100C00002DD5A86094F8350005282068016806D025
:100C1000490347D5006800031DD4616C1CE021F036
:100C2000160101602068416921F080014161206C5A
:100C300008B9A06C20B12068016821F008010160AA
:100C400094F85C103F208840A86084F8358084F8D0
:100C50003490216D1FE0E16B09B120468847606D3B
:100C600000282BD0606DC00714D0052084F8350013
:100C70002068016821F0010101600098401C00908B
:100C8000B84203D820680068C007F6D184F83580E0
:100C900084F83490E16C002910D001B02046BDE802
:100CA000F04308470168C905D5D4016821F0100157
:100CB000016084F8358084F83490CCE7BDE8F8838F
:100CC000140000202DE9F041044600F05BFA0646CE
:100CD0005CB1022084F83500002584F83450206887
:100CE000016821F0010101600DE00120BDE8F08103
:100CF00000F048FA801B052805D9202060650320F4
:100D000084F83500F2E720680068C007F0D1226857
:100D1000116820480140D4E901031843D4E903369F
:100D20003343184363691843A3691843E3691843BD
:100D3000236A18430843616A042903D1D4E90B13D9
:100D400019430843106020684069666A20F0070173
:100D500030460E43012704280CD1A06A0643E06AFE
:100D600040B12046FFF766FC20B14020606584F862
:100D70003570BAE7206846612046FFF747FC94F8D3
:100D80005C203F2191408160656584F835700020CA
:100D9000ACE700003F8010F02DE9F0410446866D7D
:100DA00090F83400002501280DD0012084F834008B
:100DB00094F835700020012F07D084F83400022504
:100DC0002846BDE8F0810220FBE7022784F8357051
:100DD00060652046FFF758FC94F85C103F2088407F
:100DE000B0602068016841F016010160206C20B1FC
:100DF0002068016841F0080101602068016841F045
:100E000001010160DCE7000070B5044600F0BAF9AA
:100E10000546601C02D004480078044400F0B2F992
:100E2000401BA042FAD370BD080000202DE9F04716
:100E3000044622480F46017E01290AD0012180463E
:100E400001764CF250394846FFF71AFD020003D0F4
:100E50002FE00220BDE8F0874FF0FF3038602068B7
:100E6000174D012801D0A6681CE0207C6168FFF7BF
:100E700075FC4846FFF704FD0246286820F0040090
:100E8000286014E0217C3046FFF716FC4846FFF747
:100E9000F7FC0200286820F0FA00286001D03E60CC
:100EA00005E0761CD4E902100844B042EAD8FFF706
:100EB0002BFC002188F818101046CBE7EC05002029
:100EC000103C02400348016841F0004101600020ED
:100ED00070470000103C02402DE9F0471B4E0546CC
:100EE0001446307E1F468946012808D001203076FE
:100EF0004CF250384046FFF7C3FC18B114E0022012
:100F0000BDE8F0879DB1012D16D0022D19D02246E3
:100F10003B464846FFF746FC4046FFF7B1FC0C490C
:100F20000A6822F001020A6000213176E8E7E1B2A6
:100F30004846FFF727FCEFE7A1B24846FFF748FC19
:100F4000EAE721464846FFF755FCE5E7EC050020B7
:100F5000103C0240074900200A68002A09DA054AC5
:100F6000054B0C3A1360054B13600968002900DA41
:100F700001207047103C024023016745AB89EFCD4B
:100F80002DE9F84FDFF8BCA10022012503264FF020
:100F90000F090AF1040BAAF1040E00BF0B6805FA51
:100FA00002F42340A34270D10F7907F00307012F09
:100FB00001D0022F16D187684FEA420806FA08FCD2
:100FC00027EA0C07D1F80CC00CFA08FC4CEA070C15
:100FD000C0F808C04768A7430C79C4F300149440D4
:100FE0003C4344600C79E443A4070AD0C4684FEA48
:100FF000420C06FA0CF7BC438F6807FA0CF727433C
:10100000C7600C7904F00304022C12D1D40800EB61
:10101000840CDCF820405707FF0E09FA07F824EA91
:101020000804D1F8108008FA07F848EA0408CCF858
:10103000208004684FEA420C06FA0CF7BC430F7993
:1010400007F0030707FA0CF7274307604C6814F40E
:10105000403F70D03C4C276847F4804727602468A5
:1010600022F0030704F480440094384C07EB040C8E
:10107000DCF8084897074FEA177809FA08F7BC43E5
:10108000334FB84202D1002724E054E0314FB84238
:1010900001D101271EE0304FB84201D1022719E0EB
:1010A0002E4FB84201D1032714E02D4FB84201D191
:1010B00004270FE02B4FB84201D105270AE02A4F41
:1010C000B84201D1062705E0284FB84201D10727D1
:1010D00000E0082707FA08F72743CCF80878DAF881
:1010E00000405746D1F804C09C435FEACC2C00D5A1
:1010F0001C433C60DBF800405F46D1F804C09C43D1
:101100005FEA8C2C00D51C433C60DEF8004077463B
:10111000D1F804C09C435FEA8C3C00D51C433C6082
:10112000084F083F3C68D1F804C09C435FEACC3CC0
:1011300000D51C433C60521C102AFFF42FAFBDE8C1
:10114000F88F0000083C0140443802400030014064
:10115000000002400004024000080240000C02406F
:10116000001002400014024000180240001C02401F
:101170000069084000D0012070470AB181617047C2
:101180000904FBE701488068704700000800002060
:10119000024881680278114481607047080000208D
:1011A0000B4810B5016841F400710160016841F419
:1011B00080610160016841F480710160032000F0EA
:1011C0006FF80F2000F006F800F024F8002010BDA2
:1011D000003C024070B50D4D04464FF47A712878FA
:1011E000B1FBF0F00A490968B1FBF0F000F00CFB2C
:1011F00048B9102C07D200222146501E00F030F8CA
:1012000000206C6070BD012070BD0000080000204F
:10121000140000200A4808B5016841F480410160CB
:10122000006800F4804000900548001F016841F00C
:1012300080510160006800F08050009008BD0000FF
:1012400044380240002809DB00F01F0201219140D0
:101250004009800000F1E020C0F800117047000054
:10126000F0B40E4B1B680C46C3F30223C3F1070511
:10127000042D00D90425191D072901D2002300E0FF
:10128000DB1E012606FA05F1491E214099409E40C9
:10129000761E16403143F0BC03F0B4B90CED00E00B
:1012A000064900F0070208684FF6FF03184040EABD
:1012B0000220034A10430860704700000CED00E074
:1012C0000000FA052DE9F0470E46050065D0DFF86D
:1012D0001481D8F80000F7B200F00700B04207D23E
:1012E00088F80070D8F8000000F00700B04254D130
:1012F00028683D4C810712D5400703D5206840F48B
:10130000E05020602878000703D5206840F4604052
:1013100020602068A96820F0F00008432060287849
:10132000C0072DD0304968680839012812D002283A
:1013300013D0032811D00968890700292DDA216804
:1013400021F0030101432160FFF71CFF814641F2B8
:10135000883A0EE009688903EFE709688901ECE73C
:10136000FFF710FFA0EB0901514502D90320BDE8AA
:10137000F0872068696800F00C00B0EB810FEFD1B6
:10138000D8F80010404601F00701B14207D90770B4
:10139000006800F00700B04201D00120E7E728789C
:1013A000400705D52068E96820F4E0500843206034
:1013B0002878000706D52068296920F4604040EAB3
:1013C000C100206000F038F82168084AC1F3031119
:1013D000515CC8400649086006480068FFF7FAFEFD
:1013E0000020C4E7003C024008380240184E0008C4
:1013F000140000200C00002004480549006809681A
:10140000044AC1F38221515CC84070471400002097
:1014100008380240284E0008044805490068096859
:10142000044AC1F34231515CC840704714000020A7
:1014300008380240284E0008154810B5006810F022
:101440000C02144813D01449042A0FD0082A0ED1D4
:101450000F4C241F2268236802F03F025B0207D56D
:101460002068C0F38810A0FB010106E0084610BD0B
:101470002168C1F38811A1FB00010023FEF7A2FE41
:101480002168C1F30141491C4900B0FBF1F010BDD6
:10149000083802400024F40040787D012DE9F84F1F
:1014A00004006ED02078DFF84C93C007A9F1040542
:1014B0004AD009F104000168C1F38101012908D073
:1014C0000068C0F3810002280AD1D9F80000400268
:1014D00006D52868800337D560680028E1D033E05E
:1014E0006068B0F5803F10D0B0F5A02F286810D00C
:1014F00020F480302860286820F48020286060680C
:10150000A8B1FFF73FFE06460DE0286840F48030A2
:10151000F4E740F480202860F7E700BFFFF732FED1
:10152000801B642873D828688003F7D50CE0FFF788
:1015300029FE064605E000BFFFF724FE801B642855
:10154000F0D828688003F7D42078DFF8AC828007D1
:101550004FF0000A3ED5A748001D016811F00C0F9E
:1015600008D00068C0F3810002280BD1D9F8000030
:10157000400207D42868800716D5E068012800D10A
:1015800012E033E1E068B8B10120C8F80000FFF7CD
:10159000F9FD064605E000BFFFF7F4FD801B0228B9
:1015A000C0D828688007F7D52868216920F0F8009E
:1015B00040EAC10028600DE0C8F800A0FFF7E2FD96
:1015C000064604E0FFF7DEFD801B02281FD82868CE
:1015D0008007F7D42078000722D5864F87486169B5
:1015E000703771B101210160FFF7CCFD064604E0C0
:1015F000FFF7C8FD801B022809D838688007F7D597
:101600000EE0C0F800A0FFF7BDFD064605E082E051
:10161000FFF7B8FD801B02287DD838688007F7D413
:101620002078400768D5DFF8CCB100270BF13C0BE0
:10163000DBF80000C0000BD4DBF8001041F0805153
:10164000CBF80010DBF80000012700F0805000907C
:101650006B4E3068C00510D4306840F48070306044
:10166000FFF790FD009005E0FFF78CFD0099401A10
:10167000022850D83068C005F6D55E4EA0686C369A
:1016800001280FD00528306810D020F0010030600C
:10169000306820F004003060A068B8B1FFF772FD38
:1016A00000900FE0306840F00100F4E740F00400E3
:1016B0003060F7E7FFF766FD0099411A41F2883084
:1016C000814266D830688007F4D50EE0FFF75AFDF6
:1016D000009007E0FFF756FD0099411A41F288306B
:1016E000814256D830688007F4D42FB1DBF800105F
:1016F00021F08051CBF80010A069C8B33D49091D05
:101700000968C1F3810102294AD00228504607D056
:10171000C8F8600000E03CE0FFF734FD04463BE021
:101720004746C8F86000FFF72DFD064605E000BFFC
:10173000FFF728FD801B02282BD828688001F7D4EA
:10174000D4E907010843A16A2E4A490802EB014186
:10175000626A41EA8211084394F82C1040EA016160
:10176000C9F8001001203866FFF70CFD044606E0BA
:101770003EE000BFFFF706FD001B022809D82868DD
:101780008001F7D534E000BFFFF7FCFC001B022806
:1017900002D90320BDE8F88F28688001F4D427E03F
:1017A0000128F7D0D9F80000E26900F480019142E5
:1017B0001CD1226A00F03F01914217D147F6C07157
:1017C000626A0140B1EB821F10D1A26A4FF0FF3371
:1017D00000F4403103EB5202B1EB024F06D194F812
:1017E0002C1000F07060B0EB016F01D00120D1E748
:1017F0000020CFE70438024000004742800E4742F5
:10180000007000400000FFFF10B5401EB0F1807F67
:1018100001D3012010BD4FF0E02460610F2160175B
:1018200002F0F0FE0020A06107202061002010BD22
:101830007047704710B590F83C20012A22D0012251
:1018400080F83C20CA688C6822F4407222434C68BD
:1018500022F4806222430C6822F4006222430C6965
:1018600022F4805222434C6922F400522243C96977
:10187000002322F480420A4301684A6480F83C3025
:10188000002010BD022010BD70B590F83C20012A48
:1018900032D0012480F83C40022280F83D200368C9
:1018A0005A689D6822F070060A6832435A60134BEA
:1018B00002689A4214D0B2F1804F11D0104B9A4274
:1018C0000ED0104B9A420BD00F4B9A4208D00F4BC0
:1018D0009A4205D00E4B9A4202D00E4B9A4204D146
:1018E000496825F080031943916080F83D4000214C
:1018F00080F83C10084670BD022070BD0000014019
:101900000004004000080040000C004000040140BA
:10191000004001400018004010B5040003D094F8C6
:101920003D0010B107E0012010BD002084F83C000C
:10193000204600F01FF8022084F83D00211D206899
:1019400002F090FA012084F8460084F83E0084F802
:101950003F0084F8400084F8410084F8420084F895
:10196000430084F8440084F8450084F83D000020DA
:1019700010BD000008B52E4902682E488A4207D1E2
:10198000016841F010010160006800F0100020E0E3
:1019900029498A4211D1016841F0200101600068A3
:1019A000002200F02000009011463720FFF758FC7D
:1019B000BDE808403720FFF745BC1E491F4B091DF5
:1019C0009A4208D1086840F002000860086800F0F8
:1019D0000200009008BD1A4B9A4207D1086840F4F3
:1019E00000300860086800F40030F2E7154B9A42B6
:1019F00007D1086840F480200860086800F480205F
:101A0000E7E711498A4207D1016841F0800101608E
:101A1000006800F08000DCE70C498A42DAD10168F6
:101A200041F480710160006800F48070D1E700002B
:101A30000010004040380240001400400004014003
:101A40000044014000480140001C004000200040CC
:101A500090F83D10012901D001207047022180F843
:101A60003D100168CA6842F00102CA60006811496D
:101A7000884214D0B0F1804F11D00F4988420ED067
:101A80000E4988420BD00E49884208D00D49884241
:101A900005D00D49884202D00C49884204D18168A2
:101AA00001F00701062903D0016841F0010101603E
:101AB0000020704700000140000400400008004082
:101AC000000C0040000401400040014000180040AC
:101AD00070B5044690F83C000025012817D0012677
:101AE00084F83C60022084F83D002068826822F07F
:101AF000770222F47F4282600868502838D00DDCDB
:101B000020284FD005DC90B3102811D14AE00220E4
:101B100070BD302846D040280AD13BE060282FD045
:101B200070280DD0B0F5805F03D0B0F5005F12D003
:101B3000012584F83D60002084F83C00284670BDF3
:101B4000CB68D1E90121206802F005FA206881689C
:101B500041F0770109E0CB68D1E90121206802F06A
:101B6000FAF92068816841F480418160E1E719E079
:101B7000CA684968206802F0C3FA5021206806E06C
:101B8000CA684968206802F0CCFA6021206802F037
:101B9000ECF9CEE7CA684968206802F0B1FA402142
:101BA0002068F4E7226801461046F0E72DE9F0418D
:101BB0000D46040003D094F83D0018B108E0012060
:101BC000BDE8F081002084F83C00204600F040F899
:101BD000022084F83D002068816844F207029143A6
:101BE0008160211D206802F03DF9226890689169AA
:101BF000166A2B68AF69034340F20330814341EA20
:101C00000721A868EF6908434FF6FC418843E9685B
:101C100040EA0720014328692F6A000140EA0730A3
:101C2000084369686D6926F0AA0646EA0515294346
:101C300093602268906154F8460B0162012004F819
:101C40001F09E0752076E0762077A0750020B7E7C1
:101C500030B587B0044614216846FEF7FDFA2468C3
:101C60003E4A00213E480223012594421BD13C4AB2
:101C70001432146844F001041460126802F0010286
:101C80000592026842F010020260006800F0100045
:101C900005904FF420600090CDE90131CDE90315A6
:101CA0006946304838E02E4A1032B4F1804F1BD0DC
:101CB0002D4DAC4234D1146844F002041460126813
:101CC00002F002020592026842F00202026000681D
:101CD00000F00200059030200090CDE90131CDE9FF
:101CE00003136946214817E0146844F001041460A6
:101CF000126802F001020592026842F001020260DD
:101D0000006800F00100059003200090CDE901314A
:101D1000CDE9031569461648FFF732F907B030BD23
:101D2000144DAC42FAD1146844F0040414601268F3
:101D300002F004020592026842F0080202600068A4
:101D400000F0080005904FF440500090CDE90131BB
:101D5000CDE9031369460848DEE7000000000140B2
:101D600030380240001002400004004000040240ED
:101D70000000024000080040000C024070472DE9BE
:101D8000F04104460068C66805694FF00007A907DE
:101D900013D5B10711D5F91E016101202077206804
:101DA00080698007204602D0FFF7E8FF04E000F0DA
:101DB0001AF9204600F0DAF92777680716D5700778
:101DC00014D521686FF00400086102202077206894
:101DD000806910F4407F204602D0FFF7CFFF04E077
:101DE00000F001F9204600F0C1F92777280715D542
:101DF000300713D521686FF00800086104202077B0
:101E00002068C0698007204602D0FFF7B7FF04E0D2
:101E100000F0E9F8204600F0A9F92777E80616D582
:101E2000F00614D521686FF01000086108202077B3
:101E30002068C06910F4407F204602D0FFF79EFF63
:101E400004E000F0D0F8204600F090F92777E8078A
:101E500008D0F00706D021686FF001000861204625
:101E600000F0EAF9280608D5300606D521686FF09B
:101E7000800008612046FFF7DBFC680608D5700685
:101E800006D521686FF040000861204600F0ECF9AB
:101E9000A8060AD5B00608D521686FF020000861B1
:101EA0002046BDE8F041FFF7C4BCBDE8F08100006A
:101EB00070B586B0044614216846FEF7CDF9246853
:101EC0002B4800222B490223032584420FD10868A6
:101ED00040F0040008600868694600F004000590BE
:101EE0004FF470700090CDE9013223480DE0234E8D
:101EF0002348B4420FD10C6844F002040C60096816
:101F000001F00201059181152DE0CDE90325FFF7D0
:101F100037F806B070BD1B4EB44209D10C6844F0CE
:101F200002040C60096801F00201059171151AE0C4
:101F3000154E09251548B44209D10C6844F0010436
:101F40000C60096801F00101059140210BE0104E81
:101F5000B442DED10C6844F001040C60096801F061
:101F60000101059180210091CDE901326946CCE75C
:101F700000040140303802400008024000440140A3
:101F80000004024000480140001C004000000240E4
:101F90000020004070B5044690F83C000025012860
:101FA0000FD0012084F83C006AB1042A0FD0082A1F
:101FB00011D00C2A13D00125002084F83C002846BB
:101FC00070BD022070BD206801F0D8FFF4E72068E2
:101FD00002F004F8F0E7206802F036F8ECE7206839
:101FE00002F066F8E8E7704710B5040003D094F8F3
:101FF0003D0010B107E0012010BD002084F83C0036
:10200000204600F01EF8022084F83D00211D2068C3
:1020100001F028FF012084F8460084F83E0084F88F
:102020003F0084F8400084F8410084F8420084F8BE
:10203000430084F8440084F8450084F83D00002003
:1020400010BD704770B5044690F83C0000260D4660
:1020500001280FD0012084F83C006AB1042A1DD069
:10206000082A2FD00C2A3FD00126002084F83C00FB
:10207000304670BD022070BD206801F07FFF2068EF
:10208000816941F0080181612068816921F00401C2
:102090008161206881692A69114311E0206801F09B
:1020A0009DFF2068816941F4006181612068816938
:1020B00021F480618161206881692A6941EA0221F5
:1020C0008161D2E7206801F0BFFF2068C16941F05B
:1020D0000801C1612068C16921F00401C161206863
:1020E000C1692A69114311E0206801F0E1FF20680D
:1020F000C16941F40061C1612068C16921F4806156
:10210000C1612068C1692A6941EA0221C161ACE765
:1021100010B5040003D094F83D0010B107E0012091
:1021200010BD002084F83C00204600F01EF802207C
:1021300084F83D00211D206801F094FE012084F800
:10214000460084F83E0084F83F0084F8400084F89C
:10215000410084F8420084F8430084F8440084F885
:10216000450084F83D00002010BD70477047000016
:1021700010B50446022249B104290ED0082913D013
:1021800094F84100012816D0012010BD94F83E00BB
:102190000128F9D184F83E200FE094F83F0001288F
:1021A000F2D184F83F2008E094F840000128EBD1F8
:1021B00084F8402001E084F841200122206801F0E9
:1021C000BDFE16492068164A884201D0904203D1CC
:1021D000436C43F4004343642068884213D0B0F159
:1021E000804F10D00F4988420DD00F4988420AD045
:1021F0000E49884207D0904205D00D49884202D04E
:102200000C49884204D1816801F00701062903D0F6
:10221000016841F001010160002010BD0000014093
:10222000000401400004004000080040000C004091
:10223000004001400018004010B5044600680849FD
:10224000884203D101F0D8FC01F02AFD054920683D
:10225000884203D1BDE8104002F008BC10BD000068
:102260000010004000140040704738B5044690F854
:102270004200202801D0022038BD61B15AB10120AE
:10228000206300206063204602F01EF90028F3D18D
:10229000216B012901D0012038BD21680A684968F5
:1022A000009121680C3151E8002F42F0100241E802
:1022B0000023002BF5D138BDF0B5544E8FB0B0429D
:1022C0006FD100296DD052A15948FDF7D0FF0028E9
:1022D00010D1032257A15648FDF7ECFF544D564F3D
:1022E000A5F1280438B1032254A12846FDF7E2FFE6
:1022F000002857D078E0ED1C23212846FDF7C9FFC0
:10230000002871D06846009502F014FD20806846D0
:1023100002F010FD6080684602F00CFD20816846E6
:1023200002F008FD6081684602F004FD20826846E4
:1023300002F000FD6082684602F0FCFC20836846E3
:1023400002F0F8FC6083684602F0F4FCA080684666
:1023500002F0F0FCE080684602F0ECFCA0816846E8
:1023600002F0E8FCE081684602F0E4FCA0826846E6
:1023700002F0E0FCE082684602F0DCFCA0836846E4
:1023800002F0D8FCE083684602F0D4FCA0846846E2
:1023900002F0D0FCE08400202084608401203870AA
:1023A00022E030E0ED1C23212846FDF772FFD8B172
:1023B0000DA80D9502F0BEFC20840DA802F0BAFC19
:1023C0006084034602203870228C02B963B11CA1DC
:1023D000684602F003F96846FDF765FF82B26423A0
:1023E00069460A4800F0AEFAC8211148FDF734FFEB
:1023F000C8220F490548FFF738FFF06B00680168F5
:1024000021F0080101600FB0F0BD0000DC030020E6
:10241000214D4F44455F4348414E4745445F544F2B
:102420005F475245454E5F4C4153455221000000E5
:10243000D816002040524F002C0000204047440096
:102440005243565F4C415345523A25642C25640D46
:102450000A00000070470000F8B5016804460868EB
:10246000CA684B6910F00F0F4FF0000559D003F008
:10247000010602F49077374365D0C10705D0D10536
:1024800003D5616C41F001016164410705D5D907AD
:1024900003D0616C41F002016164810705D5D90761
:1024A00003D0616C41F004016164010707D502F0BB
:1024B0002001314303D0616C41F008016164616C1B
:1024C00000293AD0800604D5900602D5204601F0B6
:1024D00014FF20684069616CC0F38010090700D4C4
:1024E00060B3204601F0D4FE20684069400621D543
:1024F0002068143050E8001F21F0400140E800122D
:10250000002AF5D1E06BA8B16E490165E06BFEF7DA
:10251000F6FA002811D0E06B016D01B0BDE8F04083
:10252000084783060FD593060DD52046BDE8F84031
:1025300001F0E3BE2046FFF78DFFF8BD2046FFF710
:1025400089FF6564F8BD266B2023012E7DD1C60668
:102550007BD5D60679D508684868009048694FF061
:102560000206400641D5E16B086840680004000C93
:10257000E8D0A28D8242E5D9E085C869B0F5807FB8
:102580002DD020680C3050E8001F21F4807140E805
:102590000012002AF5D12068143050E8001F21F005
:1025A000010140E80012002AF5D12068143050E8FB
:1025B000001F21F0400140E80012002AF5D184F804
:1025C0004230256320680C3050E8001F21F01001D4
:1025D00040E80012002AF5D1E06BFEF747FA666387
:1025E000A08DE18D401A81B22AE0A08DE18D401AC4
:1025F00081B2E08D0028A5D00029A3D022680C323A
:1026000052E8000F20F4907042E80007002FF5D147
:102610002068143050E8002F22F0010240E8002723
:10262000002FF5D184F84230256320680C3050E843
:10263000002F22F0100240E80023002BF5D1666342
:102640002046FFF739FEF8BDFFE705062BD5150636
:1026500029D594F841002128F5D1A068B0F5805F14
:1026600001D12069B0B1206A411C21622168007843
:102670004860E08C401E0004000CE084E3D1206838
:10268000C16821F08001C1602068C16841F040014B
:10269000C160D8E7206A0088C0F308004860206A5B
:1026A000801C2062E5E74006CDD55006CBD5CA6830
:1026B000204622F04002CA6084F8413000F0CEF992
:1026C000C1E700004741000870B5040004D094F849
:1026D0004100002510B106E0012070BD84F8405093
:1026E000204600F023F8242084F841002068C168C7
:1026F00021F40051C160204601F060FE20680169AC
:1027000021F4904101612068416921F02A01416171
:102710002068C16841F40051C1606564202084F8DC
:10272000410084F842006563002070BD2DE9F04F40
:1027300087B0044614216846FDF78EFD7548744E37
:102740002768744910380222032300254FF4406C97
:10275000B74217D10C6844F400240C60096801F4F6
:1027600000210591016841F0040101600068CDF885
:1027700000C000F0040005900820CDE90330694650
:102780006548C0E0DFF894810726DFF894E14FF058
:10279000400B4FF000694FF4806A474549D15D49CD
:1027A000091D0F6847F010070F60096801F010015C
:1027B0000591016841F0010101600068694600F07F
:1027C000010005904FF4C0608DE82500CDE9033687
:1027D0007046FEF7D5FB544E5248C8463060C6E9F5
:1027E0000195C6E9035A7561B561F56135625746D1
:1027F00030467562FEF766FA08B1FDF75AFFE663E8
:10280000B463494E474860367830C6E9035775616E
:10281000B561F5613562756286E801093046FEF7FB
:1028200051FA08B1FDF745FFA663B46307B0BDE8F0
:10283000F08FDFF8F88047454CD10F6847F4003738
:102840000F60096801F400310591016841F0010150
:1028500001600068694600F0010005900C208DE8D9
:102860002500CDE903367046FEF78AFB2E4E304830
:10287000C0364F463060C6E90195C6E9035A756116
:10288000B561F5613562D04630467562FEF71AFAD9
:1028900008B1FDF70EFFE663B463264E2448C6E98F
:1028A00003587561B561F56135621830756286E867
:1028B00081083046FEF706FA08B1FDF7FAFEA66376
:1028C000002211462620B463FEF7CAFC2620FEF73C
:1028D000B9FCABE7184CA742A8D10C6844F480249B
:1028E0000C60096801F480210591016841F0020142
:1028F00001600068CDF800C000F00200CDE904607E
:102900000E4869460393CDE90125FEF739FB8DE7B3
:10291000004C0040403802400008024000100140D6
:1029200000000240406402406C040020004400406B
:10293000886002408C0500200048004000040240EE
:10294000704770472DE9F843044690F841009846D7
:1029500016460D46202802D00220BDE8F88385B136
:102960007EB100206064212084F84100FEF70AFC5B
:10297000A6848146E684A0682027B0F5805F02D057
:1029800003E00120E9E7206910B12E4600250EE0A2
:1029900000260CE08021204601F0DEFDA8B9C6B17A
:1029A00016F8010B21684860E08C401EE084E08C42
:1029B0004B464FF00002CDF800800028EAD14FF0DE
:1029C0004001204601F0C8FD40B184F84170032069
:1029D000C3E735F8020BC0F30800E3E784F8417061
:1029E0000020BAE770B5044690F84100202801D0D5
:1029F000022070BD49B342B32162A284E284002068
:102A00006064212384F84130A56B114BEB63A56B07
:102A1000104B2B64A56B104BEB64A36B18652568FA
:102A200013462A1DA06BFEF7B7F921686FF040002E
:102A300008602068143050E8001F41F0800140E831
:102A40000012002AF5D1002070BD012070BD0000E9
:102A50004542000887420008574100087047704708
:102A6000FEE72DE9F0411C4615460E460746802834
:102A700000D37F27802D00D37F25A02E00D39F2653
:102A8000A02C00D39F242A2000F050FB002000F04F
:102A90004BFBF8B200F048FB002000F045FBE8B229
:102AA00000F042FB2B2000F041FB002000F03CFB3B
:102AB000F0B200F039FB002000F036FBE0B200F08D
:102AC00033FBBDE8F0412C2000F030BB2DE9FE4F78
:102AD000161ACDE900104FF000085D1A47464FF076
:102AE000FF30002E02DD4FF0010102E003D14FF074
:102AF00000018B4602E08346C6F10006002D02DD90
:102B00004FF0010002E003D14FF00000824602E0E6
:102B10008246C5F10005AE4201DD344600E02C4698
:102B2000601C4FF00009029019E000980C9A81B2E5
:102B3000019880B200F018F8B0442F44A04504DD9D
:102B40000198A8EB040858440190A74203DD0098BF
:102B50003F1B5044009009F101001FFA80F90299CF
:102B60008945E2DBBDE8FE8F10B514460B460246F0
:102B7000FFF777FF2046BDE8104000F0CBBA2DE903
:102B8000F04780461F46581E83B21646501E82B23A
:102B90000C464046DDF82090FFF763FF0AE045460B
:102BA00004E0484600F0B6FA6D1CADB2B542F8D369
:102BB000641CA4B2BC42F2D3BDE8F08710B586B065
:102BC00014216846FDF748FB1948016841F00401EB
:102BD0000160016801F004010591016841F00801FC
:102BE00001600068134C00F0080005900122BE212E
:102BF0002046FEF7C2FABE200121CDE900010220E5
:102C0000CDE9021069462046FEF7BAF901221021EB
:102C10002046FEF7B2FA012220212046FEF7ADFA47
:102C2000012280212046FEF7A8FA06B010BD000060
:102C300030380240000C024038B5FFF7BFFFC34DEB
:102C4000012210212846FEF798FA01220421284685
:102C5000FEF793FA002202212846FEF78EFA0022A0
:102C600008212846FEF789FA7820FEF7CDF80122E0
:102C700008212846FEF781FA7820FEF7C5F80120E2
:102C800000F054FA9620FEF7BFF8112000F04EFA3B
:102C90009620FEF7B9F83A2000F048FA052000F037
:102CA00059FAB12000F042FA022000F053FA352020
:102CB00000F050FA362000F04DFAB22000F036FA5B
:102CC000022000F047FA352000F044FA362000F0E8
:102CD00041FAB32000F02AFA022000F03BFA352036
:102CE00000F038FA362000F035FA022000F032FA0F
:102CF000352000F02FFA362000F02CFAB42000F036
:102D000015FA032000F026FAC02000F00FFAA220E6
:102D100000F020FA022000F01DFA842000F01AFAD8
:102D2000C12000F003FAC52000F014FAC22000F020
:102D3000FDF90D2000F00EFA002000F00BFAC32080
:102D400000F0F4F98D2000F005FA2A2000F002FAD4
:102D5000C42000F0EBF98D2000F0FCF9EE2000F02B
:102D6000F9F9C52000F0E2F9122000F0F3F9B020E3
:102D700000F0DCF9002000F0EDF9362000F0D6F983
:102D8000C82000F0E7F9E02000F0D0F9042000F0BE
:102D9000E1F9222000F0DEF9072000F0DBF90A203B
:102DA00000F0D8F92E2000F0D5F9302000F0D2F94B
:102DB000252000F0CFF92A2000F0CCF9282000F0DF
:102DC000C9F9262000F0C6F92E2000F0C3F93A20F8
:102DD00000F0C0F9002000F0BDF9012000F0BAF9C0
:102DE000032000F0B7F9132000F0B4F9E12000F05F
:102DF0009DF9042000F0AEF9162000F0ABF9062092
:102E000000F0A8F90D2000F0A5F92D2000F0A2F99E
:102E1000262000F09FF9232000F09CF9272000F0E5
:102E200099F9272000F096F9252000F093F92D203C
:102E300000F090F93B2000F08DF9002000F08AF9B5
:102E4000012000F087F9042000F084F9132000F03D
:102E500081F92A2000F06AF9002000F07BF90020B7
:102E600000F078F9002000F075F97F2000F072F989
:102E70002B2000F05BF9002000F06CF9002000F03E
:102E800069F9002000F066F99F2000F063F9362010
:102E900000F04CF9C82000F05DF9212000F046F95F
:102EA000292000F043F91420FDF7AEFF2C2000F09C
:102EB0003DF90024A0238022214620460094FFF7FC
:102EC0005EFE1420FDF7A0FF0021A023802208460B
:102ED0000094FFF754FE1420FDF796FF0021A02375
:102EE000802208460094FFF74AFE1420FDF78CFF6D
:102EF0002C2000F01BF96420FDF786FF012202213F
:102F00002846FEF73AF92A2000F010F9204600F092
:102F100021F9204600F01EF9204600F01BF97F2021
:102F200000F018F92B2000F001F9204600F012F90A
:102F3000204600F00FF9204600F00CF99F2000F029
:102F400009F9BDE838402C2000F0F0B8000C024030
:102F50002DE9FF4F81B00446DDF83C9000904FEA28
:102F600059074FF00008780700D0012000EBD70088
:102F700000FB09FB203AD0B2039002980299484422
:102F8000401E83B2E019401E82B22046FFF769FD61
:102F9000002553E0B9F10C0F2AD0B9F1100F2ED053
:102FA000B9F1180F2ED0B9F1200F49D12749039854
:102FB00001EB8010002610F805A0109800284FF0B3
:102FC000010000FA06F000EA0A0022D020B12046F3
:102FD000049A0299FFF7C8FD641C0098A4B2201A55
:102FE000B84225D10298009C401C80B2029023E098
:102FF0000398174900EB400001EB8000DAE7154920
:10300000039803E00398144900EB400001EB001023
:10301000D0E708B1049800E00E9800F07BF808F1C2
:103020000100C0B2B0FBF7F1804607FB118050B140
:10303000761CF6B2082EC0D36D1CADB25D45A9D387
:1030400005B0BDE8F08F4FF00008F5E7786A00089A
:10305000444E0008B8520008A85800082DE9FF4F58
:1030600083B00026DDE911B81D4682464FEA5807B5
:103070003446B1462CE0281B401EC1B20A2001F0A4
:10308000F7FD0599B1FBF0F00A21B0FBF1F201FB6D
:10309000120026B9691E8C4201DA58B1012630307F
:1030A000C2B204FB07A0CDF800B0CDE9018980B21F
:1030B000109B08E0CDF800B004FB07A0CDE9018922
:1030C000109B80B220220499FFF742FF641CE4B2F7
:1030D000AC42D0D307B0BDE8F08F2DE9FE4F994642
:1030E000DDE90D6714468A460546DDF830800CE0C0
:1030F000CDF800804B4651462846CDE90167FFF7E1
:1031000027FF05EB560085B2641C2278002AEFD118
:10311000BDE8FE8F10B50446000A00F01BF8E0B2CF
:10312000BDE8104000F016B800F014B870B5084CB7
:103130000546002204212046FEF71FF8284600F02D
:1031400009F82046BDE8704001220421FEF715B8B9
:10315000000C0240F8B5274E0746002210213046E9
:10316000FEF70BF800252C46002220213046FEF702
:1031700004F88DF8004004E09DF80000401C8DF834
:1031800000009DF800000228F6D3380601D5012280
:1031900000E0002280213046FDF7EFFF8DF800406F
:1031A00005E000BF9DF80000401C8DF800009DF870
:1031B00000000228F6D3012220213046FDF7DDFF72
:1031C0008DF8004005E000BF9DF80000401C8DF820
:1031D00000009DF800000228F6D378066D1C070E4B
:1031E000EDB2082DC0D33046BDE8F84001221021D1
:1031F000FDF7C3BF000C02402DE9FE4FDFF8E4A24B
:103200009AF8000001287CD14FF6FF7500215A235F
:10321000802208460095FFF7B2FCB34CE189608933
:1032200001F0C3FA01F0B4FD1FFA80F8A1892089EA
:1032300001F0BBFA01F0ACFD87B2E188608801F0D3
:10324000B4FA01F0A5FD86B2A188208801F0ADFA9C
:1032500001F09EFD4FF47841009180B243463A461A
:103260003146FFF733FCE18A608A01F09EFA01F0F3
:103270008FFD1FFA80F8A18A208A01F096FA01F0EA
:1032800087FD87B2E189608901F08FFA01F080FD46
:1032900086B2A189208901F088FA01F079FD4FF604
:1032A000E071009180B243463A463146FFF70EFC8A
:1032B000E18B608B01F079FA01F06AFD1FFA80F86A
:1032C000208B014601F071FA01F062FD87B2E18ABC
:1032D000608A01F06AFA01F05BFD86B2A18A208A59
:1032E00001F063FA01F054FD1F21009180B24346C2
:1032F0003A463146FFF7EAFBE18B608B01F055FA65
:1033000000E0EDE001F044FD1FFA80F8208B01465B
:1033100001F04BFA01F03CFD87B2E188608801F0D2
:1033200044FA01F035FD86B2A188208801F03DFA0B
:1033300001F02EFD4FF4FC6980B243463A46314617
:10334000CDF80090FFF7C2FB608C01F021FD86B242
:10335000208C01F01DFD80B24A463146FFF704FC87
:10336000A08C01F015FD86B2A08C01F011FD80B299
:103370004BF640423146FFF7F7FB0024102600953C
:10338000CDE90164234659A261210120FFF7A5FE82
:10339000584F8DE8700097ED050A02236121BCEEBD
:1033A000C00A10EE100A82B22120FFF757FE0095E6
:1033B000CDE90164002350A261213920FFF78DFE81
:1033C0008DE8700097ED070A02236121BCEEC00A68
:1033D00010EE100A82B25920FFF740FE0095CDE9A9
:1033E0000164002346A271210120FFF776FEDFF879
:1033F00018818DE8700098ED050A02237121BCEE5A
:10340000C00A10EE100A82B22120FFF727FE0095B5
:10341000CDE9016400233DA271213920FFF75DFE53
:103420008DE8700098ED070A02237121BCEEC00AF6
:1034300010EE100A82B25920FFF710FE0095CDE978
:103440000164002333A281210120FFF746FE8DE8AD
:10345000700097ED020A03238121BCEEC00A10EE32
:10346000100A82B21920FFF7F9FD0095CDE9016439
:10347000002329A281213920FFF72FFE8DE870005B
:1034800098ED020A03238121BCEEC00A10EE100A57
:1034900082B25920FFF7E2FD0095CDE901640023D7
:1034A0001EA290210120FFF718FE1D488DE8700034
:1034B0000278012390211120FFF7D0FD0095CDE97E
:1034C0000164002317A290212120FFF706FE8DE85A
:1034D000700001239AF8002090213120FFF7BEFDF3
:1034E000BDE8FE8F18000020B01600205331503A7E
:1034F00000000000481600205331443A000000004C
:103500005332503A000000007C1600205332443AF7
:103510000000000065313A0065323A006D3A000063
:1035200019000020703A0000194808B5016841F4FC
:1035300000110160016801F400110091016841F47B
:10354000800101600068002200F4800000901146B4
:103550001020FDF785FE1020FDF774FE00221146B5
:103560001120FDF77DFE1120FDF76CFE00221146B3
:103570003A20FDF775FE3A20FDF764FE0022114661
:103580004620FDF76DFEBDE808404620FDF75ABE17
:103590003038024070B586B014216846FCF75CFEF6
:1035A00027480024016841F010010160016801F022
:1035B00010010591016841F001010160016801F00D
:1035C00001010591016841F002010160016801F00B
:1035D00002010591016841F008010160016801F0F4
:1035E00008010591016841F0040101600068154E71
:1035F00000F004000590002247F27C013046FDF700
:10360000BCFD01250420CDE90005CDE90254694641
:103610003046FDF7B5FC47F278000090CDE9015443
:10362000694630460394FDF7ABFC4FF47040CDE99A
:103630000004694604480294FDF7A2FC06B070BD80
:1036400030380240001002400004024010B588B03B
:103650001C216846FCF700FE15481449002401604F
:10366000A721C0E9011444F61F61C0E90314846175
:10367000FEF752F908B1FDF71CF80D48FEF748FDBA
:1036800008B1FDF716F86020CDE90004029400228D
:10369000694607480494FEF7D5FC08B1FDF709F820
:1036A0000348FEF705FC08B010BD000000440140CF
:1036B0002C02002010B588B01C216846FCF7CCFD18
:1036C0001548144900240160A721C0E9011444F6FB
:1036D0001F61C0E903148461FEF71EF908B1FCF70D
:1036E000E8FF0D48FEF714FD08B1FCF7E2FF60208B
:1036F000CDE9000402940022694607480494FEF7CD
:10370000A1FC08B1FCF7D5FF0348FEF7D1FB08B0D8
:1037100010BD0000004801407402002010B588B0C0
:103720001C216846FCF798FD1548144900240160E7
:10373000A721C0E9011444F61F61C0E903148461A4
:10374000FEF7EAF808B1FCF7B4FF0D48FEF7E0FC1D
:1037500008B1FCF7AEFF6020CDE90004029400221E
:10376000694607480494FEF76DFC08B1FCF7A1FF19
:103770000348FEF79DFB08B010BD0000001C004090
:10378000BC02002010B588B01C216846FCF764FD1F
:10379000144813490024C0E900144FF6FF71C0E932
:1037A000024104618461FEF7B7F808B1FCF781FFBC
:1037B0000C48FEF7ADFC08B1FCF77BFF6020CDE9BB
:1037C000000402940022694606480494FEF73AFC7D
:1037D00008B1FCF76EFF0348FEF76AFB08B010BDA6
:1037E000002000400403002010B58CB0242168465E
:1037F000FCF732FD00241648099414490A94C0E9E4
:1038000000144FF6FF71C0E9024104614461846114
:103810000120CDE90004CDE902040494CDE905407E
:10382000079469460A480894FEF7C0F908B1FCF706
:1038300040FF099409A906480A94FEF725F80028D4
:1038400001D0FCF736FF0CB010BD000000000140B5
:103850003400002010B58CB024216846FCF7FCFC35
:103860000024144809944FF080410A94C0E90014E0
:10387000611EC0E90241046184610120CDE90004B8
:10388000CDE902040494CDE905400794694609484E
:103890000894FEF78BF908B1FCF70BFF099409A90E
:1038A00004480A94FDF7F0FF002801D0FCF701FF5F
:1038B0000CB010BD7C00002010B58CB024216846EF
:1038C000FCF7CAFC00241548099413490A94C0E97E
:1038D00000144FF6FF71C0E90241046184610120C8
:1038E000CDE90004CDE902040494CDE90540079434
:1038F00069460A480894FEF759F908B1FCF7D9FE61
:10390000099409A905480A94FDF7BEFF002801D0D3
:10391000FCF7CFFE0CB010BD00040040C400002036
:1039200010B58CB024216846FCF796FC002415489D
:10393000099413490A94C0E900144FF6FF71C0E9D5
:103940000241046184610120CDE90004CDE9020453
:103950000494CDE90540079469460A480894FEF7A7
:1039600025F908B1FCF7A5FE099409A905480A94B0
:10397000FDF78AFF002801D0FCF79BFE0CB010BDBC
:10398000000800400C0100201CB500240E480094E3
:103990000C4901940160A721C0E9011444F61F619C
:1039A0008461C160FDF7B8FF08B1FCF782FE0094A6
:1039B000694605480194FDF767FF002801D0FCF730
:1039C00078FE1CBD00100040540100201CB50024EE
:1039D0000E4800940C4901940160A721C0E901142C
:1039E00042F20F718461C160FDF796FF08B1FCF7E8
:1039F00060FE0094694605480194FDF745FF0028E4
:103A000001D0FCF756FE1CBD001400409C010020B4
:103A100010B596B000240F9410941194129413943E
:103A20001C2168461494FCF717FC202107A8FCF71A
:103A300013FC37483549C0E900144FF6FF71C0E95F
:103A40000241046144618461FDF766FF08B1FCF73F
:103A500030FE4FF480500F900FA92D48FEF738F834
:103A600008B1FCF726FE2A48FEF752FB08B1FCF726
:103A700020FE2748FEF7B8FA08B1FCF71AFE1394A7
:103A800013A923481494FDF7FFFE08B1FCF711FEBB
:103A90006020CDE90004029403940494059400226C
:103AA00069461B480694FEF7CDFA08B1FCF701FE03
:103AB0000422694616480094FEF76CFA08B1FCF738
:103AC000F8FD082269461248FEF764FA08B1FCF7CF
:103AD000F0FD0C2269460E48FEF75CFA08B1FCF7CF
:103AE000E8FD0794089409944FF400500A94CDE936
:103AF0000B4007A906480E94FDF79CFE08B1FCF7A1
:103B0000D8FD0348FEF7D4F916B010BD00040140FB
:103B1000E40100200C4810B50A4901604FF4E1317E
:103B20004160002181600C22C160C0E90412816102
:103B3000C161FEF7C9FD002803D0BDE81040FCF7C5
:103B4000B8BD10BD004C00404C0300200C4810B51F
:103B50000A4901604FF4E1314160002181600C228B
:103B6000C160C0E904128161C161FEF7ADFD0028AA
:103B700003D0BDE81040FCF79CBD10BD0010014013
:103B8000940300200C4810B50A4901604FF4E1315C
:103B90004160002181600C22C160C0E90412816192
:103BA000C161FEF791FD002803D0BDE81040FCF78D
:103BB00080BD10BD00440040DC0300200C4810B55F
:103BC0000A4901604FF4E1314160002181600C221B
:103BD000C160C0E904128161C161FEF775FD002872
:103BE00003D0BDE81040FCF764BD10BD00480040A4
:103BF00024040020FEE7FEE7264810B5818C264C01
:103C000000EE101AA2B0B8EE400A84ED000A008C53
:103C100000EE100A2046B8EE400A84ED010A01F0D9
:103C20002FF83D221D490FA8FCF7FDFA1B4810F89C
:103C30003D1F8DF8791041788DF87A1081788DF8D4
:103C40007B10C1788DF87C1001798DF87D10417959
:103C50008DF87E1081798DF87F10C1798DF88010F4
:103C6000017A8DF88110407A8DF8820094ED0B0A6C
:103C7000382213A9BCEEC00A10EE100A80B20E90D2
:103C80006846FCF7D0FA0FAC94E80F0001F0A7F8F3
:103C900022B010BDB0160020481600202C020020D3
:103CA000264810B5C18C264C00EE101AA2B0B8EE12
:103CB000400A84ED000A408C00EE100A2046B8EE5F
:103CC000400A84ED010A00F0DBFF3D221D490FA8E8
:103CD000FCF7A9FA1B4810F83D1F8DF879104178C0
:103CE0008DF87A1081788DF87B10C1788DF87C1072
:103CF00001798DF87D1041798DF87E1081798DF8EC
:103D00007F10C1798DF88010017A8DF88110407A8A
:103D10008DF8820094ED0B0A382213A9BCEEC00A7C
:103D200010EE100A80B20E906846FCF77CFA0FACD9
:103D300094E80F0001F053F822B010BDB016002037
:103D40007C160020740200207047704770B5FDF7A4
:103D50001FFA154801240023018839B94188491CFC
:103D600089B24180142913D3438004800F4A10493B
:103D7000157875B10488002C0AD0002D08D0038076
:103D80000888001F80B20880B0F5FA7F00D8137051
:103D900070BD03800888001D80B2088040F6C41101
:103DA0008842F5D3147070BD04000020020000208A
:103DB0000000002030B593B030216846FCF74CFA83
:103DC00014210CA8FCF748FA1D480025016841F0B1
:103DD00080510160006800F080501190194801681E
:103DE00041F4804101600068022400F48040119099
:103DF0000120039010200490009406940820CDE93F
:103E00000750A820CDE9090404200B906846FDF76F
:103E100045FB08B172B6FEE70CA90F2081E831001E
:103E20004FF4A0500F904FF48050109005210CA833
:103E3000FDF748FA002801D072B6FEE713B030BD96
:103E400040380240007000400248016841F47001AF
:103E50000160704788ED00E00148FDF790BF000069
:103E60009C010020F0B50268294C2A4D2A4E2B4FA8
:103E70002B4B4FF0804CA04209D0604507D0A842A0
:103E800005D0B04203D0B84201D0984204D122F00C
:103E9000700E4A6842EA0E02A0421BD0604519D05B
:103EA000A84217D0B04215D0B84213D0984211D0D2
:103EB0001C4DA8420ED01C4DA8420BD01B4DA84251
:103EC00008D01B4DA84205D01A4DA84202D01A4D69
:103ED000A84203D122F44075CA682A434D6922F0F2
:103EE00080022A4302608A68C2620A688262A04233
:103EF00001D0984201D10969016301214161016941
:103F0000C90703D0016921F001010161F0BD000082
:103F1000000001400004004000080040000C004088
:103F200000040140004001400044014000480140BD
:103F300000180040001C00400020004010B501F0B7
:103F40001F030121046A99408C430462016A9A406C
:103F50001143016210BD10B5846842EA032224F4C3
:103F60007F440A432243826010BD826822F07002BF
:103F70000A4342F00701816070470000F0B5036A10
:103F8000026A22F00102026242688469124E24F041
:103F900073050C682C4323F002058B682B430D4DF1
:103FA000A84201D0B04205D123F00807CB683B43BB
:103FB00023F00403A84201D0B04205D14D6922F498
:103FC000407215438A692A434260846149684163AB
:103FD0000362F0BD0000014000040140F0B5026A38
:103FE000036A23F010030362436884690D6824F4B4
:103FF000E64444EA05248D6822F0200242EA0512D4
:104000000F4D104EA84201D0B04206D1CF6822F029
:10401000800242EA071222F04002A84201D0B042D8
:1040200007D14D6923F4406343EA85038D6943EA70
:10403000850343608461496881630262F0BD0000CA
:104040000000014000040140F0B5026A036A23F455
:10405000807303624368C46922F4007224F073051C
:104060000C68124E2C438D6842EA05220E4DA84280
:1040700001D0B04206D1CF6822F4006242EA0722A2
:1040800022F48062A84201D0B04207D14D6923F4E6
:10409000405343EA05138D6943EA05134360C46145
:1040A0004968C1630262F0BD0000014000040140A4
:1040B00030B5046A026A22F4805202624268C3691F
:1040C0000D6823F4E64343EA05238D6824F4005485
:1040D00044EA0534084DA84202D0084DA84204D154
:1040E0004D6922F4804242EA85124260C361496808
:1040F0000164046230BD0000000001400004014082
:1041000010B5036A046A24F001040462846924F08F
:10411000F00444EA021423F00A020A4384610262B2
:1041200010BD10B5036A046A24F0100404628469A7
:1041300023F0A00324F4704444EA023243EA01115C
:104140008261016210BD10B5806B0021C185C18400
:10415000FEF780F910BD70B5846B2068406994F853
:104160004110C0F3C0100025212904D118B1E58405
:10417000204600F0B4F82068406994F84210C0F37B
:104180008010222904D118B1E585204600F080F87E
:10419000606C40F0100060642046FEF75BF970BD73
:1041A00010B50146806B096809684FF00002C90527
:1041B0002ED4C28501680C3151E8003F23F480738E
:1041C00041E80034002CF5D10168143151E8003F7A
:1041D00023F0010341E80034002CF5D101681431CB
:1041E00051E8003F23F0400341E80034002CF5D1B2
:1041F000202180F84210016B012909D101680C319E
:1042000051E8003F23F0100341E80034002CF5D1C1
:104210004263016B012902D0FEF792FB10BD818D34
:10422000FEF74AF810BD10B5806B01214163016BA8
:10423000012902D0FEF785FB10BD818D4908FEF7EC
:104240003BF810BD10B50146806B09680968C905C7
:1042500016D40021C1840168143151E8002F22F0E6
:10426000800241E80023002BF5D101680C3151E8B0
:10427000002F42F0400241E80023002BF5D110BD91
:10428000FEF7ECFB10BD10B5806BFEF7E8FB10BD30
:1042900001680C3151E8002F22F4907241E80023AC
:1042A000002BF5D10168143151E8002F22F00102F2
:1042B00041E80023002BF5D1016B012909D10168E8
:1042C0000C3151E8002F22F0100241E80023002BAE
:1042D000F5D1202180F84210002101637047016868
:1042E0000C3151E8002F22F0C00241E80023002BDE
:1042F000F5D1202180F84110704708B590F84210A0
:10430000222901D0022008BD82684FF480539A42CE
:1043100001D1016921B1816A9A421BD04AB10AE0F8
:104320000268816A5268C2F308020A80816A891CA5
:1043300008E0026972B10268526802F07F020A70F6
:10434000816A491C8162C18D491E0904090CC1851D
:1043500003D01BE002685268F1E70168CA6822F0E6
:104360002002CA600168CA6822F48072CA600168CB
:104370004A6922F001024A61202180F8421000219E
:104380004163026B012A03D0FEF7DAFA002008BD70
:10439000016301680C3151E8002F22F0100241E85E
:1043A0000023002BF5D101680A68D20602D50A68FD
:1043B00049680091818DFDF77FFFE7E770B50446FE
:1043C00000680169E26821F44051114301612169EB
:1043D000A068E26908436169114308432168CA681B
:1043E00049F20C639A430243CA6020684169A2699A
:1043F00021F440711143416131492068884202D063
:104400003049884202D1FDF707F801E0FCF7F4FFDC
:10441000E2690023192164253226B2F5004F626853
:1044200028D0A0FB0101930F9200FBF7CBFE0146C1
:10443000B0FBF5F06FF01802504301EB800006EB83
:104440000010B0FBF5F000F0F002B1FBF5F002EB6C
:104450000012B1FBF5F06FF01803584301EB800038
:1044600006EB0010B0FBF5F000F00F0021681044DF
:10447000886070BDA0FB010192185B41FBF7A2FEB2
:104480000146B0FBF5F00201B1FBF5F06FF0180347
:10449000584301EB800006EBC000B0FBF5F000F0E4
:1044A000F80002EB4002B1FBF5F0584301EB80004D
:1044B00006EBC000B0FBF5F000F00700D6E7000007
:1044C000001001400014014038B581620446828525
:1044D000002013466064222284F84220E56B1B4AC8
:1044E000EA63E56B1A4A2A64E56B1A4AEA64E26BEE
:1044F00010650A462168E06B091DFCF74DFC206839
:10450000016840680090206948B120680C3050E88C
:10451000001F41F4807140E80012002AF5D12068A4
:10452000143050E8001F41F0010140E80012002A59
:10453000F5D12068143050E8001F41F0400140E8F8
:104540000012002AF5D1002038BD0000A14100086A
:1045500027420008574100082DE9F84398461746BE
:104560000D460446089E24E0701C22D0FCF70AFE8B
:10457000A0EB0800B0421AD8CEB12068C168490744
:1045800017D5802D15D0402D13D00168C9430907D8
:104590000FD401680025406800902046FFF778FEA0
:1045A0000820606484F840500120BDE8F8830320AF
:1045B000FBE72068006835EA000004D00020B8421C
:1045C000D2D00020F1E70120F9E700000148FDF713
:1045D00043BF0000DC030020FEE700000FB4084BDF
:1045E00010B504A902AA039800F030F8044602A905
:1045F000002000F0D5F8204610BC5DF814FB000048
:10460000A14700080907090E002804DB00F1E0209B
:1046100080F80014704700F00F0000F1E02080F8EF
:10462000141D7047004870473000002002E008C8A1
:10463000121F08C1002AFAD170477047002001E01C
:1046400001C1121F002AFBD1704700002DE9FF4F66
:1046500089B09B460446002506E025280BD05A4623
:104660000B999047641C6D1C20780028F5D10DB083
:104670002846BDE8F08F0027B8460122474900E0F0
:10468000074314F8013F203B02FA03F00842F7D138
:1046900020782E2819D114F8010F47F004072A2892
:1046A0000ED06FF02F022078A0F1300109290CD82C
:1046B00008EB880102EB410100EB0108641CF2E702
:1046C0000A98641C50F8048B0A9020780028CED0F9
:1046D000642808D0692806D075281ED05A460B9940
:1046E00090476D1C58E00A994FF00A0901C90A91D8
:1046F000002802DA40422D2102E0390504D52B21A1
:104700008DF82010012103E0F90704D02021F7E7FC
:104710008A4608AE0DE00021FAE70A994FF00A092F
:1047200001C90A91F7E74946FBF70BFE303106F85D
:10473000011D0028F7D1ADEB060000F12009780734
:1047400001D44FF00108C84502DDA8EB090000E0E4
:1047500000208046002706E008A85A46C05D0B9955
:1047600090476D1C7F1C5745F6DB04E030205A460D
:104770000B9990476D1CB8F10001A8F10108F5DC18
:1047800005E016F8010B5A460B9990476D1CB9F1DC
:104790000001A9F10109F4DC641C65E709280100A6
:1047A0000A68531C0B60107070470844400870473B
:1047B00010B5C8210B48FBF74FFD0A4828212838BF
:1047C000FBF74AFD08490020C82208700549074840
:1047D000FDF74BFD0548C06B0068016821F008013A
:1047E000016010BDD81600202C000020DC03002042
:1047F00070B586B00446FCF7ADFB08B1FBF759FF76
:10480000FF224FF480511548FBF71FFD134E15484A
:104810009FED130A00EB842586ED000A142212494D
:104820006846FBF700FD05A96846FCF7FFFA08B1EA
:10483000FBF73FFF5FF0000405EB840156F82420EE
:1048400000230220FCF748FB08B1FBF732FF641C91
:10485000202CF1DBFCF736FB06B070BD48060020CB
:104860000000844200000208304E00082DE9F047A5
:10487000754D764E734CB7EE000A2DED028B002776
:10488000D5ED000A96ED002A6D4870EE801A32EEE2
:10489000001A90F8008070EEC02A32EE402A94F898
:1048A00000C094F804906379A27AE17B4FF0010A8A
:1048B000B8F1010F1AD0B8F1020F13D1BCF1010FFA
:1048C00070D0B9F1010F6ED0012B6DD0012A6CD0E0
:1048D000012907D1E7734078012867D0022801D168
:1048E00086ED002ABDEC028BBDE8F087BCF1010F1C
:1048F0001CD0B9F1010F26D0012B28D09FED548A8E
:10490000544BDFF854C1012AD3ED003A9CED003A34
:1049100027D00129E6D1E7734078012838D0022852
:104920003BD0032843D0042844D045E045484BA160
:104930002838FFF753FE43482838FBF7B4FC4149B9
:1049400082B228395CE0277102210170CAE76771E1
:104950004178491CC9B241700429C3D980F801A02B
:10496000C0E7A7724078012806D0022807D00328A4
:1049700008D0042809D01FE033EE800A0AE033EEA5
:10498000000A0CE0C5ED001A16E086ED001A13E0EF
:1049900033EEC00A83ED000A0EE033EE400A8CEDE0
:1049A000000A09E020E030E033E03AE045E0C5ED00
:1049B000002A01E086ED002A9CED001AF0EE480A7C
:1049C00093ED000A0021264800F0AFF996ED001A99
:1049D00095ED000AF0EE480ABDEC028B0021BDE81F
:1049E000F047204800F0A1B916481CA11438FFF781
:1049F000F5FD14481438FBF756FC124982B21439FD
:104A00001948FDF7EFFF27706CE7277180F800A0C9
:104A100068E767714178491CC9B2417002299DD28B
:104A200060E7A7724078012804D002288ED186ED75
:104A3000001A57E7C5ED001A54E7C5ED002A51E703
:104A40001800002034060020240000202800002048
:104A5000000000001C000020200000206161000018
:104A6000481600207C160020DC03002070B5254D80
:104A70004FF480512846FCF77BFB234C4FF4005148
:104A8000A0702846FCF774FBE0714FF48041284683
:104A9000FCF76EFB20734FF400412846FCF768FBDF
:104AA000002160740A46012301EB81063019457824
:104AB00025B1012D0CD0022D12D001E0857825B151
:104AC000491CC9B20329EFD970BD4370C27070BDD3
:104AD00001EB81012144897889B90221417070BDBF
:104AE00001EB8101214489780029C17803D0322962
:104AF00004D3037103E0491CC17070BDA35542701B
:104B000070BD000000040240340600200148FCF79C
:104B10009FBF00009C01002008B5FCF741FBFFF798
:104B200049F9FEF737FDFEF7FFFCFEF75DFEFEF7E5
:104B300091FEFEF7C1FEFEF7F3FEFEF769FFFEF7FA
:104B400085FDFEF7B7FDFEF7E9FDFEF7FFFFFFF776
:104B500019F8FFF733F8FEF7DDFFFEF713FEFEF757
:104B600035FFFEF711FFFBF795FC0120FFF740FE34
:104B70003A4CDFF8EC80DFF8EC90DFF8ECA0DFF8DF
:104B8000ECB0E1896089FFF710FE0746A189208912
:104B9000FFF70BFE0646E1886088FFF706FE054634
:104BA000A1882088FFF701FE3B4632462946CDF812
:104BB0000080FBF7F5FEE18A608AFFF7F6FD074605
:104BC000A18A208AFFF7F1FD0646E1896089FFF797
:104BD000ECFD0546A1892089FFF7E7FD3B463246FB
:104BE0002946CDF80090FBF773FEE18B608BFFF751
:104BF000DCFD0746A18B208BFFF7D7FD0646E18A37
:104C0000608AFFF7D2FD0546A18A208AFFF7CDFD15
:104C10003B4632462946CDF800A0FBF7C1FEE18BAA
:104C2000608BFFF7C2FD0746A18B208BFFF7BDFD10
:104C30000646E1886088FFF7B8FD0546A188208810
:104C4000FFF7B3FD3B4632462946CDF800B0FBF7EF
:104C50003FFEFEF7D1FAFFF709FE92E7B0160020FB
:104C6000A0170020A0260020201F0020A02B00203D
:104C70000246012000E05043491EC9B2FBD27047F2
:104C800090EC020A30EE600A80ED020A016BD0ED72
:104C9000030A012901D039B342E030EE601AD0EDA9
:104CA000051AF0EE002A21EE212A80ED082A90ED67
:104CB000061A61EE001AB0EE401A00EEE21AC0EDDC
:104CC0000A1AD0ED042A72EE211A31EE221AD0ED22
:104CD000072A21EE221A80ED091A31EE811AD0ED51
:104CE0000B1A31EE211A19E090ED051A61EE001A47
:104CF000C0ED081A90ED0A1A90ED062A02EE001A8D
:104D000030EE602A80ED0A1AD0ED072A31EE811AC2
:104D100022EE222A80ED092A31EE021A80ED0B1ACA
:104D2000C0ED040A80ED030A70470163143080EC83
:104D3000030A704738B50446006801E0401C206053
:104D4000017829B1A1F130020A2A01D32D29F5D128
:104D50000A226946FBF7BDFA226800998A4204D00C
:104D6000002802DBB0F5803F08DB08782C2801D052
:104D7000232800D1491C0020216038BD21600A7819
:104D80002C2A01D0232A01D1491C216080B238BDD0
:104D9000002801DC00207047B0F5F07F01DB8020A7
:104DA000704700EE100A9FED061AF8EEC00AB6EE44
:104DB000000A00EE810ABDEEC00A10EE100A70472C
:104DC0008988883E0FB4002110B502A8FDF7D0F9FC
:104DD000029940F2DC50486310BC5DF814FB0FB43C
:104DE0004FF448711298884203D940F698018842DE
:104DF00000D308460099486304B07047C8220249AE
:104E00000248FDF732BA0000D8160020DC0300206B
:104E1000000610160006101600000000000000003A
:104E20000102030406070809000000000102030450
:104E30000000000000000000000002080100000067
:104E40000200000000000000000000000000000060
:104E500000000404040404000004000014140A0008
:104E6000000000000000000000000A0A1F0A0A1FDC
:104E70000A0A000000040E1505060C14150E0400A5
:104E8000000012150D152E2C2A1200000000040A35
:104E90000A36151529160000020201000000000064
:104EA00000000000100808040404040408081000AE
:104EB00002040408080808080404020000000004B2
:104EC000150E0E150400000000000008083E08083A
:104ED00000000000000000000000000002020100CD
:104EE00000000000003F0000000000000000000083
:104EF0000000000000020000002010100808040458
:104F00000202010000000E1111111111110E00001A
:104F10000000040604040404040E000000000E1146
:104F200011080402011F000000000E11100C1010E7
:104F3000110E00000000080C0C0A091F081C0000DC
:104F400000001F01010F1110110E000000000C12D3
:104F5000010D1311110E000000001E1008080404BA
:104F60000404000000000E11110E1111110E0000BA
:104F700000000E11111916100906000000000000B3
:104F80000400000000040000000000000004000015
:104F900000040400000010080402020408100000CD
:104FA000000000003F003F0000000000000002047D
:104FB000081010080402000000000E11110804047B
:104FC0000004000000001C22292D2D1D221C0000C1
:104FD000000004040C0A0A1E1233000000000F1225
:104FE000120E1212120F000000001E110101010129
:104FF000110E000000000F1212121212120F000008
:1050000000001F120A0E0A02121F000000001F12E9
:105010000A0E0A020207000000001C1201013911E9
:10502000120C000000003312121E12121233000084
:1050300000001F0404040404041F000000003E08D4
:105040000808080808080907000037120A060A12AB
:10505000123700000000070202020202223F000095
:1050600000003B1B1B1B15151535000000003B12F3
:1050700016161A1A1217000000000E111111111144
:10508000110E000000000F12120E020202070000B3
:1050900000000E1111111117190E180000000F1247
:1050A000120E0A121237000000001E11010608102D
:1050B000110F000000001F1504040404040E00007A
:1050C0000000331212121212120C000000003312F0
:1050D000120A0A0C040400000000151515150E0A2A
:1050E0000A0A000000001B0A0A04040A0A1B000046
:1050F00000001B0A0A0A0404040E000000001F0935
:1051000008040402121F00001C0404040404040424
:1051100004041C0000020204040408080810100023
:105120000E0808080808080808080E00040A00000D
:10513000000000000000000000000000000000006F
:105140000000003F0204000000000000000000001A
:1051500000000000000C121C123C000000030202C0
:10516000020E1212120E000000000000001C1202BB
:10517000120C000000181010101C1212123C00003B
:1051800000000000000C121E021C00000018240485
:10519000041E0404041E000000000000003C120C69
:1051A000021C221C00030202020E1212123700001F
:1051B0000004040000060404040E000000080800B7
:1051C000000C08080808080700030202021A0A0671
:1051D0000A1300000007040404040404041F000070
:1051E00000000000000F151515150000000000005C
:1051F000000F12121237000000000000000C121203
:10520000120C000000000000000F1212120E020724
:1052100000000000001C1212121C103800000000D8
:10522000001B06020207000000000000001E020C26
:10523000101E000000000004041E0404041C0000F2
:1052400000000000001B1212123C000000000000D1
:10525000001B0A0A04040000000000000015150EDF
:105260000A0A000000000000001B0A040A1B0000DC
:1052700000000000003312120C08040300000000BC
:10528000001E0804041E000018080808080C08087E
:105290000808180008080808080808080808080886
:1052A00006040404040804040404060016090000AB
:1052B00000000000000000000000000000000000EE
:1052C00000000000000000000000000808080808B6
:1052D000080800001818000000486C2412000000A4
:1052E00000000000000000000000002424247F12C1
:1052F00012127F12121200000000081C2A2A0A0C47
:105300001828282A2A1C080800000022251515152F
:105310002A585454542200000000000C1212120AA1
:1053200076252911916E0000000606040300000096
:1053300000000000000000000040201010080808D5
:10534000080808101020400000020408081010107F
:1053500010101008080402000000000008086B1C70
:105360001C6B080800000000000000000808080886
:105370007F0808080800000000000000000000008E
:10538000000000000606040300000000000000000A
:10539000FE0000000000000000000000000000000F
:1053A00000000000060600000000804040202010A1
:1053B00010080804040202000000001824424242BF
:1053C0004242424224180000000000080E0808086B
:1053D00008080808083E00000000003C4242422045
:1053E00020100804427E00000000003C42422018C9
:1053F00020404042221C00000000002030282424CD
:1054000022227E20207800000000007E0202021A84
:1054100026404042221C0000000000382402021AEC
:1054200026424242241800000000007E2222101072
:1054300008080808080800000000003C4242422416
:1054400018244242423C000000000018244242421C
:1054500064584040241C00000000000000001818A0
:105460000000000018180000000000000000000804
:10547000000000000008080400000040201008049C
:1054800002040810204000000000000000007F001F
:1054900000007F000000000000000002040810204F
:1054A00040201008040200000000003C4242464038
:1054B00020101000181800000000001C225A55553A
:1054C00055552D42221C0000000000080818141435
:1054D000243C224242E700000000001F2222221E3C
:1054E00022424242221F00000000007C4242010191
:1054F00001010142221C00000000001F2242424222
:1055000042424242221F00000000003F4212121E8F
:1055100012120242423F00000000003F4212121EDF
:1055200012120202020700000000003C22220101C8
:1055300001712122221C0000000000E74242424289
:105540007E42424242E700000000003E0808080890
:1055500008080808083E00000000007C1010101029
:10556000101010101010110F0000007722120A0EF8
:105570000A12122222770000000000070202020233
:1055800002020202427F0000000000773636363603
:105590002A2A2A2A2A6B0000000000E346464A4ACB
:1055A00052525262624700000000001C22414141F9
:1055B00041414141221C00000000003F4242424262
:1055C0003E020202020700000000001C224141418D
:1055D00041414D53321C60000000003F4242423EB8
:1055E0001212222242C700000000007C4242020444
:1055F00018204042423E00000000007F4908080891
:1056000008080808081C0000000000E74242424267
:1056100042424242423C0000000000E74242222453
:1056200024141418080800000000006B4949494977
:105630005555362222220000000000E7422424189B
:105640001818242442E700000000007722221414D6
:1056500008080808081C00000000007E2120101027
:1056600008040442423F00000078080808080808BF
:105670000808080808087800000002020404080866
:105680000810102020204040001E10101010101094
:105690001010101010101E00003844000000000010
:1056A00000000000000000000000000000000000FA
:1056B00000000000000000FF0006080000000000DD
:1056C0000000000000000000000000000000003C9E
:1056D0004278444242FC0000000000030202021A29
:1056E00026424242261A0000000000000000003856
:1056F000440202024438000000000060404040784C
:105700004442424264D80000000000000000003C17
:10571000427E0202423C0000000000F08808087E41
:1057200008080808083E0000000000000000007C97
:1057300022221C023C42423C000000030202023AC8
:105740004642424242E700000000000C0C00000EFE
:1057500008080808083E000000000030300000384B
:10576000202020202020221E0000000302020272BE
:10577000120A1612227700000000000E080808081E
:1057800008080808083E0000000000000000007F34
:105790009292929292B70000000000000000003B3D
:1057A0004642424242E70000000000000000003C88
:1057B00042424242423C0000000000000000001B48
:1057C00026424242221E020700000000000000782C
:1057D00044424242447840E000000000000000776C
:1057E0004C040404041F0000000000000000007CC2
:1057F00042023C40423E0000000000000008083E1B
:1058000008080808083000000000000000000063DD
:105810004242424262DC000000000000000000E75B
:10582000422424140808000000000000000000EBDF
:105830004949555522220000000000000000007672
:1058400024181818246E000000000000000000E773
:105850004224241418080807000000000000007EFD
:1058600022100808447E000000C0202020202010C4
:10587000202020202020C000101010101010101028
:10588000101010101010101000060808080808105A
:1058900008080808080806000C32C20000000000D2
:1058A00000000000000000000000000000000000F8
:1058B00000000000000000000000000000000000E8
:1058C00000000000000000000000000000000000D8
:1058D00000000000000000000000000000000000C8
:1058E00060006000600060006000600060004000D8
:1058F0002000200020000000000000006000600088
:10590000600000000000000000000000600660066B
:1059100030039801880044000000000000000000EF
:105920000000000000000000000000000000000077
:105930000000000000000000000000000000000067
:105940001002100210021002FE07FE0708020801F2
:10595000080108010801FE07FE0704010401040113
:1059600004010000000000000000000000004000F2
:105970004000F00158034C03CC034C005800700069
:10598000E000C001C00140034C035C034C0348012C
:10599000F000400040000000000000000000000097
:1059A0000E010A01910091009100510051003A004E
:1059B000AE03A00250045004480448044804840282
:1059C0008403000000000000000000000000000050
:1059D00038006C006C006C006C006C002C009807A8
:1059E0001C011A01330133016301E300C308C60936
:1059F0003C07000000000000000000000C001C003C
:105A0000100010000800040000000000000000006A
:105A10000000000000000000000000000000000086
:105A20000000000000000000000000000004000270
:105A30000001800080004000400020002000200085
:105A40002000200020002000400040008000800056
:105A50000001000200040000000000000200040039
:105A6000080010001000200020004000400040000E
:105A700040004000400040002000200010001000C6
:105A80000800040002000000000000000000000008
:105A9000000000004000C0004000460C4E0FD00146
:105AA000F0015E0F460C4000400040000000000086
:105AB00000000000000000000000000000000000E6
:105AC0000000000000004000400040004000400096
:105AD000FE0F400040004000400040000000000079
