:020000040800F2
:10000000181D0020A10100084731000899250008AB
:10001000453100082B0400084939000800000000A1
:100020000000000000000000000000004B3100084C
:100030000105000800000000493100084D310008AA
:10004000BB010008BB010008BB010008BB010008A0
:10005000BB010008BB010008BB010008BB01000890
:10006000BB010008BB010008BB010008BB01000880
:10007000BB010008BB010008BB010008BB01000870
:100080002D04000839040008BB010008BB0100086A
:10009000BB010008BB010008BB010008BB01000850
:1000A000BB010008BB010008BB010008BB01000840
:1000B000BB010008BB010008BB010008BB01000830
:1000C000BB010008BB010008BB010008BB01000820
:1000D000BB010008BB0100083D390008BB01000856
:1000E000BB010008BB010008BB010008BB01000800
:1000F000BB010008BB010008BB010008BB010008F0
:10010000BB010008BB010008BB010008BB010008DF
:10011000BB010008BB010008BB0100085932000800
:10012000BB010008BB01000845040008BB01000832
:10013000BB010008BB010008BB010008BB010008AF
:10014000BB010008BB010008BB010008BB0100089F
:10015000BB010008BB01000851040008BB010008F6
:10016000BB010008BB010008BB010008BB0100087F
:10017000BB010008BB010008BB0100080000000033
:10018000BB010008BB010008DFF810D000F01AF92D
:1001900000480047493B0008AFF30080181D0020CD
:1001A0000648804706480047FEE7FEE7FEE7FEE711
:1001B000FEE7FEE7FEE7FEE7FEE7FEE7493200085E
:1001C000890100082DE9F05F0546002092469B4614
:1001D00088460646814640241BE02846414647465D
:1001E000224600F08AF853465A46C01A914110D36D
:1001F00011461846224600F071F82D1A67EB0108E7
:100200004F4622460120002100F068F817EB000954
:100210004E41201EA4F10104DFDC484631462A4647
:100220004346BDE8F09FD2B201E000F8012B491E21
:10023000FBD270470022F6E710B513460A46044683
:100240001946FFF7F0FF204610BDCAB2401E10F855
:10025000011F8A4202D00029F9D100207047421CB8
:1002600010F8011B0029FBD1801A70472DE9F047D7
:1002700091460F4680460446002614F8015B2DB1D6
:1002800000F04CF80068405DC007F6D12B2D02D07D
:100290002D2D18D0641E4A463946204600F042F8FB
:1002A00027B13968A14201D1C7F8008071054FF02C
:1002B00002040BD54042002803DD03F069FB046013
:1002C000A007BDE8F08746F48066E4E70028F8DA86
:1002D00003F05EFB04606FF00040F2E7202A04DBCD
:1002E000203A00FA02F1002070479140C2F1200349
:1002F00020FA03F3194390407047202A04DB203A88
:1003000021FA02F00021704721FA02F3D040C2F135
:10031000200291400843194670470000004870478A
:10032000E03C00082DE9F05F824600780027154682
:100330008B460AF10104B946302801D09DB113E083
:1003400014F8010B0127782803D0582801D045B1B3
:100350000AE00DB1102D07D10027102514F8010B6C
:1003600002E0082500E00A250026B0460EE005FB65
:10037000080005FB06F1012701EB10461FFA80F883
:10038000B6F5803F00D3B94614F8010B294600F0BA
:100390002BF80028EBDABBF1000F05D00FB1641E7B
:1003A00000E05446CBF80040B9F1000F06D003F04E
:1003B000EFFA02210160C81EBDE8F09F48EA06403E
:1003C000FAE70000064C074D06E0E06840F0010344
:1003D00094E8070098471034AC42F6D3FFF7D8FEF4
:1003E000E43C0008043D00083A2800D2303820F0F0
:1003F0002002412A01D3A2F13700884201D34FF0F5
:10040000FF30704708B503F00FFC03F097FB02F0D4
:1004100019F902F055F94FF6FF7000210090B4234E
:100420008022084602F0EEF808BDFEE7014800F021
:1004300035BA0000D8040020014800F02FBA0000AF
:1004400038050020014800F029BA000018040020F7
:10045000014800F023BA0000780400200168182346
:10046000CAB2103AB2FBF3F2054B6FF30901032A4B
:100470009B5CC36500D9091D816508467047000073
:100480003C3C000810B5014600208B698A6A4FF099
:10049000C07453B1B3F5005F15D072B1012A0CD00E
:1004A000022A0AD0032A09D104E01AB1012A06D08F
:1004B000022A03D1C96AC90100D5012010BDC96A49
:1004C000A142FAD010BD002AF7D0012AF2D0022AA8
:1004D000F3D0032AF3D010BD30B50468256825F4A5
:1004E00080252560046863608368402B036803D01F
:1004F00099600068C26030BD9A600068C16030BD1C
:10050000704772B6FEE70000002229B101291AD017
:1005100002291BD04FF440720E490B6823F440733C
:100520000B600B6813430B600A6822F0F8020A6044
:100530000A68022303EBC00002430A60086840F423
:100540008030086070474FF48072E5E74FF4007226
:10055000E2E70000103C02401348016889050FD50E
:10056000016821F400710160016841F400610160DB
:10057000016821F400610160016841F400710160CB
:10058000016849050FD5016821F4806101600168A7
:1005900041F480510160016821F4805101600168DB
:1005A00041F4806101607047003C024008490A68DC
:1005B00022F440720A600A6842F004020A600A6883
:1005C0004FF4803343EA002002430A607047000082
:1005D000103C0240064A136823F44073136013680A
:1005E0001360136843F0010313600170704700004B
:1005F000103C0240094910B50C6824F440740C60AA
:100600000C6844F440740C600C6844F001040C6005
:100610000260BFF36F8F436010BD0000103C0240CA
:10062000074A136823F440731360136843F480731C
:100630001360136843F001031360018070470000EA
:10064000103C0240074A136823F440731360136898
:1006500043F400731360136843F0010313600160F7
:1006600070470000103C024017490868C20617484E
:1006700005D5C26942F01002C26110220A600A6800
:10068000920605D5C26942F00802C26120220A60C2
:100690000A68520605D5C26942F00402C2614022CE
:1006A0000A600A68120605D5C26942F00202C261F8
:1006B00080220A600A68920705D5C26942F02002CA
:1006C000C2610220086070470C3C0240980500207F
:1006D00070B5114904460020C86100F00FFC0646C1
:1006E0000E4D09E0601C07D024B100F007FC801B10
:1006F000A04201D9032070BD2868C003F2D4286845
:10070000C00701D001202860286810F0F200F2D064
:10071000FFF7AAFF012070BD980500200C3C0240A5
:100720002DE9F84F0029DDF828A001DA002102E0C8
:100730003C2900DB3B21002B01DA002302E03C2BAB
:1007400000DB3B23002800DA0020002A00DA002228
:100750000027994206DD0C461946234604461046FA
:100760002246012799420FD1904201DA034600E068
:10077000134605DA104603E04AF8213003F101037D
:100780008342F9DDBDE8F88F141A00D564425E1A81
:10079000904201DA012501E04FF0FF350095A51BDD
:1007A0008146C6F1000E1AE047B1814504D0A9EB9D
:1007B000000CA2EB0C0C02E0844600E0CC464AF8A8
:1007C00021C09942DED04FEA450BF34503DDDDF849
:1007D0000080AD1BC144A34501DA2544491C994260
:1007E000E2DDCFE72DE9F0410446876D00F086FB9E
:1007F000064694F835000025022806D08020606562
:1008000084F834500120BDE8F0812068016821F0AF
:10081000160101602068416921F080014161206C6E
:1008200008B9A06C20B12068016821F008010160BE
:100830002068016821F0010101600CE000F05EFB1E
:10084000801B052807D920206065032084F8350027
:1008500084F83450D7E720680068C007EED194F8D8
:100860005C103F208840B860012084F8350084F88F
:1008700034500020C7E790F83510022903D08021BA
:10088000416501207047052180F835100068016836
:1008900021F0010101600020704700002DE9F843BC
:1008A00004464FF00009CDF8009063484FF416510C
:1008B000A56D0068B0FBF1F72E6894F85C10082075
:1008C00000FA01F131420FD021680A6852070BD5B6
:1008D0000A6822F004020A6094F85C108840A8605C
:1008E000606D40F00100606594F85C104FF0010805
:1008F00008FA01F0304208D021684969090604D598
:10090000A860606D40F00200606594F85C100420FF
:100910008840304208D021680968890704D5A8605A
:10092000606D40F00400606594F85C101020884011
:10093000304218D021680968090714D5A8602068DA
:100940000168490304D50068000308D5A16C07E0DD
:100950000168C90503D4016821F008010160216C18
:1009600009B12046884794F85C1020208840304226
:1009700031D021680968C9062DD5A86094F83500E2
:1009800005282068016806D0490347D500680003A0
:100990001DD4616C1CE021F01601016020684169E2
:1009A00021F080014161206C08B9A06C20B1206861
:1009B000016821F00801016094F85C103F20884034
:1009C000A86084F8358084F83490216D1FE0E16BD5
:1009D00009B120468847606D00282BD0606DC007A4
:1009E00014D0052084F835002068016821F0010149
:1009F00001600098401C0090B84203D8206800684D
:100A0000C007F6D184F8358084F83490E16C002971
:100A100010D001B02046BDE8F04308470168C90581
:100A2000D5D4016821F01001016084F8358084F884
:100A30003490CCE7BDE8F8831C0000202DE9F0419C
:100A4000044600F05BFA06465CB1022084F83500EB
:100A5000002584F834502068016821F0010101600C
:100A60000DE00120BDE8F08100F048FA801B052868
:100A700005D920206065032084F83500F2E720685E
:100A80000068C007F0D12268116820480140D4E90D
:100A900001031843D4E90336334318436369184309
:100AA000A3691843E3691843236A18430843616A3A
:100AB000042903D1D4E90B131943084310602068BB
:100AC0004069666A20F0070130460E43012704287A
:100AD0000CD1A06A0643E06A40B12046FFF7D2FC81
:100AE00020B14020606584F83570BAE7206846611F
:100AF0002046FFF7B3FC94F85C203F2191408160D1
:100B0000656584F835700020ACE700003F8010F088
:100B10002DE9F0410446866D90F834000025012847
:100B20000DD0012084F8340094F835700020012F96
:100B300007D084F8340002252846BDE8F081022061
:100B4000FBE7022784F8357060652046FFF7C4FC98
:100B500094F85C103F208840B0602068016841F044
:100B600016010160206C20B12068016841F0080185
:100B700001602068016841F001010160DCE70000CC
:100B800070B5044600F0BAF90546601C02D004486E
:100B90000078044400F0B2F9401BA042FAD370BDC3
:100BA000100000202DE9F047044622480F46017E40
:100BB00001290AD00121804601764CF2503948467D
:100BC000FFF786FD020003D02FE00220BDE8F0878A
:100BD0004FF0FF3038602068174D012801D0A6681B
:100BE0001CE0207C6168FFF7E1FC4846FFF770FDE0
:100BF0000246286820F00400286014E0217C30467A
:100C0000FFF782FC4846FFF763FD0200286820F0EA
:100C1000FA00286001D03E6005E0761CD4E902109D
:100C20000844B042EAD8FFF797FC002188F8181072
:100C30001046CBE798050020103C024003480168AD
:100C400041F000410160002070470000103C02406C
:100C50002DE9F0471B4E05461446307E1F46894657
:100C6000012808D0012030764CF250384046FFF77A
:100C70002FFD18B114E00220BDE8F0879DB1012DD1
:100C800016D0022D19D022463B464846FFF7B2FC4B
:100C90004046FFF71DFD0C490A6822F001020A6078
:100CA00000213176E8E7E1B24846FFF793FCEFE731
:100CB000A1B24846FFF7B4FCEAE721464846FFF7F1
:100CC000C1FCE5E798050020103C024007490020E0
:100CD0000A68002A09DA054A054B0C3A1360054BED
:100CE00013600968002900DA01207047103C0240B7
:100CF00023016745AB89EFCD2DE9F84FDFF8BCA1A3
:100D00000022012503264FF00F090AF1040BAAF176
:100D1000040E00BF0B6805FA02F42340A34270D111
:100D20000F7907F00307012F01D0022F16D1876832
:100D30004FEA420806FA08FC27EA0C07D1F80CC073
:100D40000CFA08FC4CEA070CC0F808C04768A74337
:100D50000C79C4F3001494403C4344600C79E443A0
:100D6000A4070AD0C4684FEA420C06FA0CF7BC4349
:100D70008F6807FA0CF72743C7600C7904F0030467
:100D8000022C12D1D40800EB840CDCF82040570769
:100D9000FF0E09FA07F824EA0804D1F8108008FACF
:100DA00007F848EA0408CCF8208004684FEA420CAF
:100DB00006FA0CF7BC430F7907F0030707FA0CF7A4
:100DC000274307604C6814F4403F70D03C4C2768C0
:100DD00047F480472760246822F0030704F4804426
:100DE0000094384C07EB040CDCF8084897074FEAEE
:100DF000177809FA08F7BC43334FB84202D10027ED
:100E000024E054E0314FB84201D101271EE0304FB9
:100E1000B84201D1022719E02E4FB84201D1032771
:100E200014E02D4FB84201D104270FE02B4FB842F8
:100E300001D105270AE02A4FB84201D1062705E073
:100E4000284FB84201D1072700E0082707FA08F722
:100E50002743CCF80878DAF800405746D1F804C0A8
:100E60009C435FEACC2C00D51C433C60DBF800407F
:100E70005F46D1F804C09C435FEA8C2C00D51C432C
:100E80003C60DEF800407746D1F804C09C435FEA3E
:100E90008C3C00D51C433C60084F083F3C68D1F8AF
:100EA00004C09C435FEACC3C00D51C433C60521C10
:100EB000102AFFF42FAFBDE8F88F0000083C014076
:100EC000443802400030014000000240000402406B
:100ED00000080240000C02400010024000140240D2
:100EE00000180240001C02400069084000D00120A8
:100EF00070470AB1816170470904FBE701488068C7
:100F000070470000100000200248816802781144F8
:100F100081607047100000200B4810B5016841F453
:100F200000710160016841F480610160016841F471
:100F300080710160032000F06FF80F2000F006F8C8
:100F400000F024F8002010BD003C024070B50D4DAB
:100F500004464FF47A712878B1FBF0F00A49096829
:100F6000B1FBF0F000F00CFB48B9102C07D20022C6
:100F70002146501E00F030F800206C6070BD01204A
:100F800070BD0000100000201C0000200A4808B5B9
:100F9000016841F480410160006800F480400090E5
:100FA0000548001F016841F080510160006800F0B1
:100FB0008050009008BD000044380240002809DB42
:100FC00000F01F02012191404009800000F1E02063
:100FD000C0F8001170470000F0B40E4B1B680C46BF
:100FE000C3F30223C3F10705042D00D90425191DFD
:100FF000072901D2002300E0DB1E012606FA05F1D5
:10100000491E214099409E40761E16403143F0BC57
:1010100002F0AEBC0CED00E0064900F007020868E3
:101020004FF6FF03184040EA0220034A10430860CD
:10103000704700000CED00E00000FA052DE9F047D4
:101040000E46050065D0DFF81481D8F80000F7B22D
:1010500000F00700B04207D288F80070D8F800000E
:1010600000F00700B04254D128683D4C810712D5EA
:10107000400703D5206840F4E0502060287800073E
:1010800003D5206840F4604020602068A96820F003
:10109000F000084320602878C0072DD030496868E8
:1010A0000839012812D0022813D0032811D009686A
:1010B000890700292DDA216821F00301014321600D
:1010C000FFF71CFF814641F2883A0EE00968890368
:1010D000EFE709688901ECE7FFF710FFA0EB0901D2
:1010E000514502D90320BDE8F0872068696800F007
:1010F0000C00B0EB810FEFD1D8F80010404601F0A2
:101100000701B14207D90770006800F00700B0423C
:1011100001D00120E7E72878400705D52068E96875
:1011200020F4E050084320602878000706D52068A6
:10113000296920F4604040EAC100206000F038F8DE
:101140002168084AC1F30311515CC8400649086090
:1011500006480068FFF7FAFE0020C4E7003C0240A2
:1011600008380240443C00081C0000201400002005
:101170000448054900680968044AC1F38221515CAA
:10118000C84070471C00002008380240543C00084A
:101190000448054900680968044AC1F34231515CBA
:1011A000C84070471C00002008380240543C00082A
:1011B000154810B5006810F00C02144813D01449FB
:1011C000042A0FD0082A0ED10F4C241F226823684E
:1011D00002F03F025B0207D52068C0F38810A0FB35
:1011E000010106E0084610BD2168C1F38811A1FB8A
:1011F00000010023FEF7E6FF2168C1F30141491C0D
:101200004900B0FBF1F010BD083802400024F400A2
:1012100040787D012DE9F84F04006ED02078DFF88A
:101220004C93C007A9F104054AD009F104000168F4
:10123000C1F38101012908D00068C0F381000228B0
:101240000AD1D9F80000400206D52868800337D5B6
:1012500060680028E1D033E06068B0F5803F10D0CE
:10126000B0F5A02F286810D020F4803028602868BE
:1012700020F4802028606068A8B1FFF73FFE064692
:101280000DE0286840F48030F4E740F480202860C6
:10129000F7E700BFFFF732FE801B642873D8286889
:1012A0008003F7D50CE0FFF729FE064605E000BFF6
:1012B000FFF724FE801B6428F0D828688003F7D449
:1012C0002078DFF8AC8280074FF0000A3ED5A748AF
:1012D000001D016811F00C0F08D00068C0F38100F8
:1012E00002280BD1D9F80000400207D428688007F3
:1012F00016D5E068012800D112E033E1E068B8B10A
:101300000120C8F80000FFF7F9FD064605E000BF20
:10131000FFF7F4FD801B0228C0D828688007F7D5A6
:101320002868216920F0F80040EAC10028600DE03B
:10133000C8F800A0FFF7E2FD064604E0FFF7DEFD77
:10134000801B02281FD828688007F7D42078000760
:1013500022D5864F87486169703771B101210160DC
:10136000FFF7CCFD064604E0FFF7C8FD801B02280E
:1013700009D838688007F7D50EE0C0F800A0FFF75D
:10138000BDFD064605E082E0FFF7B8FD801B0228A0
:101390007DD838688007F7D42078400768D5DFF813
:1013A000CCB100270BF13C0BDBF80000C0000BD4E4
:1013B000DBF8001041F08051CBF80010DBF80000A2
:1013C000012700F0805000906B4E3068C00510D4AB
:1013D000306840F480703060FFF790FD009005E0C9
:1013E000FFF78CFD0099401A022850D83068C005DC
:1013F000F6D55E4EA0686C3601280FD005283068FF
:1014000010D020F001003060306820F0040030601F
:10141000A068B8B1FFF772FD00900FE0306840F0AF
:101420000100F4E740F004003060F7E7FFF766FDE5
:101430000099411A41F28830814266D830688007AD
:10144000F4D50EE0FFF75AFD009007E0FFF756FDD8
:101450000099411A41F28830814256D8306880079D
:10146000F4D42FB1DBF8001021F08051CBF800103C
:10147000A069C8B33D49091D0968C1F3810102296A
:101480004AD00228504607D0C8F8600000E03CE08F
:10149000FFF734FD04463BE04746C8F86000FFF71D
:1014A0002DFD064605E000BFFFF728FD801B022842
:1014B0002BD828688001F7D4D4E907010843A16A32
:1014C0002E4A490802EB0141626A41EA821108434F
:1014D00094F82C1040EA0161C9F800100120386628
:1014E000FFF70CFD044606E03EE000BFFFF706FDF7
:1014F000001B022809D828688001F7D534E000BF16
:10150000FFF7FCFC001B022802D90320BDE8F88F7E
:1015100028688001F4D427E00128F7D0D9F800002A
:10152000E26900F4800191421CD1226A00F03F017F
:10153000914217D147F6C071626A0140B1EB821F38
:1015400010D1A26A4FF0FF3300F4403103EB520296
:10155000B1EB024F06D194F82C1000F07060B0EBA4
:10156000016F01D00120D1E70020CFE7043802400D
:1015700000004742800E4742007000400000FFFF1D
:1015800010B5401EB0F1807F01D3012010BD4FF097
:10159000E02460610F21601702F0EAF90020A061E9
:1015A00007202061002010BD7047704710B590F8EB
:1015B0003C20012A22D0012280F83C20CA688C6895
:1015C00022F4407222434C6822F4806222430C6869
:1015D00022F4006222430C6922F4805222434C69B7
:1015E00022F400522243C969002322F480420A43B4
:1015F00001684A6480F83C30002010BD022010BD14
:1016000070B590F83C20012A32D0012480F83C408B
:10161000022280F83D2003685A689D6822F0700617
:101620000A6832435A60134B02689A4214D0B2F1EE
:10163000804F11D0104B9A420ED0104B9A420BD0D3
:101640000F4B9A4208D00F4B9A4205D00E4B9A424C
:1016500002D00E4B9A4204D1496825F08003194309
:10166000916080F83D40002180F83C10084670BD34
:10167000022070BD0000014000040040000800404E
:10168000000C0040000401400040014000180040F0
:1016900010B5040003D094F83D0010B107E001201C
:1016A00010BD002084F83C00204600F01FF8022006
:1016B00084F83D00211D206801F0D4FD012084F84C
:1016C000460084F83E0084F83F0084F8400084F827
:1016D000410084F8420084F8430084F8440084F810
:1016E000450084F83D00002010BD000008B52849E1
:1016F000026828488A4211D1016841F02001016046
:101700000068002200F02000009011463720FFF70B
:1017100063FCBDE808403720FFF750BC1D491E4B55
:10172000091D9A4207D1086840F002000860086865
:1017300000F0020009E0194B9A4208D1086840F411
:1017400000300860086800F40030009008BD144BB9
:101750009A4207D1086840F480200860086800F4C5
:101760008020F2E70F498A4207D1016841F08001E9
:101770000160006800F08000E7E70B498A42E5D18C
:10178000016841F480710160006800F48070DCE75A
:101790000014004040380240000401400044014071
:1017A00000480140001C00400020004090F83D101F
:1017B000012901D001207047022180F83D10016805
:1017C000CA6842F00102CA6000681149884214D018
:1017D000B0F1804F11D00F4988420ED00E49884297
:1017E0000BD00E49884208D00D49884205D00D49DA
:1017F000884202D00C49884204D1816801F0070177
:10180000062903D0016841F0010101600020704702
:10181000000001400004004000080040000C0040AF
:1018200000040140004001400018004070B504462B
:1018300090F83C000025012817D0012684F83C6070
:10184000022084F83D002068826822F0770222F4AA
:101850007F4282600868502838D00DDC20284FD0A5
:1018600005DC90B3102811D14AE0022070BD302869
:1018700046D040280AD13BE060282FD070280DD0F8
:10188000B0F5805F03D0B0F5005F12D0012584F879
:101890003D60002084F83C00284670BDCB68D1E94B
:1018A0000121206801F04AFD2068816841F077013C
:1018B00009E0CB68D1E90121206801F03FFD2068F3
:1018C000816841F480418160E1E719E0CA684968B4
:1018D000206801F007FE5021206806E0CA684968C8
:1018E000206801F010FE6021206801F031FDCEE794
:1018F000CA684968206801F0F5FD40212068F4E7D6
:10190000226801461046F0E72DE9F0410D4604003B
:1019100003D094F83D0018B108E00120BDE8F08143
:10192000002084F83C00204600F040F8022084F8B3
:101930003D002068816844F2070291438160211DC7
:10194000206801F08FFC226890689169166A2B6804
:10195000AF69034340F20330814341EA0721A8689D
:10196000EF6908434FF6FC418843E96840EA0720E5
:10197000014328692F6A000140EA0730084369687B
:101980006D6926F0AA0646EA051529439360226888
:10199000906154F8460B0162012004F81F09E075BC
:1019A0002076E0762077A0750020B7E730B587B0C5
:1019B000044614216846FEF73DFC24683E4A002197
:1019C0003E480223012594421BD13C4A143214683C
:1019D00044F001041460126802F0010205920268EA
:1019E00042F010020260006800F0100005904FF411
:1019F00020600090CDE90131CDE9031569463048FA
:101A000038E02E4A1032B4F1804F1BD02D4DAC423D
:101A100034D1146844F002041460126802F0020227
:101A20000592026842F002020260006800F00200C3
:101A3000059030200090CDE90131CDE903136946CE
:101A4000214817E0146844F001041460126802F0A1
:101A500001020592026842F001020260006800F093
:101A60000100059003200090CDE90131CDE9031577
:101A700069461648FFF740F907B030BD144DAC4237
:101A8000FAD1146844F004041460126802F00402ED
:101A90000592026842F008020260006800F0080047
:101AA00005904FF440500090CDE90131CDE903138A
:101AB00069460848DEE70000000001403038024077
:101AC00000100240000400400004024000000240F8
:101AD00000080040000C024070472DE9F041044628
:101AE0000068C66805694FF00007A90713D5B1075C
:101AF00011D5F91E016101202077206880698007D7
:101B0000204602D0FFF7E8FF04E000F01AF9204673
:101B100000F0DAF92777680716D5700714D5216821
:101B20006FF004000861022020772068806910F4BB
:101B3000407F204602D0FFF7CFFF04E000F001F91C
:101B4000204600F0C1F92777280715D5300713D5AF
:101B500021686FF008000861042020772068C069C0
:101B60008007204602D0FFF7B7FF04E000F0E9F855
:101B7000204600F0A9F92777E80616D5F00614D517
:101B800021686FF010000861082020772068C06984
:101B900010F4407F204602D0FFF79EFF04E000F0E3
:101BA000D0F8204600F090F92777E80708D0F00732
:101BB00006D021686FF001000861204600F086F928
:101BC000280608D5300606D521686FF08000086128
:101BD0002046FFF7E9FC680608D5700606D521689F
:101BE0006FF040000861204600F07AF9A8060AD597
:101BF000B00608D521686FF0200008612046BDE8D6
:101C0000F041FFF7D2BCBDE8F081000070B586B0AE
:101C1000044614216846FEF70DFB24682B48002279
:101C20002B490223032584420FD1086840F00400A9
:101C300008600868694600F0040005904FF4707071
:101C40000090CDE9013223480DE0234E2348B442F1
:101C50000FD10C6844F002040C60096801F0020125
:101C6000059181152DE0CDE90325FFF745F806B074
:101C700070BD1B4EB44209D10C6844F002040C60E4
:101C8000096801F00201059171151AE0154E092548
:101C90001548B44209D10C6844F001040C6009688D
:101CA00001F00101059140210BE0104EB442DED15C
:101CB0000C6844F001040C60096801F00101059111
:101CC00080210091CDE901326946CCE70004014052
:101CD0003038024000080240004401400004024045
:101CE00000480140001C004000000240002000406D
:101CF00070B5044690F83C00002501280FD0012063
:101D000084F83C006AB1042A0FD0082A11D00C2AAA
:101D100013D00125002084F83C00284670BD022025
:101D200070BD206801F01CFBF4E7206801F048FB5F
:101D3000F0E7206801F07AFBECE7206801F0AAFBED
:101D4000E8E7704710B5040003D094F83D0010B1E7
:101D500007E0012010BD002084F83C00204600F080
:101D60001EF8022084F83D00211D206801F07AFA57
:101D7000012084F8460084F83E0084F83F0084F88F
:101D8000400084F8410084F8420084F8430084F85D
:101D9000440084F8450084F83D00002010BD7047E1
:101DA00070B5044690F83C0000260D4601280FD07F
:101DB000012084F83C006AB1042A1DD0082A2FD0E3
:101DC0000C2A3FD00126002084F83C00304670BD2C
:101DD000022070BD206801F0C3FA2068816941F0DB
:101DE000080181612068816921F004018161206816
:101DF00081692A69114311E0206801F0E1FA206845
:101E0000816941F4006181612068816921F4806108
:101E10008161206881692A6941EA02218161D2E7F2
:101E2000206801F003FB2068C16941F00801C1612D
:101E30002068C16921F00401C1612068C1692A6973
:101E4000114311E0206801F025FB2068C16941F4CD
:101E50000061C1612068C16921F48061C1612068AD
:101E6000C1692A6941EA0221C161ACE710B50400E9
:101E700003D094F83D0010B107E0012010BD002010
:101E800084F83C00204600F01EF8022084F83D0053
:101E9000211D206801F0E6F9012084F8460084F84D
:101EA0003E0084F83F0084F8400084F8410084F844
:101EB000420084F8430084F8440084F8450084F824
:101EC0003D00002010BD70477047000000680349C6
:101ED000884201D101F0EABD7047000000140040C3
:101EE000704738B5044690F84200202801D00220FF
:101EF00038BD61B15AB101202063002060632046E3
:101F000001F0D4FC0028F3D1216B012901D001207C
:101F100038BD21680A684968009121680C3151E890
:101F2000002F42F0100241E80023002BF5D138BD0C
:101F300038B53A4A90426FD100296DD03848FEF743
:101F40008EF982B23649354800F0E8FA3548007813
:101F500040285AD123213348FEF777F9002854D07E
:101F60003048401C0090684601F034FE2D4C283C5F
:101F70002080684601F02EFE6080684601F02AFE4F
:101F80002081684601F026FE6081684601F022FE4D
:101F90002082684601F01EFE6082684601F01AFE4B
:101FA0002083684601F016FE6083684601F012FE49
:101FB000A080684601F00EFEE080684601F00AFE4F
:101FC000A081684601F006FEE081684601F002FE4D
:101FD000A082684601F0FEFDE082684601F0FAFD4D
:101FE000A083684601F0F6FDE083684601F0F2FD4B
:101FF000A084684601F0EEFDE084684601F0EAFD49
:102000002084684601F0E6FD6084BDE83840C822BF
:1020100004490548FFF765BF38BD000040030020B4
:10202000E01500206C160020880300207047000097
:10203000F8B5016804460868CA684B6910F00F0FCC
:102040004FF0000559D003F0010602F490773743B2
:1020500065D0C10705D0D10503D5616C41F0010100
:102060006164410705D5D90703D0616C41F00201D5
:102070006164810705D5D90703D0616C41F0040183
:102080006164010707D502F02001314303D0616C80
:1020900041F008016164616C00293AD0800604D5E2
:1020A000900602D5204601F01AFB20684069616C59
:1020B000C0F38010090700D460B3204601F0DAFABB
:1020C00020684069400621D52068143050E8001F80
:1020D00021F0400140E80012002AF5D1E06BA8B1E0
:1020E0006E490165E06BFEF7C6FB002811D0E06B7E
:1020F000016D01B0BDE8F040084783060FD5930697
:102100000DD52046BDE8F84001F0E9BA2046FFF7BA
:102110008DFFF8BD2046FFF789FF6564F8BD266B8B
:102120002023012E7DD1C6067BD5D60679D5086839
:102130004868009048694FF00206400641D5E16BBF
:10214000086840680004000CE8D0A28D8242E5D9FE
:10215000E085C869B0F5807F2DD020680C3050E84C
:10216000001F21F4807140E80012002AF5D1206898
:10217000143050E8001F21F0010140E80012002A4D
:10218000F5D12068143050E8001F21F0400140E8EC
:102190000012002AF5D184F84230256320680C3003
:1021A00050E8001F21F0100140E80012002AF5D18C
:1021B000E06BFEF717FB6663A08DE18D401A81B2DC
:1021C0002AE0A08DE18D401A81B2E08D0028A5D0D3
:1021D0000029A3D022680C3252E8000F20F490703E
:1021E00042E80007002FF5D12068143050E8002F96
:1021F00022F0010240E80027002FF5D184F8423098
:10220000256320680C3050E8002F22F0100240E8CF
:102210000023002BF5D166632046FFF789FEF8BD49
:10222000FFE705062BD5150629D594F8410021288E
:10223000F5D1A068B0F5805F01D12069B0B1206A06
:10224000411C2162216800784860E08C401E000437
:10225000000CE084E3D12068C16821F08001C160F6
:102260002068C16841F04001C160D8E7206A008859
:10227000C0F308004860206A801C2062E5E7400641
:10228000CDD55006CBD5CA68204622F04002CA60A0
:1022900084F8413000F07EF9C1E700002B350008DA
:1022A00070B5040004D094F84100002510B106E098
:1022B000012070BD84F84050204600F023F824200F
:1022C00084F841002068C16821F40051C1602046B3
:1022D00001F066FA2068016921F4904101612068EB
:1022E000416921F02A0141612068C16841F400512F
:1022F000C1606564202084F8410084F84200656371
:10230000002070BD2DE9F04F87B0044614216846C7
:10231000FDF790FF7548744E276874491038022203
:10232000032300254FF4406CB74217D10C6844F4E6
:1023300000240C60096801F400210591016841F056
:10234000040101600068CDF800C000F004000590B1
:102350000820CDE9033069466548C0E0DFF8948184
:102360000726DFF894E14FF0400B4FF000694FF47F
:10237000806A474549D15D49091D0F6847F010073C
:102380000F60096801F010010591016841F0010139
:1023900001600068694600F0010005904FF4C060DC
:1023A0008DE82500CDE903367046FEF7A5FC544EB6
:1023B0005248C8463060C6E90195C6E9035A7561BE
:1023C000B561F5613562574630467562FEF736FBFA
:1023D00008B1FEF796F8E663B463494E47486036A5
:1023E0007830C6E903577561B561F561356275628C
:1023F00086E801093046FEF721FB08B1FEF781F8B7
:10240000A663B46307B0BDE8F08FDFF8F8804745F6
:102410004CD10F6847F400370F60096801F40031B0
:102420000591016841F0010101600068694600F012
:10243000010005900C208DE82500CDE9033670469B
:10244000FEF75AFC2E4E3048C0364F463060C6E983
:102450000195C6E9035A7561B561F5613562D046EB
:1024600030467562FEF7EAFA08B1FEF74AF8E6630D
:10247000B463264E2448C6E903587561B561F56119
:1024800035621830756286E881083046FEF7D6FA64
:1024900008B1FEF736F8A663002211462620B46381
:1024A000FEF79AFD2620FEF789FDABE7184CA74200
:1024B000A8D10C6844F480240C60096801F48021E0
:1024C0000591016841F0020101600068CDF800C08B
:1024D00000F00200CDE904600E4869460393CDE99F
:1024E0000125FEF709FC8DE7004C00404038024012
:1024F0000008024000100140000002404064024019
:102500001804002000440040886002403805002084
:1025100000480040000402407047704770B5044610
:1025200090F84100202801D0022070BD49B342B389
:102530002162A284E28400206064212384F8413077
:10254000A56B114BEB63A56B104B2B64A56B104B6C
:10255000EB64A36B1865256813462A1DA06BFEF774
:10256000D7FA21686FF0400008602068143050E806
:10257000001F41F0800140E80012002AF5D1002040
:1025800070BD012070BD0000293600086B360008C0
:102590003B35000870477047FEE72DE9F0411C46C7
:1025A00015460E460746802800D37F27802D00D38E
:1025B0007F25A02E00D39F26A02C00D39F242A2065
:1025C00000F016FA002000F011FAF8B200F00EFA4E
:1025D000002000F00BFAE8B200F008FA2B2000F01F
:1025E00007FA002000F002FAF0B200F0FFF9002034
:1025F00000F0FCF9E0B200F0F9F9BDE8F0412C2060
:1026000000F0F6B92DE9F04780461F46581E83B208
:102610001646501E82B20C464046DDF82090FFF769
:10262000BCFF0AE0454604E0484600F0D5F96D1CC1
:10263000ADB2B542F8D3641CA4B2BC42F2D3BDE83B
:10264000F087000010B586B014216846FDF7F2FD52
:102650001948016841F004010160016801F00401BA
:102660000591016841F0080101600068134C00F019
:10267000080005900122BE212046FEF73AFCBE204C
:102680000121CDE900010220CDE902106946204672
:10269000FEF732FB012210212046FEF72AFC012220
:1026A00020212046FEF725FC012280212046FEF74E
:1026B00020FC06B010BD000030380240000C024083
:1026C00038B5FFF7BFFFC34D012210212846FEF7A2
:1026D00010FC012204212846FEF70BFC00220221F7
:1026E0002846FEF706FC002208212846FEF701FCDA
:1026F0007820FEF745FA012208212846FEF7F9FB6B
:102700007820FEF73DFA012000F072F99620FEF7DE
:1027100037FA112000F06CF99620FEF731FA3A20D2
:1027200000F066F9052000F077F9B12000F060F9BB
:10273000022000F071F9352000F06EF9362000F02B
:102740006BF9B22000F054F9022000F065F9352051
:1027500000F062F9362000F05FF9B32000F048F98C
:10276000022000F059F9352000F056F9362000F02B
:1027700053F9022000F050F9352000F04DF93620D1
:1027800000F04AF9B42000F033F9032000F044F9D6
:10279000C02000F02DF9A22000F03EF9022000F048
:1027A0003BF9842000F038F9C12000F021F9C52060
:1027B00000F032F9C22000F01BF90D2000F02CF9D6
:1027C000002000F029F9C32000F012F98D2000F05C
:1027D00023F92A2000F020F9C42000F009F98D2007
:1027E00000F01AF9EE2000F017F9C52000F000F90A
:1027F000122000F011F9B02000F0FAF8002000F0EB
:102800000BF9362000F0F4F8C82000F005F9E020BC
:1028100000F0EEF8042000F0FFF8222000F0FCF8B1
:10282000072000F0F9F80A2000F0F6F82E2000F05A
:10283000F3F8302000F0F0F8252000F0EDF82A2021
:1028400000F0EAF8282000F0E7F8262000F0E4F88D
:102850002E2000F0E1F83A2000F0DEF8002000F031
:10286000DBF8012000F0D8F8032000F0D5F81320A1
:1028700000F0D2F8E12000F0BBF8042000F0CCF822
:10288000162000F0C9F8062000F0C6F80D2000F070
:10289000C3F82D2000F0C0F8262000F0BDF823205A
:1028A00000F0BAF8272000F0B7F8272000F0B4F8BD
:1028B000252000F0B1F82D2000F0AEF83B2000F00C
:1028C000ABF8002000F0A8F8012000F0A5F80420E3
:1028D00000F0A2F8132000F09FF82A2000F088F8FA
:1028E000002000F099F8002000F096F8002000F099
:1028F00093F87F2000F090F82B2000F079F800206A
:1029000000F08AF8002000F087F8002000F084F83A
:102910009F2000F081F8362000F06AF8C82000F00F
:102920007BF8212000F064F8292000F061F81420E1
:10293000FEF726F92C2000F05BF80024A02380226B
:10294000214620460094FFF75DFE1420FEF718F99B
:102950000021A023802208460094FFF753FE142094
:10296000FEF70EF90021A023802208460094FFF70D
:1029700049FE1420FEF704F92C2000F039F86420F9
:10298000FEF7FEF8012202212846FEF7B2FA2A20BD
:1029900000F02EF8204600F03FF8204600F03CF80A
:1029A000204600F039F87F2000F036F82B2000F0A8
:1029B0001FF8204600F030F8204600F02DF82046A1
:1029C00000F02AF89F2000F027F8BDE838402C20BE
:1029D00000F00EB8000C024010B50446000A00F0EA
:1029E0001BF8E0B2BDE8104000F016B800F014B8D3
:1029F00070B5084C0546002204212046FEF779FAFE
:102A0000284600F009F82046BDE870400122042164
:102A1000FEF76FBA000C0240F8B5274E07460022B9
:102A200010213046FEF765FA00252C4600222021B1
:102A30003046FEF75EFA8DF8004004E09DF8000095
:102A4000401C8DF800009DF800000228F6D33806DF
:102A500001D5012200E0002280213046FEF749FA2C
:102A60008DF8004005E000BF9DF80000401C8DF887
:102A700000009DF800000228F6D3012220213046F4
:102A8000FEF737FA8DF8004005E000BF9DF8000022
:102A9000401C8DF800009DF800000228F6D378064F
:102AA0006D1C070EEDB2082DC0D33046BDE8F840CE
:102AB00001221021FEF71DBA000C0240194808B58A
:102AC000016841F400110160016801F400110091F6
:102AD000016841F4800101600068002200F4800078
:102AE000009011461020FEF777FA1020FEF766FAE4
:102AF000002211461120FEF76FFA1120FEF75EFA50
:102B0000002211463A20FEF767FA3A20FEF756FAFD
:102B1000002211464620FEF75FFABDE80840462035
:102B2000FEF74CBA3038024070B586B014216846C2
:102B3000FDF780FB27480024016841F01001016087
:102B4000016801F010010591016841F00101016087
:102B5000016801F001010591016841F00201016085
:102B6000016801F002010591016841F0080101606E
:102B7000016801F008010591016841F0040101605C
:102B80000068154E00F004000590002247F27C0119
:102B90003046FEF7AEF901250420CDE90005CDE968
:102BA000025469463046FEF7A7F847F278000090D5
:102BB000CDE90154694630460394FEF79DF84FF481
:102BC0007040CDE90004694604480294FEF794F889
:102BD00006B070BD303802400010024000040240D0
:102BE00010B588B01C216846FDF724FB1548144930
:102BF00000240160A721C0E9011444F61F61C0E967
:102C000003148461FEF744FD08B1FDF77AFC0D481A
:102C1000FFF72CF908B1FDF774FC6020CDE9000442
:102C200002940022694607480494FFF7B9F808B1F6
:102C3000FDF767FC0348FEF7E9FF08B010BD000090
:102C400000440140D801002010B588B01C2168461E
:102C5000FDF7F0FA1548144900240160A721C0E9E6
:102C6000011444F61F61C0E903148461FEF710FDEE
:102C700008B1FDF746FC0D48FFF7F8F808B1FDF77D
:102C800040FC6020CDE90004029400226946074818
:102C90000494FFF785F808B1FDF733FC0348FEF70D
:102CA000B5FF08B010BD0000004801402002002020
:102CB00010B588B01C216846FDF7BCFA15481449C8
:102CC00000240160A721C0E9011444F61F61C0E996
:102CD00003148461FEF7DCFC08B1FDF712FC0D481B
:102CE000FFF7C4F808B1FDF70CFC6020CDE9000443
:102CF00002940022694607480494FFF751F808B18E
:102D0000FDF7FFFB0348FEF781FF08B010BD000090
:102D1000001C00406802002010B588B01C216846E5
:102D2000FDF788FA144813490024C0E900144FF64F
:102D3000FF71C0E9024104618461FEF7A9FC08B19A
:102D4000FDF7DFFB0C48FFF791F808B1FDF7D9FB61
:102D50006020CDE9000402940022694606480494EC
:102D6000FFF71EF808B1FDF7CCFB0348FEF74EFF56
:102D700008B010BD00200040B002002010B58CB09B
:102D800024216846FDF756FA002416480994144990
:102D90000A94C0E900144FF6FF71C0E902410461D2
:102DA000446184610120CDE90004CDE9020404946A
:102DB000CDE90540079469460A480894FEF7A4FD4A
:102DC00008B1FDF79EFB099409A906480A94FEF78D
:102DD00017FC002801D0FDF794FB0CB010BD0000DB
:102DE000000001402800002010B58CB02421684666
:102DF000FDF720FA0024144809944FF080410A940A
:102E0000C0E90014611EC0E902410461846101202F
:102E1000CDE90004CDE902040494CDE9054007940E
:102E2000694609480894FEF76FFD08B1FDF769FB94
:102E3000099409A904480A94FEF7E2FB002801D08E
:102E4000FDF75FFB0CB010BD7000002010B58CB01A
:102E500024216846FDF7EEF900241548099413492A
:102E60000A94C0E900144FF6FF71C0E90241046101
:102E700084610120CDE90004CDE902040494CDE988
:102E80000540079469460A480894FEF73DFD08B1DD
:102E9000FDF737FB099409A905480A94FEF7B0FB32
:102EA000002801D0FDF72DFB0CB010BD0004004040
:102EB000B800002010B58CB024216846FDF7BAF99F
:102EC00000241548099413490A94C0E900144FF6E8
:102ED000FF71C0E90241046184610120CDE9000471
:102EE000CDE902040494CDE90540079469460A48F7
:102EF0000894FEF709FD08B1FDF703FB099409A941
:102F000005480A94FEF77CFB002801D0FDF7F9FA8A
:102F10000CB010BD00080040000100201CB50024CA
:102F20000E4800940C4901940160A721C0E90114E6
:102F300042F20F718461C160FEF7AAFB08B1FDF790
:102F4000E0FA0094694605480194FEF759FB002811
:102F500001D0FDF7D6FA1CBD001400404801002046
:102F600010B596B000240F941094119412941394F9
:102F70001C2168461494FDF75DF9202107A8FDF790
:102F800059F937483549C0E900144FF6FF71C0E9D7
:102F90000241046144618461FEF77AFB08B1FDF7E8
:102FA000B0FA4FF480500F900FA92D48FEF73EFC69
:102FB00008B1FDF7A6FA2A48FEF758FF08B1FDF759
:102FC000A0FA2748FEF7BEFE08B1FDF79AFA13945F
:102FD00013A923481494FEF713FB08B1FDF791FAE7
:102FE0006020CDE900040294039404940594002227
:102FF00069461B480694FEF7D3FE08B1FDF781FA37
:103000000422694616480094FEF772FE08B1FDF7E7
:1030100078FA082269461248FEF76AFE08B1FDF701
:1030200070FA0C2269460E48FEF762FE08B1FDF701
:1030300068FA0794089409944FF400500A94CDE973
:103040000B4007A906480E94FEF7B0FA08B1FDF749
:1030500058FA0348FEF7DAFD16B010BD000401402F
:10306000900100200C4810B50A4901604FF4E1318D
:103070004160002181600C22C160C0E904128161BD
:10308000C161FFF70DF9002803D0BDE81040FDF73E
:1030900038BA10BD004C0040F80200200C4810B5B2
:1030A0000A4901604FF4E1314160002181600C2246
:1030B000C160C0E904128161C161FFF7F1F8002825
:1030C00003D0BDE81040FDF71CBA10BD0010014050
:1030D000400300200C4810B50A4901604FF4E1316B
:1030E0004160002181600C22C160C0E9041281614D
:1030F000C161FFF7D5F8002803D0BDE81040FDF707
:1031000000BA10BD00440040880300200C4810B5F0
:103110000A4901604FF4E1314160002181600C22D5
:10312000C160C0E904128161C161FFF7B9F80028EC
:1031300003D0BDE81040FDF7E4B910BD00480040E1
:10314000D0030020FEE7FEE77047704770B5FDF73B
:10315000DBFE154801240023018839B94188491C48
:1031600089B24180142913D3438004800F4A104947
:10317000157875B10488002C0AD0002D08D0038082
:103180000888001F80B20880B0F5FA7F00D813705D
:1031900070BD03800888001D80B2088040F6C4110D
:1031A0008842F5D3147070BD0C000020020000208E
:1031B0000000002030B593B030216846FDF73AF8A2
:1031C00014210CA8FDF736F81D480025016841F0D0
:1031D00080510160006800F080501190194801682A
:1031E00041F4804101600068022400F480401190A5
:1031F0000120039010200490009406940820CDE94B
:103200000750A820CDE9090404200B906846FEF77A
:1032100001F808B172B6FEE70CA90F2081E8310071
:103220004FF4A0500F904FF48050109005210CA83F
:10323000FDF704FF002801D072B6FEE713B030BDE1
:1032400040380240007000400248016841F47001BB
:103250000160704788ED00E00148FEF73EBC0000C9
:1032600048010020F0B50268294C2A4D2A4E2B4F08
:103270002B4B4FF0804CA04209D0604507D0A842AC
:1032800005D0B04203D0B84201D0984204D122F018
:10329000700E4A6842EA0E02A0421BD0604519D067
:1032A000A84217D0B04215D0B84213D0984211D0DE
:1032B0001C4DA8420ED01C4DA8420BD01B4DA8425D
:1032C00008D01B4DA84205D01A4DA84202D01A4D75
:1032D000A84203D122F44075CA682A434D6922F0FE
:1032E00080022A4302608A68C2620A688262A0423F
:1032F00001D0984201D1096901630121416101694D
:10330000C90703D0016921F001010161F0BD00008E
:10331000000001400004004000080040000C004094
:1033200000040140004001400044014000480140C9
:1033300000180040001C00400020004010B58468C8
:1033400042EA032224F47F440A432243826010BDF0
:10335000826822F070020A4342F0070181607047E0
:10336000F0B5036A026A22F00102026242688469CF
:10337000124E24F073050C682C4323F002058B6871
:103380002B430D4DA84201D0B04205D123F00807D0
:10339000CB683B4323F00403A84201D0B04205D1DF
:1033A0004D6922F4407215438A692A434260846160
:1033B000496841630362F0BD000001400004014020
:1033C000F0B5026A036A23F010030362436884695C
:1033D0000D6824F4E64444EA05248D6822F02002B6
:1033E00042EA05120F4D104EA84201D0B04206D15C
:1033F000CF6822F0800242EA071222F04002A8427F
:1034000001D0B04207D14D6923F4406343EA8503FC
:103410008D6943EA85034360846149688163026280
:10342000F0BD00000000014000040140F0B5026A58
:10343000036A23F4807303624368C46922F4007250
:1034400024F073050C68124E2C438D6842EA052265
:103450000E4DA84201D0B04206D1CF6822F40062DE
:1034600042EA072222F48062A84201D0B04207D18A
:103470004D6923F4405343EA05138D6943EA05136C
:103480004360C4614968C1630262F0BD000001404D
:103490000004014030B5046A026A22F480520262DC
:1034A0004268C3690D6823F4E64343EA05238D6847
:1034B00024F4005444EA0534084DA84202D0084DD3
:1034C000A84204D14D6922F4804242EA851242604A
:1034D000C36149680164046230BD0000000001401E
:1034E0000004014010B5036A046A24F00104046278
:1034F000846924F0F00444EA021423F00A020A4327
:103500008461026210BD10B5036A046A24F01004DD
:103510000462846923F0A00324F4704444EA023274
:1035200043EA01118261016210BD10B5806B002178
:10353000C185C184FEF77AFD10BD70B5846B20682B
:10354000406994F84110C0F3C0100025212904D12E
:1035500018B1E584204600F0B4F82068406994F87A
:103560004210C0F38010222904D118B1E58520460D
:1035700000F080F8606C40F0100060642046FEF7B8
:1035800055FD70BD10B50146806B096809684FF0A4
:103590000002C9052ED4C28501680C3151E8003FF4
:1035A00023F4807341E80034002CF5D10168143114
:1035B00051E8003F23F0010341E80034002CF5D12D
:1035C0000168143151E8003F23F0400341E8003422
:1035D000002CF5D1202180F84210016B012909D17E
:1035E00001680C3151E8003F23F0100341E800343A
:1035F000002CF5D14263016B012902D0FEF78CFF4C
:1036000010BD818DFEF794FC10BD10B5806B0121BB
:103610004163016B012902D0FEF77FFF10BD818D50
:103620004908FEF785FC10BD10B50146806B09689E
:103630000968C90516D40021C1840168143151E814
:10364000002F22F0800241E80023002BF5D1016811
:103650000C3151E8002F42F0400241E80023002BDA
:10366000F5D110BDFEF796FF10BD10B5806BFEF7CB
:1036700092FF10BD01680C3151E8002F22F49072C6
:1036800041E80023002BF5D10168143151E8002FE7
:1036900022F0010241E80023002BF5D1016B012942
:1036A00009D101680C3151E8002F22F0100241E8E5
:1036B0000023002BF5D1202180F842100021016366
:1036C000704701680C3151E8002F22F0C00241E838
:1036D0000023002BF5D1202180F84110704708B558
:1036E00090F84210222901D0022008BD82684FF4D0
:1036F00080539A4201D1016921B1816A9A421BD05B
:103700004AB10AE00268816A5268C2F308020A807C
:10371000816A891C08E0026972B10268526802F08D
:103720007F020A70816A491C8162C18D491E0904A9
:10373000090CC18503D01BE002685268F1E70168FB
:10374000CA6822F02002CA600168CA6822F4807246
:10375000CA6001684A6922F001024A61202180F8AA
:10376000421000214163026B012A03D0FEF7D4FE10
:10377000002008BD016301680C3151E8002F22F0E0
:10378000100241E80023002BF5D101680A68D20637
:1037900002D50A6849680091818DFEF7C9FBE7E709
:1037A00070B5044600680169E26821F44051114394
:1037B00001612169A068E269084361691143084316
:1037C0002168CA6849F20C639A430243CA602068C0
:1037D0004169A26921F44071114341613149206876
:1037E000884202D03049884202D1FDF7D1FC01E085
:1037F000FDF7BEFCE2690023192164253226B2F5EB
:10380000004F626828D0A0FB0101930F9200FCF7E3
:10381000D9FC0146B0FBF5F06FF01802504301EB04
:10382000800006EB0010B0FBF5F000F0F002B1FBF9
:10383000F5F002EB0012B1FBF5F06FF018035843FE
:1038400001EB800006EB0010B0FBF5F000F00F007C
:1038500021681044886070BDA0FB010192185B4193
:10386000FCF7B0FC0146B0FBF5F00201B1FBF5F04E
:103870006FF01803584301EB800006EBC000B0FB6B
:10388000F5F000F0F80002EB4002B1FBF5F0584310
:1038900001EB800006EBC000B0FBF5F000F0070084
:1038A000D6E70000001001400014014038B58162E5
:1038B00004468285002013466064222284F8422058
:1038C000E56B1B4AEA63E56B1A4A2A64E56B1A4A00
:1038D000EA64E26B10650A462168E06B091DFDF79A
:1038E00017F92068016840680090206948B1206895
:1038F0000C3050E8001F41F4807140E80012002AAB
:10390000F5D12068143050E8001F41F0010140E873
:103910000012002AF5D12068143050E8001F41F051
:10392000400140E80012002AF5D1002038BD000017
:10393000853500080B3600083B3500080148FEF7C6
:1039400077BB000088030020FEE700000FB40846A4
:1039500010B5064A02A900F02EF8044602A900207C
:1039600000F03AF8204610BC5DF814FBD939000885
:103970000907090E002804DB00F1E02080F800149C
:10398000704700F00F0000F1E02080F8141D704730
:10399000004870472400002002E008C8121F08C138
:1039A000002AFAD170477047002001E001C1121FC0
:1039B000002AFBD170472DE9F04116460F46044618
:1039C000002503E03946B047641C6D1C20780028B0
:1039D000F8D12846BDE8F0810A68531C0B601070CE
:1039E00070470000FF224FF480610148FCF71BBCC8
:1039F000E005002010B5FFF7F5FF074890ED000A3D
:103A0000064880ED010A0B2000F0FBF8BDE81040ED
:103A1000012000F005B8000020000020E005002093
:103A20002DE9F0410E490F4D01EB80268027FDF76F
:103A30004DF9002405EBC40006EBC401D0E90023D6
:103A40000320FDF705F920B1FDF7F8F80120BDE8E6
:103A5000F081641CBC42EDD3FDF7F0F80020F6E7DE
:103A600000000E08E005002010B50D4C207801285C
:103A700014D10CA1A4F11400FFF768FFA4F1140005
:103A8000FCF7EDFB82B2A4F114010748FEF746FDF6
:103A900000202070BDE81040FFF7ACBF10BD000053
:103AA000CC050020616100008803002070B5214D25
:103AB0004FF480512846FDF717FA1F4C4FF4005180
:103AC000A0702846FDF710FAE0714FF480412846B7
:103AD000FDF70AFA20734FF400412846FDF704FA77
:103AE000607400200546012200EB800631194B78F6
:103AF00023B1012B06D0022B0ED015E08B789BB999
:103B00004A7070BD00EB80002044807808B14D7091
:103B100070BD0220487070BD897829B100EB80002B
:103B200020444570A25570BD401CC0B20328DBD9AB
:103B300070BD000000040240CC0500200148FDF7E4
:103B400035BE00004801002008B5FDF7E5F9FFF794
:103B500031FBFEF7E9FFFEF7B1FFFFF70FF9FFF7C3
:103B600043F9FFF773F9FFF7A5F9FFF7F9F9FFF745
:103B700037F8FFF769F8FFF79BF8FFF78FFAFFF7C1
:103B8000A9FAFFF7C3FAFFF76DFAFFF7C5F8FFF7D9
:103B9000C5F90D4D42200D4C2860142020801E20B8
:103BA00060803220208128206081FCF72BFC084EA9
:103BB00020886860142128230A2208460096FCF712
:103BC000AFFDFFF751FFF3E704000020441600208B
:103BD0003417002038B5044600680A226946FCF70D
:103BE00045FB226800998A4204D0002802DBB0F528
:103BF000803F02DB0020216038BD491C80B221607B
:103C000038BD00B587B0002102900120039002204A
:103C100000910490FDF75AF805A96846FCF7C2FF29
:103C2000FDF70CF807B000BD322202490248FEF74A
:103C300058B90000E01500204003002000061016CF
:103C4000000610160000000000000000010203043E
:103C5000060708090000000001020304004040407C
:103C6000404040404040414141414140404040404F
:103C700040404040404040404040404040050202FB
:103C800002020202020202020202020202202020BA
:103C90002020202020202002020202020202909016
:103CA0009090909010101010101010101010101014
:103CB0001010101010101010020202020202888868
:103CC0008888888808080808080808080808080874
:103CD000080808080808080802020202400000005C
:103CE0005D3C0008043D00080000002028000000A2
:103CF000983900082C3D000828000020F01C000026
:103D0000A8390008F40100000000000000000000D5
:103D10000000000001000000100000000000000092
:0C3D20000024F40000000000000000007F
:040000050800018965
:00000001FF
