:020000040800F2
:10000000D0200020A101000833350008E5270008B2
:1000100031350008F9040008513D000800000000D7
:10002000000000000000000000000000373500085C
:10003000D1050008000000003535000839350008FA
:10004000BB010008BB010008BB010008BB010008A0
:10005000BB010008BB010008BB010008BB01000890
:10006000BB010008BB010008BB010008BB01000880
:10007000BB010008BB010008BB010008BB01000870
:10008000FD04000809050008BB010008BB010008C9
:10009000BB010008BB010008BB010008BB01000850
:1000A000BB010008BB010008BB010008BB01000840
:1000B000BB010008BB010008BB010008BB01000830
:1000C000BB010008BB010008BB010008BB01000820
:1000D000BB010008BB010008453D0008BB0100084A
:1000E000BB010008BB010008BB010008BB01000800
:1000F000BB010008BB010008BB010008BB010008F0
:10010000BB010008BB010008BB010008BB010008DF
:10011000BB010008BB010008BB0100084536000810
:10012000BB010008BB01000815050008BB01000861
:10013000BB010008BB010008BB010008BB010008AF
:10014000BB010008BB010008BB010008BB0100089F
:10015000BB010008BB01000821050008BB01000825
:10016000BB010008BB010008BB010008BB0100087F
:10017000BB010008BB010008BB0100080000000033
:10018000BB010008BB010008DFF810D000F02CF91B
:1001900000480047553F0008AFF30080D020002002
:1001A0000648804706480047FEE7FEE7FEE7FEE711
:1001B000FEE7FEE7FEE7FEE7FEE7FEE7353600086E
:1001C000890100082DE9F05F0546002092469B4614
:1001D00088460646814640241BE02846414647465D
:1001E000224600F09CF853465A46C01A914110D35B
:1001F00011461846224600F083F82D1A67EB0108D5
:100200004F4622460120002100F07AF817EB000942
:100210004E41201EA4F10104DFDC484631462A4647
:100220004346BDE8F09F40EA01039B0703D009E085
:1002300008C9121F08C0042AFAD203E011F8013BD2
:1002400000F8013B521EF9D27047D2B201E000F82B
:10025000012B491EFBD270470022F6E710B513466A
:100260000A4604461946FFF7F0FF204610BDCAB201
:10027000401E10F8011F8A4202D00029F9D1002047
:100280007047421C10F8011B0029FBD1801A7047EF
:100290002DE9F04791460F4680460446002614F8A3
:1002A000015B2DB100F04CF80068405DC007F6D14D
:1002B0002B2D02D02D2D18D0641E4A4639462046DB
:1002C00000F042F827B13968A14201D1C7F8008097
:1002D00071054FF002040BD54042002803DD03F006
:1002E0005BFD0460A007BDE8F08746F48066E4E7A4
:1002F0000028F8DA03F050FD04606FF00040F2E7E8
:10030000202A04DB203A00FA02F1002070479140D5
:10031000C2F1200320FA03F3194390407047202ACA
:1003200004DB203A21FA02F00021704721FA02F39F
:10033000D040C2F1200291400843194670470000A6
:1003400000487047007C00082DE9F05F8246007885
:10035000002715468B460AF10104B946302801D022
:100360009DB113E014F8010B0127782803D0582819
:1003700001D045B10AE00DB1102D07D1002710259D
:1003800014F8010B02E0082500E00A250026B0461B
:100390000EE005FB080005FB06F1012701EB104606
:1003A0001FFA80F8B6F5803F00D3B94614F8010B68
:1003B000294600F02BF80028EBDABBF1000F05D03E
:1003C0000FB1641E00E05446CBF80040B9F1000FB5
:1003D00006D003F0E1FC02210160C81EBDE8F09FD9
:1003E00048EA0640FAE70000064C074D06E0E068E0
:1003F00040F0010394E8070098471034AC42F6D36C
:10040000FFF7C6FE047C0008247C00083A2800D2CE
:10041000303820F02002412A01D3A2F1370088426F
:1004200001D34FF0FF30704700B52DED028BA1B026
:1004300003F0FCFE03F088FD02F034FA02F070FADB
:100440004FF6FF7000210090B4238022084602F08E
:100450000AFA9FED258AB2EE040A0021B0EE481A8E
:10046000F0EE480A214803F095FEB0EE481AF0EE8F
:10047000480AB2EE040A00211D4803F08BFE3D221B
:100480001C490EA8FFF7CFFE1A4810F83D1F8DF843
:10049000751041788DF8761081788DF87710C178D5
:1004A0008DF8781001798DF8791041798DF87A10EE
:1004B00081798DF87B10C1798DF87C10017A8DF8E7
:1004C0007D10407A8DF87E00382212A96846FFF729
:1004D000AAFE0DF1380C9CE80F0003F077FE21B066
:1004E000BDEC028B00BD000000000000D81500200C
:1004F0000C160020D0010020FEE70000014800F0AB
:100500009BBA0000D0040020014800F095BA00001A
:1005100030050020014800F08FBA000010040020D0
:10052000014800F089BA0000700400200168182317
:10053000CAB2103AB2FBF3F2054B6FF30901032A7A
:100540009B5CC36500D9091D8165084670470000A2
:100550004042000810B5014600208B698A6A4FF0BE
:10056000C07453B1B3F5005F15D072B1012A0CD03D
:10057000022A0AD0032A09D104E01AB1012A06D0BE
:10058000022A03D1C96AC90100D5012010BDC96A78
:10059000A142FAD010BD002AF7D0012AF2D0022AD7
:1005A000F3D0032AF3D010BD30B50468256825F4D4
:1005B00080252560046863608368402B036803D04E
:1005C00099600068C26030BD9A600068C16030BD4B
:1005D000704772B6FEE70000002229B101291AD047
:1005E00002291BD04FF440720E490B6823F440736C
:1005F0000B600B6813430B600A6822F0F8020A6074
:100600000A68022303EBC00002430A60086840F452
:100610008030086070474FF48072E5E74FF4007255
:10062000E2E70000103C02401348016889050FD53D
:10063000016821F400710160016841F4006101600A
:10064000016821F400610160016841F400710160FA
:10065000016849050FD5016821F4806101600168D6
:1006600041F480510160016821F48051016001680A
:1006700041F4806101607047003C024008490A680B
:1006800022F440720A600A6842F004020A600A68B2
:100690004FF4803343EA002002430A6070470000B1
:1006A000103C0240064A136823F440731360136839
:1006B0001360136843F0010313600170704700007A
:1006C000103C0240094910B50C6824F440740C60D9
:1006D0000C6844F440740C600C6844F001040C6035
:1006E0000260BFF36F8F436010BD0000103C0240FA
:1006F000074A136823F440731360136843F480734C
:100700001360136843F00103136001807047000019
:10071000103C0240074A136823F4407313601368C7
:1007200043F400731360136843F001031360016026
:1007300070470000103C024017490868C20617487D
:1007400005D5C26942F01002C26110220A600A682F
:10075000920605D5C26942F00802C26120220A60F1
:100760000A68520605D5C26942F00402C2614022FD
:100770000A600A68120605D5C26942F00202C26127
:1007800080220A600A68920705D5C26942F02002F9
:10079000C2610220086070470C3C024090050020B6
:1007A00070B5114904460020C86100F075FC06468A
:1007B0000E4D09E0601C07D024B100F06DFC801BD9
:1007C000A04201D9032070BD2868C003F2D4286874
:1007D000C00701D001202860286810F0F200F2D094
:1007E000FFF7AAFF012070BD900500200C3C0240DD
:1007F0002DE9F04F0028DDF824A001DA002002E006
:10080000782800DB7720002A01DA002202E0782A2B
:1008100000DB7722002900DA0021002B00DA002318
:100820004FF00009904207DD0446104622460C4670
:10083000194623464FF0010990420FD1994201DA3F
:100840000A4600E01A4605DA194603E04AF8202075
:1008500002F101028A42F9DDBDE8F08F171A5C1A35
:1008600000D56442994201DA012501E04FF0FF35DD
:10087000AE4605463E1B0846C4F1000B1BE000BF18
:10088000B9F1000F08D0884204D0A0EB010CA3EB13
:100890000C0C02E08C4600E084464AF825C09542E4
:1008A000DAD04FEA460CDC4501DD361B6D1CBC4539
:1008B00001DA3E4470449542E2DDCDE72DE9F84F80
:1008C0000029DDF828A001DA002102E03C2900DB44
:1008D0003B21002B01DA002302E03C2B00DB3B2311
:1008E000002800DA0020002A00DA002200279942BE
:1008F00006DD0C46194623460446104622460127CB
:1009000099420FD1904201DA034600E0134605DA1E
:10091000104603E04AF8213003F101038342F9DD78
:10092000BDE8F88F141A00D564425E1A904201DACD
:10093000012501E04FF0FF350095A51B8146C6F16A
:10094000000E1AE047B1814504D0A9EB000CA2EBE0
:100950000C0C02E0844600E0CC464AF821C09942E3
:10096000DED04FEA450BF34503DDDDF80080AD1B1B
:10097000C144A34501DA2544491C9942E2DDCFE791
:100980002DE9F0410446876D00F086FB064694F899
:1009900035000025022806D08020606584F8345098
:1009A0000120BDE8F0812068016821F01601016096
:1009B0002068416921F080014161206C08B9A06C78
:1009C00020B12068016821F00801016020680168F9
:1009D00021F0010101600CE000F05EFB801B0528A6
:1009E00007D920206065032084F8350084F834504E
:1009F000D7E720680068C007EED194F85C103F206C
:100A00008840B860012084F8350084F83450002014
:100A1000C7E790F83510022903D0802141650120F5
:100A20007047052180F835100068016821F0010148
:100A300001600020704700002DE9F84304464FF0A4
:100A40000009CDF8009063484FF41651A56D006879
:100A5000B0FBF1F72E6894F85C10082000FA01F161
:100A600031420FD021680A6852070BD50A6822F07C
:100A700004020A6094F85C108840A860606D40F041
:100A80000100606594F85C104FF0010808FA01F06D
:100A9000304208D021684969090604D5A860606D14
:100AA00040F00200606594F85C10042088403042F9
:100AB00008D021680968890704D5A860606D40F0F6
:100AC0000400606594F85C1010208840304218D013
:100AD00021680968090714D5A860206801684903DE
:100AE00004D50068000308D5A16C07E00168C905BA
:100AF00003D4016821F008010160216C09B120468E
:100B0000884794F85C1020208840304231D021681A
:100B10000968C9062DD5A86094F835000528206815
:100B2000016806D0490347D5006800031DD4616CF5
:100B30001CE021F0160101602068416921F080016C
:100B40004161206C08B9A06C20B12068016821F0D7
:100B50000801016094F85C103F208840A86084F888
:100B6000358084F83490216D1FE0E16B09B1204697
:100B70008847606D00282BD0606DC00714D0052019
:100B800084F835002068016821F0010101600098B7
:100B9000401C0090B84203D820680068C007F6D116
:100BA00084F8358084F83490E16C002910D001B0CD
:100BB0002046BDE8F04308470168C905D5D401685F
:100BC00021F01001016084F8358084F83490CCE77E
:100BD000BDE8F883140000202DE9F041044600F040
:100BE0005BFA06465CB1022084F83500002584F8E3
:100BF00034502068016821F0010101600DE00120FE
:100C0000BDE8F08100F048FA801B052805D92020B6
:100C10006065032084F83500F2E720680068C007AB
:100C2000F0D12268116820480140D4E9010318433B
:100C3000D4E903363343184363691843A36918435F
:100C4000E3691843236A18430843616A042903D1FE
:100C5000D4E90B1319430843106020684069666AA1
:100C600020F0070130460E43012704280CD1A06A6A
:100C70000643E06A40B12046FFF76CFC20B14020FB
:100C8000606584F83570BAE7206846612046FFF752
:100C90004DFC94F85C203F2191408160656584F8AB
:100CA00035700020ACE700003F8010F02DE9F041E6
:100CB0000446866D90F83400002501280DD00120EF
:100CC00084F8340094F835700020012F07D084F8A0
:100CD000340002252846BDE8F0810220FBE7022708
:100CE00084F8357060652046FFF75EFC94F85C1070
:100CF0003F208840B0602068016841F01601016023
:100D0000206C20B12068016841F008010160206872
:100D1000016841F001010160DCE7000070B50446A4
:100D200000F0BAF90546601C02D00448007804447B
:100D300000F0B2F9401BA042FAD370BD08000020B9
:100D40002DE9F047044622480F46017E01290AD0CA
:100D50000121804601764CF250394846FFF720FDCC
:100D6000020003D02FE00220BDE8F0874FF0FF30F3
:100D700038602068174D012801D0A6681CE0207C4F
:100D80006168FFF77BFC4846FFF70AFD02462868CA
:100D900020F00400286014E0217C3046FFF71CFCA2
:100DA0004846FFF7FDFC0200286820F0FA002860A2
:100DB00001D03E6005E0761CD4E902100844B04240
:100DC000EAD8FFF731FC002188F818101046CBE76D
:100DD00090050020103C02400348016841F00041AA
:100DE0000160002070470000103C02402DE9F047F0
:100DF0001B4E05461446307E1F468946012808D002
:100E0000012030764CF250384046FFF7C9FC18B14B
:100E100014E00220BDE8F0879DB1012D16D0022D0F
:100E200019D022463B464846FFF74CFC4046FFF7A8
:100E3000B7FC0C490A6822F001020A6000213176F1
:100E4000E8E7E1B24846FFF72DFCEFE7A1B24846DC
:100E5000FFF74EFCEAE721464846FFF75BFCE5E773
:100E600090050020103C0240074900200A68002A33
:100E700009DA054A054B0C3A1360054B1360096803
:100E8000002900DA01207047103C02402301674529
:100E9000AB89EFCD2DE9F84FDFF8BCA10022012589
:100EA00003264FF00F090AF1040BAAF1040E00BF4C
:100EB0000B6805FA02F42340A34270D10F7907F0C2
:100EC0000307012F01D0022F16D187684FEA42088D
:100ED00006FA08FC27EA0C07D1F80CC00CFA08FC4B
:100EE0004CEA070CC0F808C04768A7430C79C4F364
:100EF000001494403C4344600C79E443A4070AD0B6
:100F0000C4684FEA420C06FA0CF7BC438F6807FA34
:100F10000CF72743C7600C7904F00304022C12D1AC
:100F2000D40800EB840CDCF820405707FF0E09FAC8
:100F300007F824EA0804D1F8108008FA07F848EA0C
:100F40000408CCF8208004684FEA420C06FA0CF73B
:100F5000BC430F7907F0030707FA0CF72743076034
:100F60004C6814F4403F70D03C4C276847F48047ED
:100F70002760246822F0030704F480440094384C6E
:100F800007EB040CDCF8084897074FEA177809FAD2
:100F900008F7BC43334FB84202D1002724E054E0A5
:100FA000314FB84201D101271EE0304FB84201D184
:100FB000022719E02E4FB84201D1032714E02D4F2C
:100FC000B84201D104270FE02B4FB84201D10527C9
:100FD0000AE02A4FB84201D1062705E0284FB8425F
:100FE00001D1072700E0082707FA08F72743CCF8C4
:100FF0000878DAF800405746D1F804C09C435FEA0D
:10100000CC2C00D51C433C60DBF800405F46D1F897
:1010100004C09C435FEA8C2C00D51C433C60DEF886
:1010200000407746D1F804C09C435FEA8C3C00D571
:101030001C433C60084F083F3C68D1F804C09C4307
:101040005FEACC3C00D51C433C60521C102AFFF4E4
:101050002FAFBDE8F88F0000083C01404438024043
:10106000003001400000024000040240000802403D
:10107000000C024000100240001402400018024020
:10108000001C02400069084000D0012070470AB1EE
:10109000816170470904FBE70148806870470000E0
:1010A000080000200248816802781144816070477E
:1010B000080000200B4810B5016841F40071016080
:1010C000016841F480610160016841F48071016050
:1010D000032000F06FF80F2000F006F800F024F86D
:1010E000002010BD003C024070B50D4D04464FF489
:1010F0007A712878B1FBF0F00A490968B1FBF0F089
:1011000000F00CFB48B9102C07D200222146501EDB
:1011100000F030F800206C6070BD012070BD000050
:1011200008000020140000200A4808B5016841F4B6
:1011300080410160006800F4804000900548001F75
:10114000016841F080510160006800F0805000901B
:1011500008BD000044380240002809DB00F01F02EF
:10116000012191404009800000F1E020C0F8001109
:1011700070470000F0B40E4B1B680C46C3F302230B
:10118000C3F10705042D00D90425191D072901D233
:10119000002300E0DB1E012606FA05F1491E21406E
:1011A00099409E40761E16403143F0BC02F0E4BDEB
:1011B0000CED00E0064900F0070208684FF6FF0357
:1011C000184040EA0220034A1043086070470000BC
:1011D0000CED00E00000FA052DE9F0470E46050091
:1011E00065D0DFF81481D8F80000F7B200F00700EE
:1011F000B04207D288F80070D8F8000000F007006D
:10120000B04254D128683D4C810712D5400703D520
:10121000206840F4E05020602878000703D520685B
:1012200040F4604020602068A96820F0F000084386
:1012300020602878C0072DD0304968680839012817
:1012400012D0022813D0032811D009688907002979
:101250002DDA216821F0030101432160FFF71CFF13
:10126000814641F2883A0EE009688903EFE7096890
:101270008901ECE7FFF710FFA0EB0901514502D906
:101280000320BDE8F0872068696800F00C00B0EB2F
:10129000810FEFD1D8F80010404601F00701B142AC
:1012A00007D90770006800F00700B04201D00120A4
:1012B000E7E72878400705D52068E96820F4E05082
:1012C000084320602878000706D52068296920F4A3
:1012D000604040EAC100206000F038F82168084A08
:1012E000C1F30311515CC840064908600648006814
:1012F000FFF7FAFE0020C4E7003C02400838024035
:1013000048420008140000200C0000200448054951
:1013100000680968044AC1F38221515CC8407047E3
:1013200014000020083802405842000804480549CB
:1013300000680968044AC1F34231515CC8407047F3
:10134000140000200838024058420008154810B523
:10135000006810F00C02144813D01449042A0FD06E
:10136000082A0ED10F4C241F2268236802F03F0286
:101370005B0207D52068C0F38810A0FB010106E0DE
:10138000084610BD2168C1F38811A1FB00010023AC
:10139000FEF718FF2168C1F30141491C4900B0FB69
:1013A000F1F010BD083802400024F40040787D01BF
:1013B0002DE9F84F04006ED02078DFF84C93C00779
:1013C000A9F104054AD009F104000168C1F38101C3
:1013D000012908D00068C0F3810002280AD1D9F899
:1013E0000000400206D52868800337D560680028D1
:1013F000E1D033E06068B0F5803F10D0B0F5A02FA9
:10140000286810D020F480302860286820F48020DC
:1014100028606068A8B1FFF73FFE06460DE0286827
:1014200040F48030F4E740F480202860F7E700BF04
:10143000FFF732FE801B642873D828688003F7D535
:101440000CE0FFF729FE064605E000BFFFF724FE8B
:10145000801B6428F0D828688003F7D42078DFF850
:10146000AC8280074FF0000A3ED5A748001D0168F6
:1014700011F00C0F08D00068C0F3810002280BD1D6
:10148000D9F80000400207D42868800716D5E06824
:10149000012800D112E033E1E068B8B10120C8F8BA
:1014A0000000FFF7F9FD064605E000BFFFF7F4FD79
:1014B000801B0228C0D828688007F7D528682169D2
:1014C00020F0F80040EAC10028600DE0C8F800A054
:1014D000FFF7E2FD064604E0FFF7DEFD801B022871
:1014E0001FD828688007F7D42078000722D5864FB8
:1014F00087486169703771B101210160FFF7CCFD48
:10150000064604E0FFF7C8FD801B022809D83868AA
:101510008007F7D50EE0C0F800A0FFF7BDFD064636
:1015200005E082E0FFF7B8FD801B02287DD838680F
:101530008007F7D42078400768D5DFF8CCB10027C2
:101540000BF13C0BDBF80000C0000BD4DBF8001003
:1015500041F08051CBF80010DBF80000012700F0CB
:10156000805000906B4E3068C00510D4306840F455
:1015700080703060FFF790FD009005E0FFF78CFD74
:101580000099401A022850D83068C005F6D55E4E42
:10159000A0686C3601280FD00528306810D020F0E4
:1015A00001003060306820F004003060A068B8B1FD
:1015B000FFF772FD00900FE0306840F00100F4E7A3
:1015C00040F004003060F7E7FFF766FD0099411A2C
:1015D00041F28830814266D830688007F4D50EE049
:1015E000FFF75AFD009007E0FFF756FD0099411AFA
:1015F00041F28830814256D830688007F4D42FB148
:10160000DBF8001021F08051CBF80010A069C8B3BE
:101610003D49091D0968C1F3810102294AD0022808
:10162000504607D0C8F8600000E03CE0FFF734FD0A
:1016300004463BE04746C8F86000FFF72DFD06462C
:1016400005E000BFFFF728FD801B02282BD8286883
:101650008001F7D4D4E907010843A16A2E4A49085A
:1016600002EB0141626A41EA8211084394F82C10AE
:1016700040EA0161C9F8001001203866FFF70CFD4F
:10168000044606E03EE000BFFFF706FD001B02280F
:1016900009D828688001F7D534E000BFFFF7FCFCCB
:1016A000001B022802D90320BDE8F88F28688001BA
:1016B000F4D427E00128F7D0D9F80000E26900F45B
:1016C000800191421CD1226A00F03F01914217D162
:1016D00047F6C071626A0140B1EB821F10D1A26A65
:1016E0004FF0FF3300F4403103EB5202B1EB024FF5
:1016F00006D194F82C1000F07060B0EB016F01D0AF
:101700000120D1E70020CFE7043802400000474223
:10171000800E4742007000400000FFFF10B5401EE1
:10172000B0F1807F01D3012010BD4FF0E024606153
:101730000F21601702F020FB0020A061072020612C
:10174000002010BD7047704710B590F83C20012A6A
:1017500022D0012280F83C20CA688C6822F44072B2
:1017600022434C6822F4806222430C6822F4006217
:1017700022430C6922F4805222434C6922F4005225
:101780002243C969002322F480420A4301684A6463
:1017900080F83C30002010BD022010BD70B590F8DC
:1017A0003C20012A32D0012480F83C40022280F8FB
:1017B0003D2003685A689D6822F070060A6832432B
:1017C0005A60134B02689A4214D0B2F1804F11D084
:1017D000104B9A420ED0104B9A420BD00F4B9A42AC
:1017E00008D00F4B9A4205D00E4B9A4202D00E4BB6
:1017F0009A4204D1496825F080031943916080F82A
:101800003D40002180F83C10084670BD022070BDAC
:10181000000001400004004000080040000C0040AF
:1018200000040140004001400018004010B50400D1
:1018300003D094F83D0010B107E0012010BD002056
:1018400084F83C00204600F01FF8022084F83D0098
:10185000211D206801F0FCFE012084F8460084F878
:101860003E0084F83F0084F8400084F8410084F88A
:10187000420084F8430084F8440084F8450084F86A
:101880003D00002010BD000008B528490268284826
:101890008A4211D1016841F02001016000680022F4
:1018A00000F02000009011463720FFF763FCBDE8F0
:1018B00008403720FFF750BC1D491E4B091D9A42B6
:1018C00007D1086840F002000860086800F00200D4
:1018D00009E0194B9A4208D1086840F400300860CA
:1018E000086800F40030009008BD144B9A4207D1FC
:1018F000086840F480200860086800F48020F2E75F
:101900000F498A4207D1016841F0800101600068F7
:1019100000F08000E7E70B498A42E5D1016841F415
:1019200080710160006800F48070DCE70014004002
:10193000403802400004014000440140004801409A
:10194000001C00400020004090F83D10012901D00B
:1019500001207047022180F83D100168CA6842F0FA
:101960000102CA6000681149884214D0B0F1804F6A
:1019700011D00F4988420ED00E4988420BD00E4933
:10198000884208D00D49884205D00D49884202D0CE
:101990000C49884204D1816801F00701062903D06F
:1019A000016841F001010160002070470000014022
:1019B0000004004000080040000C0040000401400A
:1019C000004001400018004070B5044690F83C000B
:1019D0000025012817D0012684F83C60022084F8F5
:1019E0003D002068826822F0770222F47F42826004
:1019F0000868502838D00DDC20284FD005DC90B383
:101A0000102811D14AE0022070BD302846D040286D
:101A10000AD13BE060282FD070280DD0B0F5805F50
:101A200003D0B0F5005F12D0012584F83D6000209E
:101A300084F83C00284670BDCB68D1E901212068BC
:101A400001F07FFE2068816841F0770109E0CB68F2
:101A5000D1E90121206801F074FE2068816841F419
:101A600080418160E1E719E0CA684968206801F0B7
:101A70003DFF5021206806E0CA684968206801F0EF
:101A800046FF6021206801F066FECEE7CA6849681B
:101A9000206801F02BFF40212068F4E7226801460E
:101AA0001046F0E72DE9F0410D46040003D094F80C
:101AB0003D0018B108E00120BDE8F081002084F865
:101AC0003C00204600F040F8022084F83D002068E9
:101AD000816844F2070291438160211D206801F072
:101AE000B7FD226890689169166A2B68AF69034355
:101AF00040F20330814341EA0721A868EF690843B7
:101B00004FF6FC418843E96840EA07200143286911
:101B10002F6A000140EA0730084369686D6926F0C2
:101B2000AA0646EA0515294393602268906154F895
:101B3000460B0162012004F81F09E0752076E0766B
:101B40002077A0750020B7E730B587B00446142190
:101B50006846FEF781FB24683E4A00213E48022386
:101B6000012594421BD13C4A1432146844F001040C
:101B70001460126802F001020592026842F010023D
:101B80000260006800F0100005904FF420600090A3
:101B9000CDE90131CDE903156946304838E02E4AD8
:101BA0001032B4F1804F1BD02D4DAC4234D11468AB
:101BB00044F002041460126802F002020592026806
:101BC00042F002020260006800F00200059030203E
:101BD0000090CDE90131CDE903136946214817E0B2
:101BE000146844F001041460126802F001020592C6
:101BF000026842F001020260006800F001000590F6
:101C000003200090CDE90131CDE90315694616485E
:101C1000FFF740F907B030BD144DAC42FAD114685B
:101C200044F004041460126802F004020592026891
:101C300042F008020260006800F0080005904FF4CE
:101C400040500090CDE90131CDE9031369460848C1
:101C5000DEE7000000000140303802400010024082
:101C60000004004000040240000002400008004060
:101C7000000C024070472DE9F04104460068C66838
:101C800005694FF00007A90713D5B10711D5F91E53
:101C9000016101202077206880698007204602D0FA
:101CA000FFF7E8FF04E000F01AF9204600F0DAF947
:101CB0002777680716D5700714D521686FF00400E0
:101CC0000861022020772068806910F4407F204658
:101CD00002D0FFF7CFFF04E000F001F9204600F04A
:101CE000C1F92777280715D5300713D521686FF07C
:101CF00008000861042020772068C069800720461A
:101D000002D0FFF7B7FF04E000F0E9F8204600F04A
:101D1000A9F92777E80616D5F00614D521686FF0E3
:101D200010000861082020772068C06910F4407F07
:101D3000204602D0FFF79EFF04E000F0D0F82046D6
:101D400000F090F92777E80708D0F00706D021685F
:101D50006FF001000861204600F0EAF9280608D576
:101D6000300606D521686FF0800008612046FFF735
:101D7000E9FC680608D5700606D521686FF04000BA
:101D80000861204600F0DEF9A8060AD5B00608D59D
:101D900021686FF0200008612046BDE8F041FFF7A0
:101DA000D2BCBDE8F081000070B586B004461421B5
:101DB0006846FEF751FA24682B4800222B4902237B
:101DC000032584420FD1086840F0040008600868C9
:101DD000694600F0040005904FF470700090CDE962
:101DE000013223480DE0234E2348B4420FD10C6842
:101DF00044F002040C60096801F0020105918115AC
:101E00002DE0CDE90325FFF745F806B070BD1B4E68
:101E1000B44209D10C6844F002040C60096801F076
:101E20000201059171151AE0154E09251548B442B5
:101E300009D10C6844F001040C60096801F001014B
:101E4000059140210BE0104EB442DED10C6844F005
:101E500001040C60096801F00101059180210091E5
:101E6000CDE901326946CCE7000401403038024038
:101E700000080240004401400004024000480140C4
:101E8000001C0040000002400020004070B50446E5
:101E900090F83C00002501280FD0012084F83C0078
:101EA0006AB1042A0FD0082A11D00C2A13D00125B8
:101EB000002084F83C00284670BD022070BD2068D8
:101EC00001F052FCF4E7206801F07EFCF0E72068A6
:101ED00001F0B0FCECE7206801F0E0FCE8E77047B7
:101EE00010B5040003D094F83D0010B107E00120C4
:101EF00010BD002084F83C00204600F01EF80220AF
:101F000084F83D00211D206801F0A2FB012084F827
:101F1000460084F83E0084F83F0084F8400084F8CE
:101F2000410084F8420084F8430084F8440084F8B7
:101F3000450084F83D00002010BD704770B5044690
:101F400090F83C0000260D4601280FD0012084F8AF
:101F50003C006AB1042A1DD0082A2FD00C2A3FD099
:101F60000126002084F83C00304670BD022070BD80
:101F7000206801F0F9FB2068816941F00801816166
:101F80002068816921F004018161206881692A69E2
:101F9000114311E0206801F017FC2068816941F4C9
:101FA000006181612068816921F48061816120681C
:101FB00081692A6941EA02218161D2E7206801F042
:101FC00039FC2068C16941F00801C1612068C1691C
:101FD00021F00401C1612068C1692A69114311E03F
:101FE000206801F05BFC2068C16941F40061C161B7
:101FF0002068C16921F48061C1612068C1692A69D2
:1020000041EA0221C161ACE710B5040003D094F8A5
:102010003D0010B107E0012010BD002084F83C0015
:10202000204600F01EF8022084F83D00211D2068A3
:1020300001F00EFB012084F8460084F83E0084F88D
:102040003F0084F8400084F8410084F8420084F89E
:10205000430084F8440084F8450084F83D000020E3
:1020600010BD70477047000010B50446022249B108
:1020700004290ED0082913D094F84100012816D065
:10208000012010BD94F83E000128F9D184F83E20CB
:102090000FE094F83F000128F2D184F83F2008E0D7
:1020A00094F840000128EBD184F8402001E084F846
:1020B00041200122206801F037FB16492068164AAA
:1020C000884201D0904203D1436C43F400434364FF
:1020D0002068884213D0B0F1804F10D00F49884259
:1020E0000DD00F4988420AD00E49884207D090424D
:1020F00005D00D49884202D00C49884204D181683C
:1021000001F00701062903D0016841F001010160D7
:10211000002010BD00000140000401400004004008
:1021200000080040000C0040004001400018004042
:1021300000680349884201D101F0BEBE704700002B
:1021400000140040704738B5044690F8420020283B
:1021500001D0022038BD61B15AB1012020630020B6
:102160006063204601F0A6FD0028F3D1216B012910
:1021700001D0012038BD21680A68496800912168B2
:102180000C3151E8002F42F0100241E80023002BEF
:10219000F5D138BD38B5364A904267D1002965D0AF
:1021A0003448007840285AD123213248FEF75FF89E
:1021B000002854D02F48401C0090684601F0EFFFE3
:1021C0002C4C283C2080684601F0E9FF608068467E
:1021D00001F0E5FF2081684601F0E1FF608168467B
:1021E00001F0DDFF2082684601F0D9FF6082684679
:1021F00001F0D5FF2083684601F0D1FF6083684677
:1022000001F0CDFFA080684601F0C9FFE08068467C
:1022100001F0C5FFA081684601F0C1FFE08168467A
:1022200001F0BDFFA082684601F0B9FFE082684678
:1022300001F0B5FFA083684601F0B1FFE083684676
:1022400001F0ADFFA084684601F0A9FFE084684674
:1022500001F0A5FF2084684601F0A1FF6084BDE87D
:102260003840C82203490248FFF76DBF38BD00005F
:10227000800300206816002070470000F8B5016850
:1022800004460868CA684B6910F00F0F4FF000054C
:1022900059D003F0010602F49077374365D0C107A7
:1022A00005D0D10503D5616C41F00101616441079E
:1022B00005D5D90703D0616C41F002016164810743
:1022C00005D5D90703D0616C41F0040161640107B1
:1022D00007D502F02001314303D0616C41F00801C1
:1022E0006164616C00293AD0800604D5900602D55D
:1022F000204601F0F8FB20684069616CC0F3801053
:10230000090700D460B3204601F0B8FB206840699B
:10231000400621D52068143050E8001F21F040010C
:1023200040E80012002AF5D1E06BA8B16E490165C2
:10233000E06BFEF76EFB002811D0E06B016D01B081
:10234000BDE8F040084783060FD593060DD520461B
:10235000BDE8F84001F0C7BB2046FFF78DFFF8BD90
:102360002046FFF789FF6564F8BD266B2023012E08
:102370007DD1C6067BD5D60679D508684868009019
:1023800048694FF00206400641D5E16B0868406895
:102390000004000CE8D0A28D8242E5D9E085C8692E
:1023A000B0F5807F2DD020680C3050E8001F21F45C
:1023B000807140E80012002AF5D12068143050E8FE
:1023C000001F21F0010140E80012002AF5D1206829
:1023D000143050E8001F21F0400140E80012002AAC
:1023E000F5D184F84230256320680C3050E8001F96
:1023F00021F0100140E80012002AF5D1E06BFEF751
:10240000BFFA6663A08DE18D401A81B22AE0A08DEB
:10241000E18D401A81B2E08D0028A5D00029A3D01B
:1024200022680C3252E8000F20F4907042E8000756
:10243000002FF5D12068143050E8002F22F001025F
:1024400040E80027002FF5D184F84230256320684A
:102450000C3050E8002F22F0100240E80023002B3F
:10246000F5D166632046FFF795FEF8BDFFE7050648
:102470002BD5150629D594F841002128F5D1A0685F
:10248000B0F5805F01D12069B0B1206A411C2162A2
:10249000216800784860E08C401E0004000CE08455
:1024A000E3D12068C16821F08001C1602068C16863
:1024B00041F04001C160D8E7206A0088C0F30800FD
:1024C0004860206A801C2062E5E74006CDD55006B2
:1024D000CBD5CA68204622F04002CA6084F8413059
:1024E00000F07EF9C1E700003339000870B5040040
:1024F00004D094F84100002510B106E0012070BD21
:1025000084F84050204600F023F8242084F841004D
:102510002068C16821F40051C160204601F044FBED
:102520002068016921F4904101612068416921F02E
:102530002A0141612068C16841F40051C1606564AD
:10254000202084F8410084F842006563002070BDBB
:102550002DE9F04F87B0044614216846FDF77CFE54
:102560007548744E276874491038022203230025E9
:102570004FF4406CB74217D10C6844F400240C604F
:10258000096801F400210591016841F0040101602E
:102590000068CDF800C000F0040005900820CDE9E7
:1025A000033069466548C0E0DFF894810726DFF80C
:1025B00094E14FF0400B4FF000694FF4806A4745BB
:1025C00049D15D49091D0F6847F010070F60096880
:1025D00001F010010591016841F0010101600068FE
:1025E000694600F0010005904FF4C0608DE82500B9
:1025F000CDE903367046FEF74DFC544E5248C846AE
:102600003060C6E90195C6E9035A7561B561F561A7
:102610003562574630467562FEF7DEFA08B1FDF7BF
:10262000D8FFE663B463494E474860367830C6E960
:1026300003577561B561F5613562756286E8010918
:102640003046FEF7C9FA08B1FDF7C3FFA663B463CD
:1026500007B0BDE8F08FDFF8F88047454CD10F6830
:1026600047F400370F60096801F4003105910168F3
:1026700041F0010101600068694600F00100059029
:102680000C208DE82500CDE903367046FEF702FCEC
:102690002E4E3048C0364F463060C6E90195C6E937
:1026A000035A7561B561F5613562D0463046756291
:1026B000FEF792FA08B1FDF78CFFE663B463264E8D
:1026C0002448C6E903587561B561F5613562183073
:1026D000756286E881083046FEF77EFA08B1FDF79C
:1026E00078FFA663002211462620B463FEF742FD60
:1026F0002620FEF731FDABE7184CA742A8D10C68A5
:1027000044F480240C60096801F48021059101687B
:1027100041F0020101600068CDF800C000F0020045
:10272000CDE904600E4869460393CDE90125FEF723
:10273000B1FB8DE7004C00404038024000080240E9
:1027400000100140000002404064024010040020DC
:1027500000440040886002403005002000480040EE
:10276000000402407047704770B5044690F841007D
:10277000202801D0022070BD49B342B32162A28457
:10278000E28400206064212384F84130A56B114B62
:10279000EB63A56B104B2B64A56B104BEB64A36B29
:1027A0001865256813462A1DA06BFEF77FFA21687D
:1027B0006FF0400008602068143050E8001F41F0BE
:1027C000800140E80012002AF5D1002070BD0120F0
:1027D00070BD0000313A0008733A00084339000820
:1027E00070477047FEE72DE9F0411C4615460E463E
:1027F0000746802800D37F27802D00D37F25A02E79
:1028000000D39F26A02C00D39F242A2000F0E6FAB4
:10281000002000F0E0FAF8B200F0DDFA002000F04D
:10282000DAFAE8B200F0D7FA2B2000F0D7FA00204D
:1028300000F0D1FAF0B200F0CEFA002000F0CBFAAE
:10284000E0B200F0C8FABDE8F0412C2000F0C6BAB2
:1028500010B514460B460246FFF7C5FF2046BDE8FB
:10286000104000F0AEBA2DE9F04780461F46581ED2
:1028700083B21646501E82B20C464046DDF82090C8
:10288000FFF7B1FF0AE0454604E0484600F099FA38
:102890006D1CADB2B542F8D3641CA4B2BC42F2D3F5
:1028A000BDE8F08710B586B014216846FDF7D4FC6A
:1028B0001948016841F004010160016801F0040158
:1028C0000591016841F0080101600068134C00F0B7
:1028D000080005900122BE212046FEF7D8FBBE204D
:1028E0000121CDE900010220CDE902106946204610
:1028F000FEF7D0FA012210212046FEF7C8FB012284
:1029000020212046FEF7C3FB012280212046FEF74E
:10291000BEFB06B010BD000030380240000C024083
:1029200038B5FFF7BFFFC34D012210212846FEF73F
:10293000AEFB012204212846FEF7A9FB002202215A
:102940002846FEF7A4FB002208212846FEF79FFB3D
:102950007820FEF7E3F9012208212846FEF797FBCD
:102960007820FEF7DBF9012000F038FA9620FEF718
:10297000D5F9112000F032FA9620FEF7CFF93A206F
:1029800000F02CFA052000F03DFAB12000F026FA04
:10299000022000F037FA352000F034FA362000F03B
:1029A00031FAB22000F01AFA022000F02BFA35209A
:1029B00000F028FA362000F025FAB32000F00EFAD5
:1029C000022000F01FFA352000F01CFA362000F03B
:1029D00019FA022000F016FA352000F013FA36201A
:1029E00000F010FAB42000F0F9F9032000F00AFA20
:1029F000C02000F0F3F9A22000F004FA022000F059
:102A000001FA842000F0FEF9C12000F0E7F9C520AA
:102A100000F0F8F9C22000F0E1F90D2000F0F2F921
:102A2000002000F0EFF9C32000F0D8F98D2000F06D
:102A3000E9F92A2000F0E6F9C42000F0CFF98D2052
:102A400000F0E0F9EE2000F0DDF9C52000F0C6F955
:102A5000122000F0D7F9B02000F0C0F9002000F0FB
:102A6000D1F9362000F0BAF9C82000F0CBF9E02007
:102A700000F0B4F9042000F0C5F9222000F0C2F9FA
:102A8000072000F0BFF90A2000F0BCF92E2000F06A
:102A9000B9F9302000F0B6F9252000F0B3F92A206A
:102AA00000F0B0F9282000F0ADF9262000F0AAF9D6
:102AB0002E2000F0A7F93A2000F0A4F9002000F041
:102AC000A1F9012000F09EF9032000F09BF91320EA
:102AD00000F098F9E12000F081F9042000F092F96B
:102AE000162000F08FF9062000F08CF90D2000F080
:102AF00089F92D2000F086F9262000F083F92320A3
:102B000000F080F9272000F07DF9272000F07AF905
:102B1000252000F077F92D2000F074F93B2000F01B
:102B200071F9002000F06EF9012000F06BF904202B
:102B300000F068F9132000F065F92A2000F04EF942
:102B4000002000F05FF9002000F05CF9002000F0A8
:102B500059F97F2000F056F92B2000F03FF90020B2
:102B600000F050F9002000F04DF9002000F04AF983
:102B70009F2000F047F9362000F030F9C82000F01F
:102B800041F9212000F02AF9292000F027F914202A
:102B9000FEF7C4F82C2000F021F90024A0238022A5
:102BA000214620460094FFF75EFE1420FEF7B6F89B
:102BB0000021A023802208460094FFF754FE142031
:102BC000FEF7ACF80021A023802208460094FFF70E
:102BD0004AFE1420FEF7A2F82C2000F0FFF8642033
:102BE000FEF79CF8012202212846FEF750FA2A201F
:102BF00000F0F4F8204600F005F9204600F002F954
:102C0000204600F0FFF87F2000F0FCF82B2000F0B9
:102C1000E5F8204600F0F6F8204600F0F3F82046EC
:102C200000F0F0F89F2000F0EDF8BDE838402C20CF
:102C300000F0D4B8000C02402DE9FF4F81B00446EB
:102C4000DDF83C9000904FEA59074FF000087807F4
:102C500000D0012000EBD70000FB09FB203AD0B2E6
:102C60000390029802994844401E83B2E019401E26
:102C700082B22046FFF7B7FD002553E0B9F10C0FF3
:102C80002AD0B9F1100F2ED0B9F1180F2ED0B9F10A
:102C9000200F49D12749039801EB8010002610F836
:102CA00005A0109800284FF0010000FA06F000EA95
:102CB0000A0022D020B12046049A0299FFF7C8FDED
:102CC000641C0098A4B2201AB84225D10298009C36
:102CD000401C80B2029023E00398174900EB4000AB
:102CE00001EB8000DAE71549039803E003981449E3
:102CF00000EB400001EB0010D0E708B1049800E0C1
:102D00000E9800F05EF808F10100C0B2B0FBF7F1D8
:102D1000804607FB118050B1761CF6B2082EC0D356
:102D20006D1CADB25D45A9D305B0BDE8F08F4FF085
:102D30000008F5E7945E000860420008D4460008E9
:102D4000C44C00082DE9FF4F83B00026DDE911B81F
:102D50001D4682464FEA58073446B1462CE0281BF0
:102D6000401EC1B20A2001F00DFA0599B1FBF0F046
:102D70000A21B0FBF1F201FB120026B9691E8C4258
:102D800001DA58B101263030C2B204FB07A0CDF8F9
:102D900000B0CDE9018980B2109B08E0CDF800B009
:102DA00004FB07A0CDE90189109B80B22022049981
:102DB000FFF742FF641CE4B2AC42D0D307B0BDE8D9
:102DC000F08F10B50446000A00F01CF8E0B2BDE830
:102DD000104000F017B800F015B8000070B5084CAE
:102DE0000546002204212046FEF751F9284600F04E
:102DF00009F82046BDE8704001220421FEF747B9DA
:102E0000000C0240F8B5274E07460022102130463C
:102E1000FEF73DF900252C46002220213046FEF722
:102E200036F98DF8004004E09DF80000401C8DF854
:102E300000009DF800000228F6D3380601D50122D3
:102E400000E0002280213046FEF721F98DF8004095
:102E500005E000BF9DF80000401C8DF800009DF8C3
:102E600000000228F6D3012220213046FEF70FF998
:102E70008DF8004005E000BF9DF80000401C8DF873
:102E800000009DF800000228F6D378066D1C070E9E
:102E9000EDB2082DC0D33046BDE8F8400122102124
:102EA000FEF7F5B8000C0240194808B5016841F476
:102EB00000110160016801F400110091016841F402
:102EC000800101600068002200F48000009011463B
:102ED0001020FEF74FF91020FEF73EF900221146B0
:102EE0001120FEF747F91120FEF736F900221146AE
:102EF0003A20FEF73FF93A20FEF72EF9002211465C
:102F00004620FEF737F9BDE808404620FEF724B911
:102F10003038024070B586B014216846FDF79CF940
:102F200027480024016841F010010160016801F0A8
:102F300010010591016841F001010160016801F093
:102F400001010591016841F002010160016801F091
:102F500002010591016841F008010160016801F07A
:102F600008010591016841F0040101600068154EF7
:102F700000F004000590002247F27C013046FEF785
:102F800086F801250420CDE90005CDE90254694603
:102F90003046FDF77FFF47F278000090CDE90154FD
:102FA000694630460394FDF775FF4FF47040CDE954
:102FB0000004694604480294FDF76CFF06B070BD3A
:102FC00030380240001002400004024010B588B0C2
:102FD0001C216846FDF740F915481449002401609A
:102FE000A721C0E9011444F61F61C0E903148461FC
:102FF000FEF71CFC08B1FDF7ECFA0D48FFF704F8EA
:1030000008B1FDF7E6FA6020CDE900040294002241
:10301000694607480494FEF791FF08B1FDF7D9FA15
:103020000348FEF7C1FE08B010BD00000044014097
:10303000D001002010B588B01C216846FDF70CF9BE
:103040001548144900240160A721C0E9011444F681
:103050001F61C0E903148461FEF7E8FB08B1FDF7C6
:10306000B8FA0D48FEF7D0FF08B1FDF7B2FA6020BC
:10307000CDE9000402940022694607480494FEF753
:103080005DFF08B1FDF7A5FA0348FEF78DFE08B015
:1030900010BD0000004801401802002010B588B0A3
:1030A0001C216846FDF7D8F8154814490024016032
:1030B000A721C0E9011444F61F61C0E9031484612B
:1030C000FEF7B4FB08B1FDF784FA0D48FEF79CFF4C
:1030D00008B1FDF77EFA6020CDE9000402940022D9
:1030E000694607480494FEF729FF08B1FDF771FA15
:1030F0000348FEF759FE08B010BD0000001C004058
:103100006002002010B588B01C216846FDF7A4F8C5
:10311000144813490024C0E900144FF6FF71C0E9B8
:10312000024104618461FEF781FB08B1FDF751FAA9
:103130000C48FEF769FF08B1FDF74BFA6020CDE9B6
:10314000000402940022694606480494FEF7F6FE45
:1031500008B1FDF73EFA0348FEF726FE08B010BDA1
:1031600000200040A802002010B58CB02421684641
:10317000FDF772F800241648099414490A94C0E92E
:1031800000144FF6FF71C0E902410461446184619B
:103190000120CDE90004CDE902040494CDE9054005
:1031A000079469460A480894FEF77CFC08B1FDF7CD
:1031B00010FA099409A906480A94FEF7EFFA0028C4
:1031C00001D0FDF706FA0CB010BD00000000014070
:1031D0002000002010B58CB024216846FDF73CF893
:1031E0000024144809944FF080410A94C0E9001467
:1031F000611EC0E90241046184610120CDE900043F
:10320000CDE902040494CDE90540079469460948D4
:103210000894FEF747FC08B1FDF7DBF9099409A90A
:1032200004480A94FEF7BAFA002801D0FDF7D1F954
:103230000CB010BD6800002010B58CB02421684689
:10324000FDF70AF800241548099413490A94C0E9C7
:1032500000144FF6FF71C0E902410461846101204E
:10326000CDE90004CDE902040494CDE905400794BA
:1032700069460A480894FEF715FC08B1FDF7A9F95C
:10328000099409A905480A94FEF788FA002801D094
:10329000FDF79FF90CB010BD00040040B000002005
:1032A00010B58CB024216846FCF7D6FF00241548E1
:1032B000099413490A94C0E900144FF6FF71C0E95C
:1032C0000241046184610120CDE90004CDE90204DA
:1032D0000494CDE90540079469460A480894FEF72E
:1032E000E1FB08B1FDF775F9099409A905480A94AD
:1032F000FEF754FA002801D0FDF76BF90CB010BDB1
:1033000000080040F80000201CB500240E4800947E
:103310000C4901940160A721C0E9011442F20F7128
:103320008461C160FEF782FA08B1FDF752F900949A
:10333000694605480194FEF731FA002801D0FDF7EF
:1033400048F91CBD001400404001002010B596B0A3
:1033500000240F9410941194129413941C21684625
:103360001494FCF779FF202107A8FCF775FF374874
:103370003549C0E900144FF6FF71C0E9024104610C
:1033800044618461FEF752FA08B1FDF722F94FF467
:1033900080500F900FA92D48FEF716FB08B1FDF7DE
:1033A00018F92A48FEF730FE08B1FDF712F9274850
:1033B000FEF796FD08B1FDF70CF9139413A9234805
:1033C0001494FEF7EBF908B1FDF703F96020CDE99D
:1033D00000040294039404940594002269461B4857
:1033E0000694FEF7ABFD08B1FDF7F3F80422694639
:1033F00016480094FEF74AFD08B1FDF7EAF80822E6
:1034000069461248FEF742FD08B1FDF7E2F80C22CA
:1034100069460E48FEF73AFD08B1FDF7DAF8079461
:10342000089409944FF400500A94CDE90B4007A981
:1034300006480E94FEF788F908B1FDF7CAF803486C
:10344000FEF7B2FC16B010BD000401408801002058
:103450000C4810B50A4901604FF4E1314160002188
:1034600081600C22C160C0E904128161C161FFF773
:103470003DF8002803D0BDE81040FDF7AAB810BD04
:10348000004C0040F00200200C4810B50A490160D1
:103490004FF4E1314160002181600C22C160C0E93C
:1034A00004128161C161FFF721F8002803D0BDE853
:1034B0001040FDF78EB810BD001001403803002009
:1034C0000C4810B50A4901604FF4E1314160002118
:1034D00081600C22C160C0E904128161C161FFF703
:1034E00005F8002803D0BDE81040FDF772B810BD04
:1034F00000440040800300200C4810B50A490160D8
:103500004FF4E1314160002181600C22C160C0E9CB
:1035100004128161C161FEF7E9FF002803D0BDE814
:103520001040FDF756B810BD00480040C803002009
:10353000FEE7FEE77047704770B5FDF7B3FD15482D
:1035400001240023018839B94188491C89B241808E
:10355000142913D3438004800F4A1049157875B19C
:103560000488002C0AD0002D08D003800888001F92
:1035700080B20880B0F5FA7F00D8137070BD038068
:103580000888001D80B2088040F6C4118842F5D337
:10359000147070BD04000020020000200000002014
:1035A00030B593B030216846FCF756FE14210CA8C4
:1035B000FCF752FE1D480025016841F08051016072
:1035C000006800F0805011901948016841F4804172
:1035D00001600068022400F48040119001200390F3
:1035E00010200490009406940820CDE90750A820EC
:1035F000CDE9090404200B906846FDF7D9FE08B117
:1036000072B6FEE70CA90F2081E831004FF4A050FC
:103610000F904FF48050109005210CA8FDF7DCFDB1
:10362000002801D072B6FEE713B030BD403802402A
:10363000007000400248016841F470010160704769
:1036400088ED00E00148FEF716BB000040010020B5
:10365000F0B50268294C2A4D2A4E2B4F2B4B4FF0C8
:10366000804CA04209D0604507D0A84205D0B042A6
:1036700003D0B84201D0984204D122F0700E4A68BB
:1036800042EA0E02A0421BD0604519D0A84217D0D2
:10369000B04215D0B84213D0984211D01C4DA84268
:1036A0000ED01C4DA8420BD01B4DA84208D01B4D7C
:1036B000A84205D01A4DA84202D01A4DA84203D103
:1036C00022F44075CA682A434D6922F080022A43D9
:1036D00002608A68C2620A688262A04201D098428F
:1036E00001D109690163012141610169C90703D061
:1036F000016921F001010161F0BD000000000140FD
:103700000004004000080040000C0040000401409C
:1037100000400140004401400048014000180040C2
:10372000001C00400020004010B501F01F030121E3
:10373000046A99408C430462016A9A401143016211
:1037400010BD10B5846842EA032224F47F440A4382
:103750002243826010BD826822F070020A4342F068
:103760000701816070470000F0B5036A026A22F029
:103770000102026242688469124E24F073050C68EB
:103780002C4323F002058B682B430D4DA84201D03A
:10379000B04205D123F00807CB683B4323F0040374
:1037A000A84201D0B04205D14D6922F440721543C0
:1037B0008A692A4342608461496841630362F0BDBB
:1037C0000000014000040140F0B5026A036A23F0E2
:1037D00010030362436884690D6824F4E64444EAF4
:1037E00005248D6822F0200242EA05120F4D104E8A
:1037F000A84201D0B04206D1CF6822F0800242EA4E
:10380000071222F04002A84201D0B04207D14D6910
:1038100023F4406343EA85038D6943EA85034360EB
:103820008461496881630262F0BD000000000140CC
:1038300000040140F0B5026A036A23F48073036256
:103840004368C46922F4007224F073050C68124EB8
:103850002C438D6842EA05220E4DA84201D0B042A9
:1038600006D1CF6822F4006242EA072222F4806285
:10387000A84201D0B04207D14D6923F4405343EA36
:1038800005138D6943EA05134360C4614968C16348
:103890000262F0BD000001400004014030B5046A3E
:1038A000026A22F4805202624268C3690D6823F4FE
:1038B000E64343EA05238D6824F4005444EA0534C2
:1038C000084DA84202D0084DA84204D14D6922F407
:1038D000804242EA85124260C36149680164046221
:1038E00030BD0000000001400004014010B5036A33
:1038F000046A24F001040462846924F0F00444EAB8
:10390000021423F00A020A438461026210BD10B55A
:10391000036A046A24F010040462846923F0A0039B
:1039200024F4704444EA023243EA011182610162E4
:1039300010BD10B5806B0021C185C184FEF79CFCD1
:1039400010BD70B5846B2068406994F84110C0F3D5
:10395000C0100025212904D118B1E584204600F0CB
:10396000B4F82068406994F84210C0F3801022290E
:1039700004D118B1E585204600F080F8606C40F075
:10398000100060642046FEF777FC70BD10B501465C
:10399000806B096809684FF00002C9052ED4C28502
:1039A00001680C3151E8003F23F4807341E8003492
:1039B000002CF5D10168143151E8003F23F00103D8
:1039C00041E80034002CF5D10168143151E8003F82
:1039D00023F0400341E80034002CF5D1202180F889
:1039E0004210016B012909D101680C3151E8003FF7
:1039F00023F0100341E80034002CF5D14263016B41
:103A0000012902D0FEF7AEFE10BD818DFEF7C2FB8C
:103A100010BD10B5806B01214163016B012902D0FB
:103A2000FEF7A1FE10BD818D4908FEF7B3FB10BD66
:103A300010B50146806B09680968C90516D40021D4
:103A4000C1840168143151E8002F22F0800241E85E
:103A50000023002BF5D101680C3151E8002F42F012
:103A6000400241E80023002BF5D110BDFEF7B8FE5F
:103A700010BD10B5806BFEF7B4FE10BD01680C31AF
:103A800051E8002F22F4907241E80023002BF5D179
:103A90000168143151E8002F22F0010241E80023AF
:103AA000002BF5D1016B012909D101680C3151E8D6
:103AB000002F22F0100241E80023002BF5D1202135
:103AC00080F8421000210163704701680C3151E811
:103AD000002F22F0C00241E80023002BF5D1202165
:103AE00080F84110704708B590F84210222901D0A3
:103AF000022008BD82684FF480539A4201D10169C7
:103B000021B1816A9A421BD04AB10AE00268816AF7
:103B10005268C2F308020A80816A891C08E00269BF
:103B200072B10268526802F07F020A70816A491C11
:103B30008162C18D491E0904090CC18503D01BE0B7
:103B400002685268F1E70168CA6822F02002CA6080
:103B50000168CA6822F48072CA6001684A6922F06A
:103B600001024A61202180F8421000214163026B6A
:103B7000012A03D0FEF7F6FD002008BD01630168AD
:103B80000C3151E8002F22F0100241E80023002BF5
:103B9000F5D101680A68D20602D50A684968009121
:103BA000818DFEF7F7FAE7E770B504460068016912
:103BB000E26821F44051114301612169A068E26982
:103BC00008436169114308432168CA6849F20C63DC
:103BD0009A430243CA6020684169A26921F4407196
:103BE0001143416131492068884202D030498842FE
:103BF00002D1FDF79BFB01E0FDF788FBE2690023A2
:103C0000192164253226B2F5004F626828D0A0FB46
:103C10000101930F9200FCF7D5FA0146B0FBF5F0D5
:103C20006FF01802504301EB800006EB0010B0FB70
:103C3000F5F000F0F002B1FBF5F002EB0012B1FB81
:103C4000F5F06FF01803584301EB800006EB00100D
:103C5000B0FBF5F000F00F0021681044886070BDE3
:103C6000A0FB010192185B41FCF7ACFA0146B0FBE6
:103C7000F5F00201B1FBF5F06FF01803584301EBCA
:103C8000800006EBC000B0FBF5F000F0F80002EB9E
:103C90004002B1FBF5F0584301EB800006EBC00099
:103CA000B0FBF5F000F00700D6E70000001001407F
:103CB0000014014038B58162044682850020134615
:103CC0006064222284F84220E56B1B4AEA63E56BBC
:103CD0001A4A2A64E56B1A4AEA64E26B10650A46DE
:103CE0002168E06B091DFCF7E1FF2068016840686E
:103CF0000090206948B120680C3050E8001F41F462
:103D0000807140E80012002AF5D12068143050E894
:103D1000001F41F0010140E80012002AF5D120689F
:103D2000143050E8001F41F0400140E80012002A22
:103D3000F5D1002038BD00008D390008133A000885
:103D4000433900080148FEF799BA000080030020BB
:103D5000FEE700000FB4084610B5064A02A900F0BD
:103D60002EF8044602A9002000F03AF8204610BCC4
:103D70005DF814FBE13D00080907090E002804DB8B
:103D800000F1E02080F80014704700F00F0000F10F
:103D9000E02080F8141D7047004870471C00002088
:103DA00002E008C8121F08C1002AFAD17047704704
:103DB000002001E001C1121F002AFBD170472DE94C
:103DC000F04116460F460446002503E03946B04749
:103DD000641C6D1C20780028F8D12846BDE8F081CD
:103DE0000A68531C0B601070704708444008704705
:103DF000FF224FF480610148FCF727BAD805002064
:103E000010B5FFF7F5FF074890ED000A064880ED72
:103E1000010A0B2000F0F6F9BDE81040012000F087
:103E200005B8000018000020D80500202DE9F04159
:103E30000E490F4D01EB80268027FDF715F8002471
:103E400005EBC40006EBC401D0E900230320FCF716
:103E5000CDFF20B1FCF7C0FF0120BDE8F081641C5C
:103E6000BC42EDD3FCF7B8FF0020F6E700000E08D7
:103E7000D805002010B50D4C2078012814D10CA1D4
:103E8000A4F11400FFF766FFA4F11400FCF7F9F9A0
:103E900082B2A4F114010748FEF766FC00202070EE
:103EA000BDE81040FFF7ACBF10BD0000C405002006
:103EB000616100008003002070B5214D4FF48051F6
:103EC0002846FDF7DFF81F4C4FF40051A07028463C
:103ED000FDF7D8F8E0714FF480412846FDF7D2F89D
:103EE00020734FF400412846FDF7CCF860740020A1
:103EF0000546012200EB800631194B7823B1012BD6
:103F000006D0022B0ED015E08B789BB94A7070BD9D
:103F100000EB80002044807808B14D7070BD022015
:103F2000487070BD897829B100EB8000204445704D
:103F3000A25570BD401CC0B20328DBD970BD000083
:103F400000040240C40500200148FDF7FDBC00004C
:103F500040010020A2B0FDF7ADF8FFF721FBFEF70E
:103F6000D9FFFEF7A1FFFFF7FFF8FFF733F9FFF7DF
:103F700063F9FFF795F9FFF7E9F9FFF727F8FFF77E
:103F800059F8FFF78BF8FFF77FFAFFF799FAFFF779
:103F9000B3FAFFF75DFAFFF7B5F8FFF7B5F9FCF7ED
:103FA00043FA714CDFF8C48113A84FF000094FF0B9
:103FB000100A4FF6FF7B2190E1896089FFF715FF1A
:103FC0000746A1892089FFF710FF0646E18860882F
:103FD000FFF70BFF0546A1882088FFF706FF64491D
:103FE00000913B4632462946FCF768FCE18A608A2C
:103FF000FFF7FBFE0746A18A208AFFF7F6FE06467A
:10400000E1896089FFF7F1FE0546A1892089FFF764
:10401000ECFE584900913B4632462946FCF7E8FB46
:10402000E18B608BFFF7E1FE0746A18B208BFFF74A
:10403000DCFE0646E18A608AFFF7D7FE0546A18AC4
:10404000208AFFF7D2FE4C4900913B463246294672
:10405000FCF734FCE18B608BFFF7C7FE0746A18BB2
:10406000208BFFF7C2FE0646E1886088FFF7BDFEA1
:104070000546A1882088FFF7B8FE404900913B46DD
:1040800032462946FCF7B4FBCDF80090CDE901BAE1
:10409000002155465E464F46228C03230846FEF714
:1040A00051FE0097CDE90165628C032314210020A5
:1040B000FEF748FE0097CDE9016522880323002121
:1040C0003220FEF73FFE0097CDE9016562880323A9
:1040D00014213220FEF736FE0097CDE90165A28C4F
:1040E000032300216420FEF72DFE0097CDE9016532
:1040F000E28C032314216420FEF724FE3D221B4999
:104100000FA8FCF790F8404610F83D1F8DF8791085
:1041100041788DF87A1081788DF87B10C1788DF810
:104120007C1001798DF87D1041798DF87E108179B0
:104130008DF87F10C1798DF88010017A8DF881108B
:10414000407A8DF882000E483822219900880E901E
:104150006846FCF768F80DF13C0C9CE80F0000F095
:1041600042F8FFF787FE27E740160020D001002025
:1041700030170020F01A002010190020E01B00204A
:10418000000000200246012000E05043491EC9B251
:10419000FBD270470163143080EC030A704738B5D6
:1041A000044600680A226946FCF772F82268009902
:1041B0008A4204D0002802DBB0F5803F02DB0020F9
:1041C000216038BD491C80B2216038BD0FB4002188
:1041D00010B502A8FDF748FF029940F2DC50486391
:1041E00010BC5DF814FB0FB44FF44871129888426C
:1041F00003D940F69801884200D3084600994863E5
:1042000004B0704700B587B00021029001200390F0
:10421000022000910490FCF727FE05A96846FCF7F0
:104220008FFDFCF7D9FD07B000BD0000C822024990
:104230000248FDF788BF00006816002080030020B8
:104240000006101600061016000000000000000016
:10425000010203040607080900000000010203042C
:104260000000000000000000000000000000040446
:10427000040404000004000014140A0000000000FC
:104280000000000000000A0A1F0A0A1F0A0A0000B4
:1042900000040E1505060C14150E0400000012157E
:1042A0000D152E2C2A1200000000040A0A361515DE
:1042B00029160000020201000000000000000000BA
:1042C0001008080404040404080810000204040888
:1042D000080808080404020000000004150E0E156A
:1042E0000400000000000008083E0808000000006C
:1042F00000000000000000000202010000000000B9
:10430000003F00000000000000000000000000006E
:10431000000200000020101008080404020201003E
:1043200000000E1111111111110E00000000040601
:1043300004040404040E000000000E11110804021D
:10434000011F000000000E11100C1010110E0000D3
:104350000000080C0C0A091F081C000000001F01C7
:10436000010F1110110E000000000C12010D1311AD
:10437000110E000000001E100808040404040000D0
:1043800000000E11110E1111110E000000000E118F
:1043900011191610090600000000000004000000BA
:1043A00000040000000000000004000000040400FD
:1043B00000001008040202040810000000000000C1
:1043C0003F003F0000000000000002040810100839
:1043D0000402000000000E11110804040004000093
:1043E00000001C22292D2D1D221C000000000404A9
:1043F0000C0A0A1E1233000000000F12120E1212D5
:10440000120F000000001E1101010101110E000039
:1044100000000F1212121212120F000000001F12E1
:104420000A0E0A02121F000000001F120A0E0A02E2
:104430000207000000001C1201013911120C0000DB
:1044400000003312121E12121233000000001F046B
:1044500004040404041F000000003E0808080808C3
:1044600008080907000037120A060A12123700006E
:104470000000070202020202223F000000003B1B74
:104480001B1B15151535000000003B1216161A1AD5
:104490001217000000000E1111111111110E000071
:1044A00000000F12120E02020207000000000E119F
:1044B00011111117190E180000000F12120E0A1216
:1044C0001237000000001E1101060810110F000035
:1044D00000001F1504040404040E00000000331241
:1044E00012121212120C000000003312120A0A0CEF
:1044F000040400000000151515150E0A0A0A000034
:1045000000001B0A0A04040A0A1B000000001B0A20
:104510000A0A0404040E000000001F090804040233
:10452000121F00001C0404040404040404041C00FE
:104530000002020404040808081010000E0808080D
:104540000808080808080E00040A0000000000001F
:104550000000000000000000000000000000003F1C
:104560000204000000000000000000000000000045
:10457000000C121C123C000000030202020E121278
:10458000120E000000000000001C1202120C0000BD
:1045900000181010101C1212123C00000000000045
:1045A000000C121E021C000000182404041E040447
:1045B000041E000000000000003C120C021C221C23
:1045C00000030202020E121212370000000404005F
:1045D00000060404040E000000080800000C08088F
:1045E0000808080700030202021A0A060A1300005C
:1045F0000007040404040404041F00000000000079
:10460000000F15151515000000000000000F121214
:104610001237000000000000000C1212120C000003
:1046200000000000000F1212120E0207000000002E
:10463000001C1212121C103800000000001B0602A1
:104640000207000000000000001E020C101E000007
:1046500000000004041E0404041C0000000000000C
:10466000001B1212123C000000000000001B0A0A8E
:1046700004040000000000000015150E0A0A0000E6
:1046800000000000001B0A040A1B000000000000DC
:10469000003312120C08040300000000001E08047E
:1046A000041E000018080808080C0808080818006C
:1046B0000808080808080808080808080604040488
:1046C00004080404040406001609000000000000A9
:1046D00000000000000000000000000000000000DA
:1046E0000000000000000008080808080808000092
:1046F0001818000000486C241200000000000000A0
:10470000000000000000002424247F1212127F12F7
:10471000121200000000081C2A2A0A0C1828282A55
:104720002A1C080800000022251515152A58545483
:10473000542200000000000C1212120A76252911E2
:10474000916E000000060604030000000000000057
:104750000000000000402010100808080808081099
:10476000102040000002040808101010101010085B
:10477000080402000000000008086B1C1C6B0808FD
:104780000000000000000000080808087F08080872
:104790000800000000000000000000000000000011
:1047A000060604030000000000000000FE000000F8
:1047B00000000000000000000000000000000000F9
:1047C0000606000000008040402020101008080469
:1047D00004020200000000182442424242424242C7
:1047E00024180000000000080E080808080808083F
:1047F000083E00000000003C424242202010080415
:10480000427E00000000003C42422018204040420E
:10481000221C0000000000203028242422227E20B8
:10482000207800000000007E0202021A264040426A
:10483000221C0000000000382402021A26424242D4
:10484000241800000000007E22221010080808082A
:10485000080800000000003C424242241824424262
:10486000423C00000000001824424242645840408C
:10487000241C0000000000000000181800000000C8
:1048800018180000000000000000000800000000F0
:10489000000808040000004020100804020408106A
:1048A000204000000000000000007F0000007F00AA
:1048B0000000000000000002040810204020100842
:1048C000040200000000003C42424640201010005C
:1048D000181800000000001C225A555555552D424D
:1048E000221C00000000000808181414243C224276
:1048F00042E700000000001F2222221E2242424204
:10490000221F00000000007C42420101010101421F
:10491000221C00000000001F22424242424242424A
:10492000221F00000000003F4212121E121202421B
:10493000423F00000000003F4212121E121202020B
:10494000020700000000003C222201010171212227
:10495000221C0000000000E7424242427E424242E6
:1049600042E700000000003E0808080808080808A0
:10497000083E00000000007C1010101010101010F5
:104980001010110F0000007722120A0E0A121222D4
:104990002277000000000007020202020202020267
:1049A000427F000000000077363636362A2A2A2A4F
:1049B0002A6B0000000000E346464A4A5252526207
:1049C000624700000000001C224141414141414139
:1049D000221C00000000003F424242423E0202020E
:1049E000020700000000001C2241414141414D539B
:1049F000321C60000000003F4242423E121222225E
:104A000042C700000000007C4242020418204042DD
:104A1000423E00000000007F490808080808080816
:104A2000081C0000000000E742424242424242426B
:104A3000423C0000000000E74242222424141418E3
:104A4000080800000000006B4949494955553622C5
:104A500022220000000000E7422424181818242411
:104A600042E700000000007722221414080808081A
:104A7000081C00000000007E2120101008040442E1
:104A8000423F0000007808080808080808080808DD
:104A9000080878000000020204040808081010202A
:104AA00020204040001E1010101010101010101088
:104AB00010101E000038440000000000000000003C
:104AC00000000000000000000000000000000000E6
:104AD000000000FF000608000000000000000000C9
:104AE00000000000000000000000003C427844424A
:104AF00042FC0000000000030202021A2642424269
:104B0000261A0000000000000000003844020202E3
:104B10004438000000000060404040784442424277
:104B200064D80000000000000000003C427E020249
:104B3000423C0000000000F08808087E08080808D1
:104B4000083E0000000000000000007C22221C0241
:104B50003C42423C000000030202023A464242420A
:104B600042E700000000000C0C00000E08080808D6
:104B7000083E0000000000303000003820202020D7
:104B80002020221E0000000302020272120A1612E6
:104B9000227700000000000E08080808080808082E
:104BA000083E0000000000000000007F92929292F8
:104BB00092B70000000000000000003B4642424265
:104BC00042E70000000000000000003C4242424278
:104BD000423C0000000000000000001B2642424250
:104BE000221E0207000000000000007844424242FA
:104BF000447840E000000000000000774C0404040A
:104C0000041F0000000000000000007C42023C4045
:104C1000423E0000000000000008083E08080808A6
:104C200008300000000000000000006342424242E1
:104C300062DC000000000000000000E742242414B1
:104C40000808000000000000000000EB494955552D
:104C5000222200000000000000000076241818182E
:104C6000246E000000000000000000E7422424142D
:104C700018080807000000000000007E2210080845
:104C8000447E000000C02020202020102020202072
:104C90002020C00010101010101010101010101054
:104CA0001010101000060808080808100808080866
:104CB000080806000C32C2000000000000000000DE
:104CC00000000000000000000000000000000000E4
:104CD00000000000000000000000000000000000D4
:104CE00000000000000000000000000000000000C4
:104CF00000000000000000000000000060006000F4
:104D00006000600060006000600040002000200043
:104D10002000000000000000600060006000000053
:104D200000000000000000006006600630039801EB
:104D300088004400000000000000000000000000A7
:104D40000000000000000000000000000000000063
:104D5000000000000000000000000000100210022F
:104D600010021002FE07FE070802080108010801F0
:104D70000801FE07FE07040104010401040100000C
:104D80000000000000000000000040004000F001B2
:104D900058034C03CC034C0058007000E000C001E5
:104DA000C00140034C035C034C034801F000400089
:104DB0004000000000000000000000000E010A0199
:104DC000910091009100510051003A00AE03A00201
:104DD000500450044804480448048402840300003A
:104DE00000000000000000000000000038006C001F
:104DF0006C006C006C006C002C0098071C011A0100
:104E0000330133016301E300C308C6093C07000016
:104E100000000000000000000C001C00100010004A
:104E20000800040000000000000000000000000076
:104E30000000000000000000000000000000000072
:104E400000000000000000000004000200018000DB
:104E500080004000400020002000200020002000B2
:104E6000200020004000400080008000000100027F
:104E70000004000000000000020004000800100010
:104E80001000200020004000400040004000400092
:104E90004000400020002000100010000800040026
:104EA0000200000000000000000000000000000000
:104EB0004000C0004000460C4E0FD001F0015E0FD4
:104EC000460C4000400040000000000000000000D0
:104ED00000000000000000000000000000000000D2
:104EE000000040004000400040004000FE0F400035
:104EF00040004000400040000000000000000000B2
:104F000000000000000000000000000000000000A1
:104F10000000000000000000000000000000000091
:104F200000000000000000000C001C001000100039
:104F30000800040000000000000000000000000065
:104F4000000000000000000000000000FE0700005C
:104F50000000000000000000000000000000000051
:104F60000000000000000000000000000000000041
:104F70000000000000000000000000000000000031
:104F800000000000000000001C001C001C000000CD
:104F90000000000000000000000400060002000302
:104FA00000010001800080004000400060002000FF
:104FB000200010001000080008000C00040006008B
:104FC0000200000000000000000000000000F000EF
:104FD00098010C030C0306060606060606060606DE
:104FE0000606060606060C030C039801F0000000F6
:104FF0000000000000000000000000000000400071
:105000007C00600060006000600060006000600084
:10501000600060006000600060006000FC03000051
:105020000000000000000000000000000000F80088
:105030008401020306030603000300018001C0008F
:10504000600020001000080204020602FE030000B7
:1050500000000000000000000000000000007800D8
:10506000C6008601860180018001C00070008001B9
:10507000000100030003060306038601F800000098
:10508000000000000000000000000000000080019F
:105090008001C001A001A001900188018801840164
:1050A0008201FE0F8001800180018001E007000085
:1050B0000000000000000000000000000000FC03F1
:1050C00004000400040004000400F4008C01040344
:1050D000000300030603060382018401F8000000B8
:1050E0000000000000000000000000000000E001DF
:1050F00018030C030C0004000600E60116030E065C
:1051000006060606060604060C021803F000000058
:105110000000000000000000000000000000F80790
:105120000C06040204010001000180008000400020
:10513000400040006000600060006000600000000F
:105140000000000000000000000000000000F80166
:105150000C030606060606060C021C03F000C80136
:105160000C0306060606060606060C03F001000000
:105170000000000000000000000000000000F0003F
:105180000C010C03060206060606060606078C0638
:1051900078060006000300030C018C017800000073
:1051A00000000000000000000000000000000000FF
:1051B0000000000000000000E000E000E00000004F
:1051C0000000000000000000E000E000E00000003F
:1051D00000000000000000000000000000000000CF
:1051E00000000000000000006000600000000000FF
:1051F00000000000000000000000600060004000AF
:105200002000200000000000000000000004000258
:105210000001800040002000100008000400080089
:105220001000200040008000000100020004000087
:10523000000000000000000000000000000000006E
:105240000000000000000000FE0700000000000059
:10525000FE07000000000000000000000000000049
:105260000000000000000000000000000400080032
:105270001000200040008000000100020004000235
:105280000001800040002000100008000400000021
:105290000000000000000000000000000000E0032B
:1052A0001806040C040C0C0C0C0C000780014000C8
:1052B0004000400000000000E000E000E0000000CE
:1052C000000000000000000000000000E0001803E3
:1052D0000C02CC0564056605A605B604B604B60442
:1052E000B604B602E4010C040C021803F00000003E
:1052F000000000000000000000000000000060004E
:1053000060005000D00090009000880088010801E3
:10531000F801040304030402020202060F0F000056
:105320000000000000000000000000000000FE007F
:105330008C030C030C030C030C038C01FC000C030A
:105340000C020C060C060C060C060C03FE010000F9
:105350000000000000000000000000000000E0036A
:1053600018030C060C0404040600060006000600E0
:105370000600060006040C040C021803F0000000EE
:1053800000000000000000000000000000007F009E
:105390008C010C030C030C060C060C060C060C0608
:1053A0000C060C060C060C030C038C017F0000009D
:1053B0000000000000000000000000000000FF03EB
:1053C000060306040604060086008600FE0086002A
:1053D000860086000600060406040602FF0300009D
:1053E0000000000000000000000000000000FF03BB
:1053F000060306040604060086008600FE008600FA
:105400008600860006000600060006001F00000059
:105410000000000000000000000000000000F0009C
:1054200018010C020C020402060006000600060029
:10543000C60F060306030C030C031803F00000005C
:1054400000000000000000000000000000000F0F3E
:10545000060606060606060606060606FE070606F3
:105460000606060606060606060606060F0F0000D6
:105470000000000000000000000000000000FC032D
:10548000600060006000600060006000600060001C
:10549000600060006000600060006000FC030000CD
:1054A0000000000000000000000000000000F807FD
:1054B000C000C000C000C000C000C000C000C000EC
:1054C000C000C000C000C000C000C000C000C600D6
:1054D00066003C0000000000000000000000CF0358
:1054E0008601C60046002600160036002E006E001B
:1054F0004600C60086008601060106038F070000ED
:1055000000000000000000000000000000001F007C
:10551000060006000600060006000600060006005B
:10552000060006000600060406040602FF0300004B
:10553000000000000000000000000000000007075D
:10554000860386038E038E034E034E034A035A03DB
:105550005A033A033203320332031203870700006F
:1055600000000000000000000000000000008E0F9E
:105570000C021C021C023402340264026402440263
:10558000C402840284038403040304031F02000092
:105590000000000000000000000000000000F0001B
:1055A00098010C030C020606060606060606060609
:1055B0000606060606060C020C039801F000000021
:1055C0000000000000000000000000000000FF00DC
:1055D0000603060606060606060606068603FE00FF
:1055E0000600060006000600060006001F00000078
:1055F0000000000000000000000000000000F000BB
:1056000098010C030C0206060606060606060606A8
:105610000606060676064C02CC039801F0008007C9
:105620000003000000000000000000000000FF0177
:10563000060306060606060606060603FE004600E4
:10564000C600860086010603060306060F0E00004C
:105650000000000000000000000000000000F80250
:105660000C030602060206000E003C00F800E003F0
:10567000800300070206020606060C03F001000084
:105680000000000000000000000000000000FE0715
:1056900062046108610860006000600060006000F2
:1056A000600060006000600060006000F8010000C1
:1056B00000000000000000000000000000001E07C5
:1056C0000C020C020C020C020C020C020C020C026A
:1056D0000C020C020C020C020C021801F00000007B
:1056E00000000000000000000000000000000F07A4
:1056F0000602040104010C010C01880088009800D6
:105700009800500050007000300020002000000081
:105710000000000000000000000000000000F70E84
:10572000620442044604460464026402E402E402A1
:105730009C029C0198019801880188008800000063
:1057400000000000000000000000000000009E07B4
:105750000C01080118019000B000600020006000FA
:105760006000D00090008801080104038E0700004B
:1057700000000000000000000000000000000F0F0B
:10578000060404020C0208011801B800B000700001
:10579000600060006000600060006000F8010000D0
:1057A0000000000000000000000000000000FC07F6
:1057B0000C0206030201800180004000400020002E
:1057C00020001000180008040C040402FE0300006E
:1057D0000000000000000000E00320002000200086
:1057E00020002000200020002000200020002000B9
:1057F00020002000200020002000200020002000A9
:10580000E0030000000000000000000004000400AD
:1058100008000800100010001000200020004000C8
:105820004000C00080008000000100010002000272
:1058300000020004000000007C0040004000400026
:105840004000400040004000400040004000400058
:105850004000400040004000400040004000400048
:105860007C000000000060009000080100000000C3
:105870000000000000000000000000000000000028
:105880000000000000000000000000000000000018
:105890000000000000000000000000000000000008
:1058A00000000000000000000000000000000000F8
:1058B00000000000000000000000000000000000E8
:1058C0000000FF0F00000000180060000000000052
:1058D00000000000000000000000000000000000C8
:1058E00000000000000000000000000000000000B8
:1058F00000000000000000000000000000000000A8
:105900000000000000000000F0010C030C03000385
:10591000E0031C030E03060306038E0B7C0E00003F
:1059200000000000000000000000000008000E0061
:105930000C000C000C000C00CC013C031C060C06F7
:105940000C060C060C060C060C021C03E4010000FD
:105950000000000000000000000000000000000047
:105960000000000000000000F0008C018C018601A6
:1059700006000600060006020C020C01F000000002
:105980000000000000000000000000000002C00352
:10599000000300030003000378038C030C030603D9
:1059A000060306030603060304038C0778010000C0
:1059B00000000000000000000000000000000000E7
:1059C0000000000000000000E001180308020C06BF
:1059D0000C06FC070C000C0018041802E001000083
:1059E0000000000000000000000000000000C003F4
:1059F0006006300630003000FE013000300030001C
:105A0000300030003000300030003000FC01000079
:105A10000000000000000000000000000000000086
:105A20000000000000000000F007D8068C018C0187
:105A30008C019801F8000C00FC00CC03060306035F
:105A40008E03F800000000000000000008000E00B7
:105A50000C000C000C000C00EC011C030C030C03EC
:105A60000C030C030C030C030C030C039E07000037
:105A700000000000000000000000000000006000C6
:105A800060000000000040007C00600060006000DA
:105A9000600060006000600060006000FC030000C7
:105AA0000000000000000000000000000000C00135
:105AB000C001000000000001F001800180018001B0
:105AC00080018001800180018001800180018001CE
:105AD000CC007C00000000000000000008000E0068
